{
	"data": {
		"bytecode": {
			"linkReferences": {},
			"object": "6080604052348015600e575f80fd5b50611d538061001c5f395ff3fe608060405260043610610085575f3560e01c806395d73fdc1161005857806395d73fdc14610148578063a5b16b2e14610184578063c2ed2b05146101ae578063d6554800146101ec578063d82278111461022857610085565b806325fc1c3c1461008957806335ac6064146100c557806363a50d50146100e15780636c49789114610109575b5f80fd5b348015610094575f80fd5b506100af60048036038101906100aa9190610fec565b610264565b6040516100bc9190611108565b60405180910390f35b6100df60048036038101906100da91906111d8565b610370565b005b3480156100ec575f80fd5b506101076004803603810190610102919061124e565b610590565b005b348015610114575f80fd5b5061012f600480360381019061012a919061124e565b610901565b60405161013f94939291906113ae565b60405180910390f35b348015610153575f80fd5b5061016e600480360381019061016991906113ff565b610a55565b60405161017b919061143d565b60405180910390f35b34801561018f575f80fd5b50610198610ab9565b6040516101a59190611456565b60405180910390f35b3480156101b9575f80fd5b506101d460048036038101906101cf919061124e565b610abf565b6040516101e39392919061146f565b60405180910390f35b3480156101f7575f80fd5b50610212600480360381019061020d91906114ab565b610b76565b60405161021f919061158d565b60405180910390f35b348015610233575f80fd5b5061024e600480360381019061024991906115ad565b610c09565b60405161025b919061143d565b60405180910390f35b60605f825167ffffffffffffffff81111561028257610281610e56565b5b6040519080825280602002602001820160405280156102b05781602001602082028036833780820191505090505b5090505f5b8351811015610365575f808681526020019081526020015f206002015f8583815181106102e5576102e4611607565b5b602002602001015173ffffffffffffffffffffffffffffffffffffffff1673ffffffffffffffffffffffffffffffffffffffff1681526020019081526020015f205f9054906101000a900460ff1682828151811061034657610345611607565b5b60200260200101901515908115158152505080806001019150506102b5565b508091505092915050565b5f8151116103b3576040517f08c379a00000000000000000000000000000000000000000000000000000000081526004016103aa9061167e565b60405180910390fd5b5f34116103f5576040517f08c379a00000000000000000000000000000000000000000000000000000000081526004016103ec906116e6565b60405180910390fd5b5f60015490505f805f8381526020019081526020015f20905083815f01908161041e91906118fe565b5082816001019080519060200190610437929190610d5c565b503481600401819055505f5b83518110156104d45760025f85838151811061046257610461611607565b5b602002602001015173ffffffffffffffffffffffffffffffffffffffff1673ffffffffffffffffffffffffffffffffffffffff1681526020019081526020015f2083908060018154018082558091505060019003905f5260205f20015f90919091909150558080600101915050610443565b5060025f3373ffffffffffffffffffffffffffffffffffffffff1673ffffffffffffffffffffffffffffffffffffffff1681526020019081526020015f2082908060018154018082558091505060019003905f5260205f20015f909190919091505560015f815480929190610548906119fa565b91905055507f5e8c80cd78557617886b7decd66e1ef5c0561c870ff119003691ac1823e9641b828585346040516105829493929190611a41565b60405180910390a150505050565b5f805f8381526020019081526020015f209050806003015f9054906101000a900460ff16156105f4576040517f08c379a00000000000000000000000000000000000000000000000000000000081526004016105eb90611adc565b60405180910390fd5b610683338260010180548060200260200160405190810160405280929190818152602001828054801561067957602002820191905f5260205f20905b815f9054906101000a900473ffffffffffffffffffffffffffffffffffffffff1673ffffffffffffffffffffffffffffffffffffffff1681526020019060010190808311610630575b5050505050610c09565b6106c2576040517f08c379a00000000000000000000000000000000000000000000000000000000081526004016106b990611b44565b60405180910390fd5b806002015f3373ffffffffffffffffffffffffffffffffffffffff1673ffffffffffffffffffffffffffffffffffffffff1681526020019081526020015f205f9054906101000a900460ff161561074e576040517f08c379a000000000000000000000000000000000000000000000000000000000815260040161074590611bac565b60405180910390fd5b6001816002015f3373ffffffffffffffffffffffffffffffffffffffff1673ffffffffffffffffffffffffffffffffffffffff1681526020019081526020015f205f6101000a81548160ff0219169083151502179055507f4f45c30875f552d4b5d0a40abede6e40cb9e3b5df6c24df5026d21f5417a7c7082336040516107d6929190611bd9565b60405180910390a16107e782610c87565b156108c7576001816003015f6101000a81548160ff0219169083151502179055507f7cdb51e9dbbc205231228146c3246e7f914aa6d4a33170e43ecc8e3593481d1a60405161083590611c70565b60405180910390a13373ffffffffffffffffffffffffffffffffffffffff166108fc826004015490811502906040515f60405180830381858888f19350505050158015610884573d5f803e3d5ffd5b507fc8ef479acdbffd729d96117b951d1c3ee85d98ef42699aec806bc4f0b522461d8282600401546040516108ba929190611c8e565b60405180910390a16108fd565b7f7cdb51e9dbbc205231228146c3246e7f914aa6d4a33170e43ecc8e3593481d1a6040516108f490611cff565b60405180910390a15b5050565b6060805f805f805f8781526020019081526020015f209050805f0181600101826003015f9054906101000a900460ff16836004015483805461094290611731565b80601f016020809104026020016040519081016040528092919081815260200182805461096e90611731565b80156109b95780601f10610990576101008083540402835291602001916109b9565b820191905f5260205f20905b81548152906001019060200180831161099c57829003601f168201915b5050505050935082805480602002602001604051908101604052809291908181526020018280548015610a3e57602002820191905f5260205f20905b815f9054906101000a900473ffffffffffffffffffffffffffffffffffffffff1673ffffffffffffffffffffffffffffffffffffffff16815260200190600101908083116109f5575b505050505092509450945094509450509193509193565b5f805f8481526020019081526020015f206002015f8373ffffffffffffffffffffffffffffffffffffffff1673ffffffffffffffffffffffffffffffffffffffff1681526020019081526020015f205f9054906101000a900460ff16905092915050565b60015481565b5f602052805f5260405f205f91509050805f018054610add90611731565b80601f0160208091040260200160405190810160405280929190818152602001828054610b0990611731565b8015610b545780601f10610b2b57610100808354040283529160200191610b54565b820191905f5260205f20905b815481529060010190602001808311610b3757829003601f168201915b505050505090806003015f9054906101000a900460ff16908060040154905083565b606060025f8373ffffffffffffffffffffffffffffffffffffffff1673ffffffffffffffffffffffffffffffffffffffff1681526020019081526020015f20805480602002602001604051908101604052809291908181526020018280548015610bfd57602002820191905f5260205f20905b815481526020019060010190808311610be9575b50505050509050919050565b5f805f90505b8251811015610c7c578373ffffffffffffffffffffffffffffffffffffffff16838281518110610c4257610c41611607565b5b602002602001015173ffffffffffffffffffffffffffffffffffffffff1603610c6f576001915050610c81565b8080600101915050610c0f565b505f90505b92915050565b5f805f808481526020019081526020015f2090505f5b8160010180549050811015610d5057816002015f836001018381548110610cc757610cc6611607565b5b905f5260205f20015f9054906101000a900473ffffffffffffffffffffffffffffffffffffffff1673ffffffffffffffffffffffffffffffffffffffff1673ffffffffffffffffffffffffffffffffffffffff1681526020019081526020015f205f9054906101000a900460ff16610d43575f92505050610d57565b8080600101915050610c9d565b5060019150505b919050565b828054828255905f5260205f20908101928215610dd2579160200282015b82811115610dd1578251825f6101000a81548173ffffffffffffffffffffffffffffffffffffffff021916908373ffffffffffffffffffffffffffffffffffffffff16021790555091602001919060010190610d7a565b5b509050610ddf9190610de3565b5090565b5b80821115610dfa575f815f905550600101610de4565b5090565b5f604051905090565b5f80fd5b5f80fd5b5f819050919050565b610e2181610e0f565b8114610e2b575f80fd5b50565b5f81359050610e3c81610e18565b92915050565b5f80fd5b5f601f19601f8301169050919050565b7f4e487b71000000000000000000000000000000000000000000000000000000005f52604160045260245ffd5b610e8c82610e46565b810181811067ffffffffffffffff82111715610eab57610eaa610e56565b5b80604052505050565b5f610ebd610dfe565b9050610ec98282610e83565b919050565b5f67ffffffffffffffff821115610ee857610ee7610e56565b5b602082029050602081019050919050565b5f80fd5b5f73ffffffffffffffffffffffffffffffffffffffff82169050919050565b5f610f2682610efd565b9050919050565b610f3681610f1c565b8114610f40575f80fd5b50565b5f81359050610f5181610f2d565b92915050565b5f610f69610f6484610ece565b610eb4565b90508083825260208201905060208402830185811115610f8c57610f8b610ef9565b5b835b81811015610fb55780610fa18882610f43565b845260208401935050602081019050610f8e565b5050509392505050565b5f82601f830112610fd357610fd2610e42565b5b8135610fe3848260208601610f57565b91505092915050565b5f806040838503121561100257611001610e07565b5b5f61100f85828601610e2e565b925050602083013567ffffffffffffffff8111156110305761102f610e0b565b5b61103c85828601610fbf565b9150509250929050565b5f81519050919050565b5f82825260208201905092915050565b5f819050602082019050919050565b5f8115159050919050565b6110838161106f565b82525050565b5f611094838361107a565b60208301905092915050565b5f602082019050919050565b5f6110b682611046565b6110c08185611050565b93506110cb83611060565b805f5b838110156110fb5781516110e28882611089565b97506110ed836110a0565b9250506001810190506110ce565b5085935050505092915050565b5f6020820190508181035f83015261112081846110ac565b905092915050565b5f80fd5b5f67ffffffffffffffff82111561114657611145610e56565b5b61114f82610e46565b9050602081019050919050565b828183375f83830152505050565b5f61117c6111778461112c565b610eb4565b90508281526020810184848401111561119857611197611128565b5b6111a384828561115c565b509392505050565b5f82601f8301126111bf576111be610e42565b5b81356111cf84826020860161116a565b91505092915050565b5f80604083850312156111ee576111ed610e07565b5b5f83013567ffffffffffffffff81111561120b5761120a610e0b565b5b611217858286016111ab565b925050602083013567ffffffffffffffff81111561123857611237610e0b565b5b61124485828601610fbf565b9150509250929050565b5f6020828403121561126357611262610e07565b5b5f61127084828501610e2e565b91505092915050565b5f81519050919050565b5f82825260208201905092915050565b8281835e5f83830152505050565b5f6112ab82611279565b6112b58185611283565b93506112c5818560208601611293565b6112ce81610e46565b840191505092915050565b5f81519050919050565b5f82825260208201905092915050565b5f819050602082019050919050565b61130b81610f1c565b82525050565b5f61131c8383611302565b60208301905092915050565b5f602082019050919050565b5f61133e826112d9565b61134881856112e3565b9350611353836112f3565b805f5b8381101561138357815161136a8882611311565b975061137583611328565b925050600181019050611356565b5085935050505092915050565b6113998161106f565b82525050565b6113a881610e0f565b82525050565b5f6080820190508181035f8301526113c681876112a1565b905081810360208301526113da8186611334565b90506113e96040830185611390565b6113f6606083018461139f565b95945050505050565b5f806040838503121561141557611414610e07565b5b5f61142285828601610e2e565b925050602061143385828601610f43565b9150509250929050565b5f6020820190506114505f830184611390565b92915050565b5f6020820190506114695f83018461139f565b92915050565b5f6060820190508181035f83015261148781866112a1565b90506114966020830185611390565b6114a3604083018461139f565b949350505050565b5f602082840312156114c0576114bf610e07565b5b5f6114cd84828501610f43565b91505092915050565b5f81519050919050565b5f82825260208201905092915050565b5f819050602082019050919050565b61150881610e0f565b82525050565b5f61151983836114ff565b60208301905092915050565b5f602082019050919050565b5f61153b826114d6565b61154581856114e0565b9350611550836114f0565b805f5b83811015611580578151611567888261150e565b975061157283611525565b925050600181019050611553565b5085935050505092915050565b5f6020820190508181035f8301526115a58184611531565b905092915050565b5f80604083850312156115c3576115c2610e07565b5b5f6115d085828601610f43565b925050602083013567ffffffffffffffff8111156115f1576115f0610e0b565b5b6115fd85828601610fbf565b9150509250929050565b7f4e487b71000000000000000000000000000000000000000000000000000000005f52603260045260245ffd5b7f4e656564206174206c65617374206f6e65207369676e657200000000000000005f82015250565b5f611668601883611283565b915061167382611634565b602082019050919050565b5f6020820190508181035f8301526116958161165c565b9050919050565b7f4d75737420696e636c756465207061796d656e740000000000000000000000005f82015250565b5f6116d0601483611283565b91506116db8261169c565b602082019050919050565b5f6020820190508181035f8301526116fd816116c4565b9050919050565b7f4e487b71000000000000000000000000000000000000000000000000000000005f52602260045260245ffd5b5f600282049050600182168061174857607f821691505b60208210810361175b5761175a611704565b5b50919050565b5f819050815f5260205f209050919050565b5f6020601f8301049050919050565b5f82821b905092915050565b5f600883026117bd7fffffffffffffffffffffffffffffffffffffffffffffffffffffffffffffffff82611782565b6117c78683611782565b95508019841693508086168417925050509392505050565b5f819050919050565b5f6118026117fd6117f884610e0f565b6117df565b610e0f565b9050919050565b5f819050919050565b61181b836117e8565b61182f61182782611809565b84845461178e565b825550505050565b5f90565b611843611837565b61184e818484611812565b505050565b5b81811015611871576118665f8261183b565b600181019050611854565b5050565b601f8211156118b65761188781611761565b61189084611773565b8101602085101561189f578190505b6118b36118ab85611773565b830182611853565b50505b505050565b5f82821c905092915050565b5f6118d65f19846008026118bb565b1980831691505092915050565b5f6118ee83836118c7565b9150826002028217905092915050565b61190782611279565b67ffffffffffffffff8111156119205761191f610e56565b5b61192a8254611731565b611935828285611875565b5f60209050601f831160018114611966575f8415611954578287015190505b61195e85826118e3565b8655506119c5565b601f19841661197486611761565b5f5b8281101561199b57848901518255600182019150602085019450602081019050611976565b868310156119b857848901516119b4601f8916826118c7565b8355505b6001600288020188555050505b505050505050565b7f4e487b71000000000000000000000000000000000000000000000000000000005f52601160045260245ffd5b5f611a0482610e0f565b91507fffffffffffffffffffffffffffffffffffffffffffffffffffffffffffffffff8203611a3657611a356119cd565b5b600182019050919050565b5f608082019050611a545f83018761139f565b8181036020830152611a6681866112a1565b90508181036040830152611a7a8185611334565b9050611a89606083018461139f565b95945050505050565b7f446f63756d656e7420616c726561647920636f6d706c657465640000000000005f82015250565b5f611ac6601a83611283565b9150611ad182611a92565b602082019050919050565b5f6020820190508181035f830152611af381611aba565b9050919050565b7f4e6f7420617574686f72697a656420746f207369676e000000000000000000005f82015250565b5f611b2e601683611283565b9150611b3982611afa565b602082019050919050565b5f6020820190508181035f830152611b5b81611b22565b9050919050565b7f416c7265616479207369676e65640000000000000000000000000000000000005f82015250565b5f611b96600e83611283565b9150611ba182611b62565b602082019050919050565b5f6020820190508181035f830152611bc381611b8a565b9050919050565b611bd381610f1c565b82525050565b5f604082019050611bec5f83018561139f565b611bf96020830184611bca565b9392505050565b7f416c6c207369676e6572732068617665207369676e65642c2072656c656173695f8201527f6e67207061796d656e7400000000000000000000000000000000000000000000602082015250565b5f611c5a602a83611283565b9150611c6582611c00565b604082019050919050565b5f6020820190508181035f830152611c8781611c4e565b9050919050565b5f604082019050611ca15f83018561139f565b611cae602083018461139f565b9392505050565b7f4e6f7420616c6c207369676e6572732068617665207369676e656420796574005f82015250565b5f611ce9601f83611283565b9150611cf482611cb5565b602082019050919050565b5f6020820190508181035f830152611d1681611cdd565b905091905056fea26469706673582212207672c6569edc5a76d0f07a251fb10ce7b0adfeada55c05434f9467780d08460564736f6c634300081a0033",
			"opcodes": "PUSH1 0x80 PUSH1 0x40 MSTORE CALLVALUE DUP1 ISZERO PUSH1 0xE JUMPI PUSH0 DUP1 REVERT JUMPDEST POP PUSH2 0x1D53 DUP1 PUSH2 0x1C PUSH0 CODECOPY PUSH0 RETURN INVALID PUSH1 0x80 PUSH1 0x40 MSTORE PUSH1 0x4 CALLDATASIZE LT PUSH2 0x85 JUMPI PUSH0 CALLDATALOAD PUSH1 0xE0 SHR DUP1 PUSH4 0x95D73FDC GT PUSH2 0x58 JUMPI DUP1 PUSH4 0x95D73FDC EQ PUSH2 0x148 JUMPI DUP1 PUSH4 0xA5B16B2E EQ PUSH2 0x184 JUMPI DUP1 PUSH4 0xC2ED2B05 EQ PUSH2 0x1AE JUMPI DUP1 PUSH4 0xD6554800 EQ PUSH2 0x1EC JUMPI DUP1 PUSH4 0xD8227811 EQ PUSH2 0x228 JUMPI PUSH2 0x85 JUMP JUMPDEST DUP1 PUSH4 0x25FC1C3C EQ PUSH2 0x89 JUMPI DUP1 PUSH4 0x35AC6064 EQ PUSH2 0xC5 JUMPI DUP1 PUSH4 0x63A50D50 EQ PUSH2 0xE1 JUMPI DUP1 PUSH4 0x6C497891 EQ PUSH2 0x109 JUMPI JUMPDEST PUSH0 DUP1 REVERT JUMPDEST CALLVALUE DUP1 ISZERO PUSH2 0x94 JUMPI PUSH0 DUP1 REVERT JUMPDEST POP PUSH2 0xAF PUSH1 0x4 DUP1 CALLDATASIZE SUB DUP2 ADD SWAP1 PUSH2 0xAA SWAP2 SWAP1 PUSH2 0xFEC JUMP JUMPDEST PUSH2 0x264 JUMP JUMPDEST PUSH1 0x40 MLOAD PUSH2 0xBC SWAP2 SWAP1 PUSH2 0x1108 JUMP JUMPDEST PUSH1 0x40 MLOAD DUP1 SWAP2 SUB SWAP1 RETURN JUMPDEST PUSH2 0xDF PUSH1 0x4 DUP1 CALLDATASIZE SUB DUP2 ADD SWAP1 PUSH2 0xDA SWAP2 SWAP1 PUSH2 0x11D8 JUMP JUMPDEST PUSH2 0x370 JUMP JUMPDEST STOP JUMPDEST CALLVALUE DUP1 ISZERO PUSH2 0xEC JUMPI PUSH0 DUP1 REVERT JUMPDEST POP PUSH2 0x107 PUSH1 0x4 DUP1 CALLDATASIZE SUB DUP2 ADD SWAP1 PUSH2 0x102 SWAP2 SWAP1 PUSH2 0x124E JUMP JUMPDEST PUSH2 0x590 JUMP JUMPDEST STOP JUMPDEST CALLVALUE DUP1 ISZERO PUSH2 0x114 JUMPI PUSH0 DUP1 REVERT JUMPDEST POP PUSH2 0x12F PUSH1 0x4 DUP1 CALLDATASIZE SUB DUP2 ADD SWAP1 PUSH2 0x12A SWAP2 SWAP1 PUSH2 0x124E JUMP JUMPDEST PUSH2 0x901 JUMP JUMPDEST PUSH1 0x40 MLOAD PUSH2 0x13F SWAP5 SWAP4 SWAP3 SWAP2 SWAP1 PUSH2 0x13AE JUMP JUMPDEST PUSH1 0x40 MLOAD DUP1 SWAP2 SUB SWAP1 RETURN JUMPDEST CALLVALUE DUP1 ISZERO PUSH2 0x153 JUMPI PUSH0 DUP1 REVERT JUMPDEST POP PUSH2 0x16E PUSH1 0x4 DUP1 CALLDATASIZE SUB DUP2 ADD SWAP1 PUSH2 0x169 SWAP2 SWAP1 PUSH2 0x13FF JUMP JUMPDEST PUSH2 0xA55 JUMP JUMPDEST PUSH1 0x40 MLOAD PUSH2 0x17B SWAP2 SWAP1 PUSH2 0x143D JUMP JUMPDEST PUSH1 0x40 MLOAD DUP1 SWAP2 SUB SWAP1 RETURN JUMPDEST CALLVALUE DUP1 ISZERO PUSH2 0x18F JUMPI PUSH0 DUP1 REVERT JUMPDEST POP PUSH2 0x198 PUSH2 0xAB9 JUMP JUMPDEST PUSH1 0x40 MLOAD PUSH2 0x1A5 SWAP2 SWAP1 PUSH2 0x1456 JUMP JUMPDEST PUSH1 0x40 MLOAD DUP1 SWAP2 SUB SWAP1 RETURN JUMPDEST CALLVALUE DUP1 ISZERO PUSH2 0x1B9 JUMPI PUSH0 DUP1 REVERT JUMPDEST POP PUSH2 0x1D4 PUSH1 0x4 DUP1 CALLDATASIZE SUB DUP2 ADD SWAP1 PUSH2 0x1CF SWAP2 SWAP1 PUSH2 0x124E JUMP JUMPDEST PUSH2 0xABF JUMP JUMPDEST PUSH1 0x40 MLOAD PUSH2 0x1E3 SWAP4 SWAP3 SWAP2 SWAP1 PUSH2 0x146F JUMP JUMPDEST PUSH1 0x40 MLOAD DUP1 SWAP2 SUB SWAP1 RETURN JUMPDEST CALLVALUE DUP1 ISZERO PUSH2 0x1F7 JUMPI PUSH0 DUP1 REVERT JUMPDEST POP PUSH2 0x212 PUSH1 0x4 DUP1 CALLDATASIZE SUB DUP2 ADD SWAP1 PUSH2 0x20D SWAP2 SWAP1 PUSH2 0x14AB JUMP JUMPDEST PUSH2 0xB76 JUMP JUMPDEST PUSH1 0x40 MLOAD PUSH2 0x21F SWAP2 SWAP1 PUSH2 0x158D JUMP JUMPDEST PUSH1 0x40 MLOAD DUP1 SWAP2 SUB SWAP1 RETURN JUMPDEST CALLVALUE DUP1 ISZERO PUSH2 0x233 JUMPI PUSH0 DUP1 REVERT JUMPDEST POP PUSH2 0x24E PUSH1 0x4 DUP1 CALLDATASIZE SUB DUP2 ADD SWAP1 PUSH2 0x249 SWAP2 SWAP1 PUSH2 0x15AD JUMP JUMPDEST PUSH2 0xC09 JUMP JUMPDEST PUSH1 0x40 MLOAD PUSH2 0x25B SWAP2 SWAP1 PUSH2 0x143D JUMP JUMPDEST PUSH1 0x40 MLOAD DUP1 SWAP2 SUB SWAP1 RETURN JUMPDEST PUSH1 0x60 PUSH0 DUP3 MLOAD PUSH8 0xFFFFFFFFFFFFFFFF DUP2 GT ISZERO PUSH2 0x282 JUMPI PUSH2 0x281 PUSH2 0xE56 JUMP JUMPDEST JUMPDEST PUSH1 0x40 MLOAD SWAP1 DUP1 DUP3 MSTORE DUP1 PUSH1 0x20 MUL PUSH1 0x20 ADD DUP3 ADD PUSH1 0x40 MSTORE DUP1 ISZERO PUSH2 0x2B0 JUMPI DUP2 PUSH1 0x20 ADD PUSH1 0x20 DUP3 MUL DUP1 CALLDATASIZE DUP4 CALLDATACOPY DUP1 DUP3 ADD SWAP2 POP POP SWAP1 POP JUMPDEST POP SWAP1 POP PUSH0 JUMPDEST DUP4 MLOAD DUP2 LT ISZERO PUSH2 0x365 JUMPI PUSH0 DUP1 DUP7 DUP2 MSTORE PUSH1 0x20 ADD SWAP1 DUP2 MSTORE PUSH1 0x20 ADD PUSH0 KECCAK256 PUSH1 0x2 ADD PUSH0 DUP6 DUP4 DUP2 MLOAD DUP2 LT PUSH2 0x2E5 JUMPI PUSH2 0x2E4 PUSH2 0x1607 JUMP JUMPDEST JUMPDEST PUSH1 0x20 MUL PUSH1 0x20 ADD ADD MLOAD PUSH20 0xFFFFFFFFFFFFFFFFFFFFFFFFFFFFFFFFFFFFFFFF AND PUSH20 0xFFFFFFFFFFFFFFFFFFFFFFFFFFFFFFFFFFFFFFFF AND DUP2 MSTORE PUSH1 0x20 ADD SWAP1 DUP2 MSTORE PUSH1 0x20 ADD PUSH0 KECCAK256 PUSH0 SWAP1 SLOAD SWAP1 PUSH2 0x100 EXP SWAP1 DIV PUSH1 0xFF AND DUP3 DUP3 DUP2 MLOAD DUP2 LT PUSH2 0x346 JUMPI PUSH2 0x345 PUSH2 0x1607 JUMP JUMPDEST JUMPDEST PUSH1 0x20 MUL PUSH1 0x20 ADD ADD SWAP1 ISZERO ISZERO SWAP1 DUP2 ISZERO ISZERO DUP2 MSTORE POP POP DUP1 DUP1 PUSH1 0x1 ADD SWAP2 POP POP PUSH2 0x2B5 JUMP JUMPDEST POP DUP1 SWAP2 POP POP SWAP3 SWAP2 POP POP JUMP JUMPDEST PUSH0 DUP2 MLOAD GT PUSH2 0x3B3 JUMPI PUSH1 0x40 MLOAD PUSH32 0x8C379A000000000000000000000000000000000000000000000000000000000 DUP2 MSTORE PUSH1 0x4 ADD PUSH2 0x3AA SWAP1 PUSH2 0x167E JUMP JUMPDEST PUSH1 0x40 MLOAD DUP1 SWAP2 SUB SWAP1 REVERT JUMPDEST PUSH0 CALLVALUE GT PUSH2 0x3F5 JUMPI PUSH1 0x40 MLOAD PUSH32 0x8C379A000000000000000000000000000000000000000000000000000000000 DUP2 MSTORE PUSH1 0x4 ADD PUSH2 0x3EC SWAP1 PUSH2 0x16E6 JUMP JUMPDEST PUSH1 0x40 MLOAD DUP1 SWAP2 SUB SWAP1 REVERT JUMPDEST PUSH0 PUSH1 0x1 SLOAD SWAP1 POP PUSH0 DUP1 PUSH0 DUP4 DUP2 MSTORE PUSH1 0x20 ADD SWAP1 DUP2 MSTORE PUSH1 0x20 ADD PUSH0 KECCAK256 SWAP1 POP DUP4 DUP2 PUSH0 ADD SWAP1 DUP2 PUSH2 0x41E SWAP2 SWAP1 PUSH2 0x18FE JUMP JUMPDEST POP DUP3 DUP2 PUSH1 0x1 ADD SWAP1 DUP1 MLOAD SWAP1 PUSH1 0x20 ADD SWAP1 PUSH2 0x437 SWAP3 SWAP2 SWAP1 PUSH2 0xD5C JUMP JUMPDEST POP CALLVALUE DUP2 PUSH1 0x4 ADD DUP2 SWAP1 SSTORE POP PUSH0 JUMPDEST DUP4 MLOAD DUP2 LT ISZERO PUSH2 0x4D4 JUMPI PUSH1 0x2 PUSH0 DUP6 DUP4 DUP2 MLOAD DUP2 LT PUSH2 0x462 JUMPI PUSH2 0x461 PUSH2 0x1607 JUMP JUMPDEST JUMPDEST PUSH1 0x20 MUL PUSH1 0x20 ADD ADD MLOAD PUSH20 0xFFFFFFFFFFFFFFFFFFFFFFFFFFFFFFFFFFFFFFFF AND PUSH20 0xFFFFFFFFFFFFFFFFFFFFFFFFFFFFFFFFFFFFFFFF AND DUP2 MSTORE PUSH1 0x20 ADD SWAP1 DUP2 MSTORE PUSH1 0x20 ADD PUSH0 KECCAK256 DUP4 SWAP1 DUP1 PUSH1 0x1 DUP2 SLOAD ADD DUP1 DUP3 SSTORE DUP1 SWAP2 POP POP PUSH1 0x1 SWAP1 SUB SWAP1 PUSH0 MSTORE PUSH1 0x20 PUSH0 KECCAK256 ADD PUSH0 SWAP1 SWAP2 SWAP1 SWAP2 SWAP1 SWAP2 POP SSTORE DUP1 DUP1 PUSH1 0x1 ADD SWAP2 POP POP PUSH2 0x443 JUMP JUMPDEST POP PUSH1 0x2 PUSH0 CALLER PUSH20 0xFFFFFFFFFFFFFFFFFFFFFFFFFFFFFFFFFFFFFFFF AND PUSH20 0xFFFFFFFFFFFFFFFFFFFFFFFFFFFFFFFFFFFFFFFF AND DUP2 MSTORE PUSH1 0x20 ADD SWAP1 DUP2 MSTORE PUSH1 0x20 ADD PUSH0 KECCAK256 DUP3 SWAP1 DUP1 PUSH1 0x1 DUP2 SLOAD ADD DUP1 DUP3 SSTORE DUP1 SWAP2 POP POP PUSH1 0x1 SWAP1 SUB SWAP1 PUSH0 MSTORE PUSH1 0x20 PUSH0 KECCAK256 ADD PUSH0 SWAP1 SWAP2 SWAP1 SWAP2 SWAP1 SWAP2 POP SSTORE PUSH1 0x1 PUSH0 DUP2 SLOAD DUP1 SWAP3 SWAP2 SWAP1 PUSH2 0x548 SWAP1 PUSH2 0x19FA JUMP JUMPDEST SWAP2 SWAP1 POP SSTORE POP PUSH32 0x5E8C80CD78557617886B7DECD66E1EF5C0561C870FF119003691AC1823E9641B DUP3 DUP6 DUP6 CALLVALUE PUSH1 0x40 MLOAD PUSH2 0x582 SWAP5 SWAP4 SWAP3 SWAP2 SWAP1 PUSH2 0x1A41 JUMP JUMPDEST PUSH1 0x40 MLOAD DUP1 SWAP2 SUB SWAP1 LOG1 POP POP POP POP JUMP JUMPDEST PUSH0 DUP1 PUSH0 DUP4 DUP2 MSTORE PUSH1 0x20 ADD SWAP1 DUP2 MSTORE PUSH1 0x20 ADD PUSH0 KECCAK256 SWAP1 POP DUP1 PUSH1 0x3 ADD PUSH0 SWAP1 SLOAD SWAP1 PUSH2 0x100 EXP SWAP1 DIV PUSH1 0xFF AND ISZERO PUSH2 0x5F4 JUMPI PUSH1 0x40 MLOAD PUSH32 0x8C379A000000000000000000000000000000000000000000000000000000000 DUP2 MSTORE PUSH1 0x4 ADD PUSH2 0x5EB SWAP1 PUSH2 0x1ADC JUMP JUMPDEST PUSH1 0x40 MLOAD DUP1 SWAP2 SUB SWAP1 REVERT JUMPDEST PUSH2 0x683 CALLER DUP3 PUSH1 0x1 ADD DUP1 SLOAD DUP1 PUSH1 0x20 MUL PUSH1 0x20 ADD PUSH1 0x40 MLOAD SWAP1 DUP2 ADD PUSH1 0x40 MSTORE DUP1 SWAP3 SWAP2 SWAP1 DUP2 DUP2 MSTORE PUSH1 0x20 ADD DUP3 DUP1 SLOAD DUP1 ISZERO PUSH2 0x679 JUMPI PUSH1 0x20 MUL DUP3 ADD SWAP2 SWAP1 PUSH0 MSTORE PUSH1 0x20 PUSH0 KECCAK256 SWAP1 JUMPDEST DUP2 PUSH0 SWAP1 SLOAD SWAP1 PUSH2 0x100 EXP SWAP1 DIV PUSH20 0xFFFFFFFFFFFFFFFFFFFFFFFFFFFFFFFFFFFFFFFF AND PUSH20 0xFFFFFFFFFFFFFFFFFFFFFFFFFFFFFFFFFFFFFFFF AND DUP2 MSTORE PUSH1 0x20 ADD SWAP1 PUSH1 0x1 ADD SWAP1 DUP1 DUP4 GT PUSH2 0x630 JUMPI JUMPDEST POP POP POP POP POP PUSH2 0xC09 JUMP JUMPDEST PUSH2 0x6C2 JUMPI PUSH1 0x40 MLOAD PUSH32 0x8C379A000000000000000000000000000000000000000000000000000000000 DUP2 MSTORE PUSH1 0x4 ADD PUSH2 0x6B9 SWAP1 PUSH2 0x1B44 JUMP JUMPDEST PUSH1 0x40 MLOAD DUP1 SWAP2 SUB SWAP1 REVERT JUMPDEST DUP1 PUSH1 0x2 ADD PUSH0 CALLER PUSH20 0xFFFFFFFFFFFFFFFFFFFFFFFFFFFFFFFFFFFFFFFF AND PUSH20 0xFFFFFFFFFFFFFFFFFFFFFFFFFFFFFFFFFFFFFFFF AND DUP2 MSTORE PUSH1 0x20 ADD SWAP1 DUP2 MSTORE PUSH1 0x20 ADD PUSH0 KECCAK256 PUSH0 SWAP1 SLOAD SWAP1 PUSH2 0x100 EXP SWAP1 DIV PUSH1 0xFF AND ISZERO PUSH2 0x74E JUMPI PUSH1 0x40 MLOAD PUSH32 0x8C379A000000000000000000000000000000000000000000000000000000000 DUP2 MSTORE PUSH1 0x4 ADD PUSH2 0x745 SWAP1 PUSH2 0x1BAC JUMP JUMPDEST PUSH1 0x40 MLOAD DUP1 SWAP2 SUB SWAP1 REVERT JUMPDEST PUSH1 0x1 DUP2 PUSH1 0x2 ADD PUSH0 CALLER PUSH20 0xFFFFFFFFFFFFFFFFFFFFFFFFFFFFFFFFFFFFFFFF AND PUSH20 0xFFFFFFFFFFFFFFFFFFFFFFFFFFFFFFFFFFFFFFFF AND DUP2 MSTORE PUSH1 0x20 ADD SWAP1 DUP2 MSTORE PUSH1 0x20 ADD PUSH0 KECCAK256 PUSH0 PUSH2 0x100 EXP DUP2 SLOAD DUP2 PUSH1 0xFF MUL NOT AND SWAP1 DUP4 ISZERO ISZERO MUL OR SWAP1 SSTORE POP PUSH32 0x4F45C30875F552D4B5D0A40ABEDE6E40CB9E3B5DF6C24DF5026D21F5417A7C70 DUP3 CALLER PUSH1 0x40 MLOAD PUSH2 0x7D6 SWAP3 SWAP2 SWAP1 PUSH2 0x1BD9 JUMP JUMPDEST PUSH1 0x40 MLOAD DUP1 SWAP2 SUB SWAP1 LOG1 PUSH2 0x7E7 DUP3 PUSH2 0xC87 JUMP JUMPDEST ISZERO PUSH2 0x8C7 JUMPI PUSH1 0x1 DUP2 PUSH1 0x3 ADD PUSH0 PUSH2 0x100 EXP DUP2 SLOAD DUP2 PUSH1 0xFF MUL NOT AND SWAP1 DUP4 ISZERO ISZERO MUL OR SWAP1 SSTORE POP PUSH32 0x7CDB51E9DBBC205231228146C3246E7F914AA6D4A33170E43ECC8E3593481D1A PUSH1 0x40 MLOAD PUSH2 0x835 SWAP1 PUSH2 0x1C70 JUMP JUMPDEST PUSH1 0x40 MLOAD DUP1 SWAP2 SUB SWAP1 LOG1 CALLER PUSH20 0xFFFFFFFFFFFFFFFFFFFFFFFFFFFFFFFFFFFFFFFF AND PUSH2 0x8FC DUP3 PUSH1 0x4 ADD SLOAD SWAP1 DUP2 ISZERO MUL SWAP1 PUSH1 0x40 MLOAD PUSH0 PUSH1 0x40 MLOAD DUP1 DUP4 SUB DUP2 DUP6 DUP9 DUP9 CALL SWAP4 POP POP POP POP ISZERO DUP1 ISZERO PUSH2 0x884 JUMPI RETURNDATASIZE PUSH0 DUP1 RETURNDATACOPY RETURNDATASIZE PUSH0 REVERT JUMPDEST POP PUSH32 0xC8EF479ACDBFFD729D96117B951D1C3EE85D98EF42699AEC806BC4F0B522461D DUP3 DUP3 PUSH1 0x4 ADD SLOAD PUSH1 0x40 MLOAD PUSH2 0x8BA SWAP3 SWAP2 SWAP1 PUSH2 0x1C8E JUMP JUMPDEST PUSH1 0x40 MLOAD DUP1 SWAP2 SUB SWAP1 LOG1 PUSH2 0x8FD JUMP JUMPDEST PUSH32 0x7CDB51E9DBBC205231228146C3246E7F914AA6D4A33170E43ECC8E3593481D1A PUSH1 0x40 MLOAD PUSH2 0x8F4 SWAP1 PUSH2 0x1CFF JUMP JUMPDEST PUSH1 0x40 MLOAD DUP1 SWAP2 SUB SWAP1 LOG1 JUMPDEST POP POP JUMP JUMPDEST PUSH1 0x60 DUP1 PUSH0 DUP1 PUSH0 DUP1 PUSH0 DUP8 DUP2 MSTORE PUSH1 0x20 ADD SWAP1 DUP2 MSTORE PUSH1 0x20 ADD PUSH0 KECCAK256 SWAP1 POP DUP1 PUSH0 ADD DUP2 PUSH1 0x1 ADD DUP3 PUSH1 0x3 ADD PUSH0 SWAP1 SLOAD SWAP1 PUSH2 0x100 EXP SWAP1 DIV PUSH1 0xFF AND DUP4 PUSH1 0x4 ADD SLOAD DUP4 DUP1 SLOAD PUSH2 0x942 SWAP1 PUSH2 0x1731 JUMP JUMPDEST DUP1 PUSH1 0x1F ADD PUSH1 0x20 DUP1 SWAP2 DIV MUL PUSH1 0x20 ADD PUSH1 0x40 MLOAD SWAP1 DUP2 ADD PUSH1 0x40 MSTORE DUP1 SWAP3 SWAP2 SWAP1 DUP2 DUP2 MSTORE PUSH1 0x20 ADD DUP3 DUP1 SLOAD PUSH2 0x96E SWAP1 PUSH2 0x1731 JUMP JUMPDEST DUP1 ISZERO PUSH2 0x9B9 JUMPI DUP1 PUSH1 0x1F LT PUSH2 0x990 JUMPI PUSH2 0x100 DUP1 DUP4 SLOAD DIV MUL DUP4 MSTORE SWAP2 PUSH1 0x20 ADD SWAP2 PUSH2 0x9B9 JUMP JUMPDEST DUP3 ADD SWAP2 SWAP1 PUSH0 MSTORE PUSH1 0x20 PUSH0 KECCAK256 SWAP1 JUMPDEST DUP2 SLOAD DUP2 MSTORE SWAP1 PUSH1 0x1 ADD SWAP1 PUSH1 0x20 ADD DUP1 DUP4 GT PUSH2 0x99C JUMPI DUP3 SWAP1 SUB PUSH1 0x1F AND DUP3 ADD SWAP2 JUMPDEST POP POP POP POP POP SWAP4 POP DUP3 DUP1 SLOAD DUP1 PUSH1 0x20 MUL PUSH1 0x20 ADD PUSH1 0x40 MLOAD SWAP1 DUP2 ADD PUSH1 0x40 MSTORE DUP1 SWAP3 SWAP2 SWAP1 DUP2 DUP2 MSTORE PUSH1 0x20 ADD DUP3 DUP1 SLOAD DUP1 ISZERO PUSH2 0xA3E JUMPI PUSH1 0x20 MUL DUP3 ADD SWAP2 SWAP1 PUSH0 MSTORE PUSH1 0x20 PUSH0 KECCAK256 SWAP1 JUMPDEST DUP2 PUSH0 SWAP1 SLOAD SWAP1 PUSH2 0x100 EXP SWAP1 DIV PUSH20 0xFFFFFFFFFFFFFFFFFFFFFFFFFFFFFFFFFFFFFFFF AND PUSH20 0xFFFFFFFFFFFFFFFFFFFFFFFFFFFFFFFFFFFFFFFF AND DUP2 MSTORE PUSH1 0x20 ADD SWAP1 PUSH1 0x1 ADD SWAP1 DUP1 DUP4 GT PUSH2 0x9F5 JUMPI JUMPDEST POP POP POP POP POP SWAP3 POP SWAP5 POP SWAP5 POP SWAP5 POP SWAP5 POP POP SWAP2 SWAP4 POP SWAP2 SWAP4 JUMP JUMPDEST PUSH0 DUP1 PUSH0 DUP5 DUP2 MSTORE PUSH1 0x20 ADD SWAP1 DUP2 MSTORE PUSH1 0x20 ADD PUSH0 KECCAK256 PUSH1 0x2 ADD PUSH0 DUP4 PUSH20 0xFFFFFFFFFFFFFFFFFFFFFFFFFFFFFFFFFFFFFFFF AND PUSH20 0xFFFFFFFFFFFFFFFFFFFFFFFFFFFFFFFFFFFFFFFF AND DUP2 MSTORE PUSH1 0x20 ADD SWAP1 DUP2 MSTORE PUSH1 0x20 ADD PUSH0 KECCAK256 PUSH0 SWAP1 SLOAD SWAP1 PUSH2 0x100 EXP SWAP1 DIV PUSH1 0xFF AND SWAP1 POP SWAP3 SWAP2 POP POP JUMP JUMPDEST PUSH1 0x1 SLOAD DUP2 JUMP JUMPDEST PUSH0 PUSH1 0x20 MSTORE DUP1 PUSH0 MSTORE PUSH1 0x40 PUSH0 KECCAK256 PUSH0 SWAP2 POP SWAP1 POP DUP1 PUSH0 ADD DUP1 SLOAD PUSH2 0xADD SWAP1 PUSH2 0x1731 JUMP JUMPDEST DUP1 PUSH1 0x1F ADD PUSH1 0x20 DUP1 SWAP2 DIV MUL PUSH1 0x20 ADD PUSH1 0x40 MLOAD SWAP1 DUP2 ADD PUSH1 0x40 MSTORE DUP1 SWAP3 SWAP2 SWAP1 DUP2 DUP2 MSTORE PUSH1 0x20 ADD DUP3 DUP1 SLOAD PUSH2 0xB09 SWAP1 PUSH2 0x1731 JUMP JUMPDEST DUP1 ISZERO PUSH2 0xB54 JUMPI DUP1 PUSH1 0x1F LT PUSH2 0xB2B JUMPI PUSH2 0x100 DUP1 DUP4 SLOAD DIV MUL DUP4 MSTORE SWAP2 PUSH1 0x20 ADD SWAP2 PUSH2 0xB54 JUMP JUMPDEST DUP3 ADD SWAP2 SWAP1 PUSH0 MSTORE PUSH1 0x20 PUSH0 KECCAK256 SWAP1 JUMPDEST DUP2 SLOAD DUP2 MSTORE SWAP1 PUSH1 0x1 ADD SWAP1 PUSH1 0x20 ADD DUP1 DUP4 GT PUSH2 0xB37 JUMPI DUP3 SWAP1 SUB PUSH1 0x1F AND DUP3 ADD SWAP2 JUMPDEST POP POP POP POP POP SWAP1 DUP1 PUSH1 0x3 ADD PUSH0 SWAP1 SLOAD SWAP1 PUSH2 0x100 EXP SWAP1 DIV PUSH1 0xFF AND SWAP1 DUP1 PUSH1 0x4 ADD SLOAD SWAP1 POP DUP4 JUMP JUMPDEST PUSH1 0x60 PUSH1 0x2 PUSH0 DUP4 PUSH20 0xFFFFFFFFFFFFFFFFFFFFFFFFFFFFFFFFFFFFFFFF AND PUSH20 0xFFFFFFFFFFFFFFFFFFFFFFFFFFFFFFFFFFFFFFFF AND DUP2 MSTORE PUSH1 0x20 ADD SWAP1 DUP2 MSTORE PUSH1 0x20 ADD PUSH0 KECCAK256 DUP1 SLOAD DUP1 PUSH1 0x20 MUL PUSH1 0x20 ADD PUSH1 0x40 MLOAD SWAP1 DUP2 ADD PUSH1 0x40 MSTORE DUP1 SWAP3 SWAP2 SWAP1 DUP2 DUP2 MSTORE PUSH1 0x20 ADD DUP3 DUP1 SLOAD DUP1 ISZERO PUSH2 0xBFD JUMPI PUSH1 0x20 MUL DUP3 ADD SWAP2 SWAP1 PUSH0 MSTORE PUSH1 0x20 PUSH0 KECCAK256 SWAP1 JUMPDEST DUP2 SLOAD DUP2 MSTORE PUSH1 0x20 ADD SWAP1 PUSH1 0x1 ADD SWAP1 DUP1 DUP4 GT PUSH2 0xBE9 JUMPI JUMPDEST POP POP POP POP POP SWAP1 POP SWAP2 SWAP1 POP JUMP JUMPDEST PUSH0 DUP1 PUSH0 SWAP1 POP JUMPDEST DUP3 MLOAD DUP2 LT ISZERO PUSH2 0xC7C JUMPI DUP4 PUSH20 0xFFFFFFFFFFFFFFFFFFFFFFFFFFFFFFFFFFFFFFFF AND DUP4 DUP3 DUP2 MLOAD DUP2 LT PUSH2 0xC42 JUMPI PUSH2 0xC41 PUSH2 0x1607 JUMP JUMPDEST JUMPDEST PUSH1 0x20 MUL PUSH1 0x20 ADD ADD MLOAD PUSH20 0xFFFFFFFFFFFFFFFFFFFFFFFFFFFFFFFFFFFFFFFF AND SUB PUSH2 0xC6F JUMPI PUSH1 0x1 SWAP2 POP POP PUSH2 0xC81 JUMP JUMPDEST DUP1 DUP1 PUSH1 0x1 ADD SWAP2 POP POP PUSH2 0xC0F JUMP JUMPDEST POP PUSH0 SWAP1 POP JUMPDEST SWAP3 SWAP2 POP POP JUMP JUMPDEST PUSH0 DUP1 PUSH0 DUP1 DUP5 DUP2 MSTORE PUSH1 0x20 ADD SWAP1 DUP2 MSTORE PUSH1 0x20 ADD PUSH0 KECCAK256 SWAP1 POP PUSH0 JUMPDEST DUP2 PUSH1 0x1 ADD DUP1 SLOAD SWAP1 POP DUP2 LT ISZERO PUSH2 0xD50 JUMPI DUP2 PUSH1 0x2 ADD PUSH0 DUP4 PUSH1 0x1 ADD DUP4 DUP2 SLOAD DUP2 LT PUSH2 0xCC7 JUMPI PUSH2 0xCC6 PUSH2 0x1607 JUMP JUMPDEST JUMPDEST SWAP1 PUSH0 MSTORE PUSH1 0x20 PUSH0 KECCAK256 ADD PUSH0 SWAP1 SLOAD SWAP1 PUSH2 0x100 EXP SWAP1 DIV PUSH20 0xFFFFFFFFFFFFFFFFFFFFFFFFFFFFFFFFFFFFFFFF AND PUSH20 0xFFFFFFFFFFFFFFFFFFFFFFFFFFFFFFFFFFFFFFFF AND PUSH20 0xFFFFFFFFFFFFFFFFFFFFFFFFFFFFFFFFFFFFFFFF AND DUP2 MSTORE PUSH1 0x20 ADD SWAP1 DUP2 MSTORE PUSH1 0x20 ADD PUSH0 KECCAK256 PUSH0 SWAP1 SLOAD SWAP1 PUSH2 0x100 EXP SWAP1 DIV PUSH1 0xFF AND PUSH2 0xD43 JUMPI PUSH0 SWAP3 POP POP POP PUSH2 0xD57 JUMP JUMPDEST DUP1 DUP1 PUSH1 0x1 ADD SWAP2 POP POP PUSH2 0xC9D JUMP JUMPDEST POP PUSH1 0x1 SWAP2 POP POP JUMPDEST SWAP2 SWAP1 POP JUMP JUMPDEST DUP3 DUP1 SLOAD DUP3 DUP3 SSTORE SWAP1 PUSH0 MSTORE PUSH1 0x20 PUSH0 KECCAK256 SWAP1 DUP2 ADD SWAP3 DUP3 ISZERO PUSH2 0xDD2 JUMPI SWAP2 PUSH1 0x20 MUL DUP3 ADD JUMPDEST DUP3 DUP2 GT ISZERO PUSH2 0xDD1 JUMPI DUP3 MLOAD DUP3 PUSH0 PUSH2 0x100 EXP DUP2 SLOAD DUP2 PUSH20 0xFFFFFFFFFFFFFFFFFFFFFFFFFFFFFFFFFFFFFFFF MUL NOT AND SWAP1 DUP4 PUSH20 0xFFFFFFFFFFFFFFFFFFFFFFFFFFFFFFFFFFFFFFFF AND MUL OR SWAP1 SSTORE POP SWAP2 PUSH1 0x20 ADD SWAP2 SWAP1 PUSH1 0x1 ADD SWAP1 PUSH2 0xD7A JUMP JUMPDEST JUMPDEST POP SWAP1 POP PUSH2 0xDDF SWAP2 SWAP1 PUSH2 0xDE3 JUMP JUMPDEST POP SWAP1 JUMP JUMPDEST JUMPDEST DUP1 DUP3 GT ISZERO PUSH2 0xDFA JUMPI PUSH0 DUP2 PUSH0 SWAP1 SSTORE POP PUSH1 0x1 ADD PUSH2 0xDE4 JUMP JUMPDEST POP SWAP1 JUMP JUMPDEST PUSH0 PUSH1 0x40 MLOAD SWAP1 POP SWAP1 JUMP JUMPDEST PUSH0 DUP1 REVERT JUMPDEST PUSH0 DUP1 REVERT JUMPDEST PUSH0 DUP2 SWAP1 POP SWAP2 SWAP1 POP JUMP JUMPDEST PUSH2 0xE21 DUP2 PUSH2 0xE0F JUMP JUMPDEST DUP2 EQ PUSH2 0xE2B JUMPI PUSH0 DUP1 REVERT JUMPDEST POP JUMP JUMPDEST PUSH0 DUP2 CALLDATALOAD SWAP1 POP PUSH2 0xE3C DUP2 PUSH2 0xE18 JUMP JUMPDEST SWAP3 SWAP2 POP POP JUMP JUMPDEST PUSH0 DUP1 REVERT JUMPDEST PUSH0 PUSH1 0x1F NOT PUSH1 0x1F DUP4 ADD AND SWAP1 POP SWAP2 SWAP1 POP JUMP JUMPDEST PUSH32 0x4E487B7100000000000000000000000000000000000000000000000000000000 PUSH0 MSTORE PUSH1 0x41 PUSH1 0x4 MSTORE PUSH1 0x24 PUSH0 REVERT JUMPDEST PUSH2 0xE8C DUP3 PUSH2 0xE46 JUMP JUMPDEST DUP2 ADD DUP2 DUP2 LT PUSH8 0xFFFFFFFFFFFFFFFF DUP3 GT OR ISZERO PUSH2 0xEAB JUMPI PUSH2 0xEAA PUSH2 0xE56 JUMP JUMPDEST JUMPDEST DUP1 PUSH1 0x40 MSTORE POP POP POP JUMP JUMPDEST PUSH0 PUSH2 0xEBD PUSH2 0xDFE JUMP JUMPDEST SWAP1 POP PUSH2 0xEC9 DUP3 DUP3 PUSH2 0xE83 JUMP JUMPDEST SWAP2 SWAP1 POP JUMP JUMPDEST PUSH0 PUSH8 0xFFFFFFFFFFFFFFFF DUP3 GT ISZERO PUSH2 0xEE8 JUMPI PUSH2 0xEE7 PUSH2 0xE56 JUMP JUMPDEST JUMPDEST PUSH1 0x20 DUP3 MUL SWAP1 POP PUSH1 0x20 DUP2 ADD SWAP1 POP SWAP2 SWAP1 POP JUMP JUMPDEST PUSH0 DUP1 REVERT JUMPDEST PUSH0 PUSH20 0xFFFFFFFFFFFFFFFFFFFFFFFFFFFFFFFFFFFFFFFF DUP3 AND SWAP1 POP SWAP2 SWAP1 POP JUMP JUMPDEST PUSH0 PUSH2 0xF26 DUP3 PUSH2 0xEFD JUMP JUMPDEST SWAP1 POP SWAP2 SWAP1 POP JUMP JUMPDEST PUSH2 0xF36 DUP2 PUSH2 0xF1C JUMP JUMPDEST DUP2 EQ PUSH2 0xF40 JUMPI PUSH0 DUP1 REVERT JUMPDEST POP JUMP JUMPDEST PUSH0 DUP2 CALLDATALOAD SWAP1 POP PUSH2 0xF51 DUP2 PUSH2 0xF2D JUMP JUMPDEST SWAP3 SWAP2 POP POP JUMP JUMPDEST PUSH0 PUSH2 0xF69 PUSH2 0xF64 DUP5 PUSH2 0xECE JUMP JUMPDEST PUSH2 0xEB4 JUMP JUMPDEST SWAP1 POP DUP1 DUP4 DUP3 MSTORE PUSH1 0x20 DUP3 ADD SWAP1 POP PUSH1 0x20 DUP5 MUL DUP4 ADD DUP6 DUP2 GT ISZERO PUSH2 0xF8C JUMPI PUSH2 0xF8B PUSH2 0xEF9 JUMP JUMPDEST JUMPDEST DUP4 JUMPDEST DUP2 DUP2 LT ISZERO PUSH2 0xFB5 JUMPI DUP1 PUSH2 0xFA1 DUP9 DUP3 PUSH2 0xF43 JUMP JUMPDEST DUP5 MSTORE PUSH1 0x20 DUP5 ADD SWAP4 POP POP PUSH1 0x20 DUP2 ADD SWAP1 POP PUSH2 0xF8E JUMP JUMPDEST POP POP POP SWAP4 SWAP3 POP POP POP JUMP JUMPDEST PUSH0 DUP3 PUSH1 0x1F DUP4 ADD SLT PUSH2 0xFD3 JUMPI PUSH2 0xFD2 PUSH2 0xE42 JUMP JUMPDEST JUMPDEST DUP2 CALLDATALOAD PUSH2 0xFE3 DUP5 DUP3 PUSH1 0x20 DUP7 ADD PUSH2 0xF57 JUMP JUMPDEST SWAP2 POP POP SWAP3 SWAP2 POP POP JUMP JUMPDEST PUSH0 DUP1 PUSH1 0x40 DUP4 DUP6 SUB SLT ISZERO PUSH2 0x1002 JUMPI PUSH2 0x1001 PUSH2 0xE07 JUMP JUMPDEST JUMPDEST PUSH0 PUSH2 0x100F DUP6 DUP3 DUP7 ADD PUSH2 0xE2E JUMP JUMPDEST SWAP3 POP POP PUSH1 0x20 DUP4 ADD CALLDATALOAD PUSH8 0xFFFFFFFFFFFFFFFF DUP2 GT ISZERO PUSH2 0x1030 JUMPI PUSH2 0x102F PUSH2 0xE0B JUMP JUMPDEST JUMPDEST PUSH2 0x103C DUP6 DUP3 DUP7 ADD PUSH2 0xFBF JUMP JUMPDEST SWAP2 POP POP SWAP3 POP SWAP3 SWAP1 POP JUMP JUMPDEST PUSH0 DUP2 MLOAD SWAP1 POP SWAP2 SWAP1 POP JUMP JUMPDEST PUSH0 DUP3 DUP3 MSTORE PUSH1 0x20 DUP3 ADD SWAP1 POP SWAP3 SWAP2 POP POP JUMP JUMPDEST PUSH0 DUP2 SWAP1 POP PUSH1 0x20 DUP3 ADD SWAP1 POP SWAP2 SWAP1 POP JUMP JUMPDEST PUSH0 DUP2 ISZERO ISZERO SWAP1 POP SWAP2 SWAP1 POP JUMP JUMPDEST PUSH2 0x1083 DUP2 PUSH2 0x106F JUMP JUMPDEST DUP3 MSTORE POP POP JUMP JUMPDEST PUSH0 PUSH2 0x1094 DUP4 DUP4 PUSH2 0x107A JUMP JUMPDEST PUSH1 0x20 DUP4 ADD SWAP1 POP SWAP3 SWAP2 POP POP JUMP JUMPDEST PUSH0 PUSH1 0x20 DUP3 ADD SWAP1 POP SWAP2 SWAP1 POP JUMP JUMPDEST PUSH0 PUSH2 0x10B6 DUP3 PUSH2 0x1046 JUMP JUMPDEST PUSH2 0x10C0 DUP2 DUP6 PUSH2 0x1050 JUMP JUMPDEST SWAP4 POP PUSH2 0x10CB DUP4 PUSH2 0x1060 JUMP JUMPDEST DUP1 PUSH0 JUMPDEST DUP4 DUP2 LT ISZERO PUSH2 0x10FB JUMPI DUP2 MLOAD PUSH2 0x10E2 DUP9 DUP3 PUSH2 0x1089 JUMP JUMPDEST SWAP8 POP PUSH2 0x10ED DUP4 PUSH2 0x10A0 JUMP JUMPDEST SWAP3 POP POP PUSH1 0x1 DUP2 ADD SWAP1 POP PUSH2 0x10CE JUMP JUMPDEST POP DUP6 SWAP4 POP POP POP POP SWAP3 SWAP2 POP POP JUMP JUMPDEST PUSH0 PUSH1 0x20 DUP3 ADD SWAP1 POP DUP2 DUP2 SUB PUSH0 DUP4 ADD MSTORE PUSH2 0x1120 DUP2 DUP5 PUSH2 0x10AC JUMP JUMPDEST SWAP1 POP SWAP3 SWAP2 POP POP JUMP JUMPDEST PUSH0 DUP1 REVERT JUMPDEST PUSH0 PUSH8 0xFFFFFFFFFFFFFFFF DUP3 GT ISZERO PUSH2 0x1146 JUMPI PUSH2 0x1145 PUSH2 0xE56 JUMP JUMPDEST JUMPDEST PUSH2 0x114F DUP3 PUSH2 0xE46 JUMP JUMPDEST SWAP1 POP PUSH1 0x20 DUP2 ADD SWAP1 POP SWAP2 SWAP1 POP JUMP JUMPDEST DUP3 DUP2 DUP4 CALLDATACOPY PUSH0 DUP4 DUP4 ADD MSTORE POP POP POP JUMP JUMPDEST PUSH0 PUSH2 0x117C PUSH2 0x1177 DUP5 PUSH2 0x112C JUMP JUMPDEST PUSH2 0xEB4 JUMP JUMPDEST SWAP1 POP DUP3 DUP2 MSTORE PUSH1 0x20 DUP2 ADD DUP5 DUP5 DUP5 ADD GT ISZERO PUSH2 0x1198 JUMPI PUSH2 0x1197 PUSH2 0x1128 JUMP JUMPDEST JUMPDEST PUSH2 0x11A3 DUP5 DUP3 DUP6 PUSH2 0x115C JUMP JUMPDEST POP SWAP4 SWAP3 POP POP POP JUMP JUMPDEST PUSH0 DUP3 PUSH1 0x1F DUP4 ADD SLT PUSH2 0x11BF JUMPI PUSH2 0x11BE PUSH2 0xE42 JUMP JUMPDEST JUMPDEST DUP2 CALLDATALOAD PUSH2 0x11CF DUP5 DUP3 PUSH1 0x20 DUP7 ADD PUSH2 0x116A JUMP JUMPDEST SWAP2 POP POP SWAP3 SWAP2 POP POP JUMP JUMPDEST PUSH0 DUP1 PUSH1 0x40 DUP4 DUP6 SUB SLT ISZERO PUSH2 0x11EE JUMPI PUSH2 0x11ED PUSH2 0xE07 JUMP JUMPDEST JUMPDEST PUSH0 DUP4 ADD CALLDATALOAD PUSH8 0xFFFFFFFFFFFFFFFF DUP2 GT ISZERO PUSH2 0x120B JUMPI PUSH2 0x120A PUSH2 0xE0B JUMP JUMPDEST JUMPDEST PUSH2 0x1217 DUP6 DUP3 DUP7 ADD PUSH2 0x11AB JUMP JUMPDEST SWAP3 POP POP PUSH1 0x20 DUP4 ADD CALLDATALOAD PUSH8 0xFFFFFFFFFFFFFFFF DUP2 GT ISZERO PUSH2 0x1238 JUMPI PUSH2 0x1237 PUSH2 0xE0B JUMP JUMPDEST JUMPDEST PUSH2 0x1244 DUP6 DUP3 DUP7 ADD PUSH2 0xFBF JUMP JUMPDEST SWAP2 POP POP SWAP3 POP SWAP3 SWAP1 POP JUMP JUMPDEST PUSH0 PUSH1 0x20 DUP3 DUP5 SUB SLT ISZERO PUSH2 0x1263 JUMPI PUSH2 0x1262 PUSH2 0xE07 JUMP JUMPDEST JUMPDEST PUSH0 PUSH2 0x1270 DUP5 DUP3 DUP6 ADD PUSH2 0xE2E JUMP JUMPDEST SWAP2 POP POP SWAP3 SWAP2 POP POP JUMP JUMPDEST PUSH0 DUP2 MLOAD SWAP1 POP SWAP2 SWAP1 POP JUMP JUMPDEST PUSH0 DUP3 DUP3 MSTORE PUSH1 0x20 DUP3 ADD SWAP1 POP SWAP3 SWAP2 POP POP JUMP JUMPDEST DUP3 DUP2 DUP4 MCOPY PUSH0 DUP4 DUP4 ADD MSTORE POP POP POP JUMP JUMPDEST PUSH0 PUSH2 0x12AB DUP3 PUSH2 0x1279 JUMP JUMPDEST PUSH2 0x12B5 DUP2 DUP6 PUSH2 0x1283 JUMP JUMPDEST SWAP4 POP PUSH2 0x12C5 DUP2 DUP6 PUSH1 0x20 DUP7 ADD PUSH2 0x1293 JUMP JUMPDEST PUSH2 0x12CE DUP2 PUSH2 0xE46 JUMP JUMPDEST DUP5 ADD SWAP2 POP POP SWAP3 SWAP2 POP POP JUMP JUMPDEST PUSH0 DUP2 MLOAD SWAP1 POP SWAP2 SWAP1 POP JUMP JUMPDEST PUSH0 DUP3 DUP3 MSTORE PUSH1 0x20 DUP3 ADD SWAP1 POP SWAP3 SWAP2 POP POP JUMP JUMPDEST PUSH0 DUP2 SWAP1 POP PUSH1 0x20 DUP3 ADD SWAP1 POP SWAP2 SWAP1 POP JUMP JUMPDEST PUSH2 0x130B DUP2 PUSH2 0xF1C JUMP JUMPDEST DUP3 MSTORE POP POP JUMP JUMPDEST PUSH0 PUSH2 0x131C DUP4 DUP4 PUSH2 0x1302 JUMP JUMPDEST PUSH1 0x20 DUP4 ADD SWAP1 POP SWAP3 SWAP2 POP POP JUMP JUMPDEST PUSH0 PUSH1 0x20 DUP3 ADD SWAP1 POP SWAP2 SWAP1 POP JUMP JUMPDEST PUSH0 PUSH2 0x133E DUP3 PUSH2 0x12D9 JUMP JUMPDEST PUSH2 0x1348 DUP2 DUP6 PUSH2 0x12E3 JUMP JUMPDEST SWAP4 POP PUSH2 0x1353 DUP4 PUSH2 0x12F3 JUMP JUMPDEST DUP1 PUSH0 JUMPDEST DUP4 DUP2 LT ISZERO PUSH2 0x1383 JUMPI DUP2 MLOAD PUSH2 0x136A DUP9 DUP3 PUSH2 0x1311 JUMP JUMPDEST SWAP8 POP PUSH2 0x1375 DUP4 PUSH2 0x1328 JUMP JUMPDEST SWAP3 POP POP PUSH1 0x1 DUP2 ADD SWAP1 POP PUSH2 0x1356 JUMP JUMPDEST POP DUP6 SWAP4 POP POP POP POP SWAP3 SWAP2 POP POP JUMP JUMPDEST PUSH2 0x1399 DUP2 PUSH2 0x106F JUMP JUMPDEST DUP3 MSTORE POP POP JUMP JUMPDEST PUSH2 0x13A8 DUP2 PUSH2 0xE0F JUMP JUMPDEST DUP3 MSTORE POP POP JUMP JUMPDEST PUSH0 PUSH1 0x80 DUP3 ADD SWAP1 POP DUP2 DUP2 SUB PUSH0 DUP4 ADD MSTORE PUSH2 0x13C6 DUP2 DUP8 PUSH2 0x12A1 JUMP JUMPDEST SWAP1 POP DUP2 DUP2 SUB PUSH1 0x20 DUP4 ADD MSTORE PUSH2 0x13DA DUP2 DUP7 PUSH2 0x1334 JUMP JUMPDEST SWAP1 POP PUSH2 0x13E9 PUSH1 0x40 DUP4 ADD DUP6 PUSH2 0x1390 JUMP JUMPDEST PUSH2 0x13F6 PUSH1 0x60 DUP4 ADD DUP5 PUSH2 0x139F JUMP JUMPDEST SWAP6 SWAP5 POP POP POP POP POP JUMP JUMPDEST PUSH0 DUP1 PUSH1 0x40 DUP4 DUP6 SUB SLT ISZERO PUSH2 0x1415 JUMPI PUSH2 0x1414 PUSH2 0xE07 JUMP JUMPDEST JUMPDEST PUSH0 PUSH2 0x1422 DUP6 DUP3 DUP7 ADD PUSH2 0xE2E JUMP JUMPDEST SWAP3 POP POP PUSH1 0x20 PUSH2 0x1433 DUP6 DUP3 DUP7 ADD PUSH2 0xF43 JUMP JUMPDEST SWAP2 POP POP SWAP3 POP SWAP3 SWAP1 POP JUMP JUMPDEST PUSH0 PUSH1 0x20 DUP3 ADD SWAP1 POP PUSH2 0x1450 PUSH0 DUP4 ADD DUP5 PUSH2 0x1390 JUMP JUMPDEST SWAP3 SWAP2 POP POP JUMP JUMPDEST PUSH0 PUSH1 0x20 DUP3 ADD SWAP1 POP PUSH2 0x1469 PUSH0 DUP4 ADD DUP5 PUSH2 0x139F JUMP JUMPDEST SWAP3 SWAP2 POP POP JUMP JUMPDEST PUSH0 PUSH1 0x60 DUP3 ADD SWAP1 POP DUP2 DUP2 SUB PUSH0 DUP4 ADD MSTORE PUSH2 0x1487 DUP2 DUP7 PUSH2 0x12A1 JUMP JUMPDEST SWAP1 POP PUSH2 0x1496 PUSH1 0x20 DUP4 ADD DUP6 PUSH2 0x1390 JUMP JUMPDEST PUSH2 0x14A3 PUSH1 0x40 DUP4 ADD DUP5 PUSH2 0x139F JUMP JUMPDEST SWAP5 SWAP4 POP POP POP POP JUMP JUMPDEST PUSH0 PUSH1 0x20 DUP3 DUP5 SUB SLT ISZERO PUSH2 0x14C0 JUMPI PUSH2 0x14BF PUSH2 0xE07 JUMP JUMPDEST JUMPDEST PUSH0 PUSH2 0x14CD DUP5 DUP3 DUP6 ADD PUSH2 0xF43 JUMP JUMPDEST SWAP2 POP POP SWAP3 SWAP2 POP POP JUMP JUMPDEST PUSH0 DUP2 MLOAD SWAP1 POP SWAP2 SWAP1 POP JUMP JUMPDEST PUSH0 DUP3 DUP3 MSTORE PUSH1 0x20 DUP3 ADD SWAP1 POP SWAP3 SWAP2 POP POP JUMP JUMPDEST PUSH0 DUP2 SWAP1 POP PUSH1 0x20 DUP3 ADD SWAP1 POP SWAP2 SWAP1 POP JUMP JUMPDEST PUSH2 0x1508 DUP2 PUSH2 0xE0F JUMP JUMPDEST DUP3 MSTORE POP POP JUMP JUMPDEST PUSH0 PUSH2 0x1519 DUP4 DUP4 PUSH2 0x14FF JUMP JUMPDEST PUSH1 0x20 DUP4 ADD SWAP1 POP SWAP3 SWAP2 POP POP JUMP JUMPDEST PUSH0 PUSH1 0x20 DUP3 ADD SWAP1 POP SWAP2 SWAP1 POP JUMP JUMPDEST PUSH0 PUSH2 0x153B DUP3 PUSH2 0x14D6 JUMP JUMPDEST PUSH2 0x1545 DUP2 DUP6 PUSH2 0x14E0 JUMP JUMPDEST SWAP4 POP PUSH2 0x1550 DUP4 PUSH2 0x14F0 JUMP JUMPDEST DUP1 PUSH0 JUMPDEST DUP4 DUP2 LT ISZERO PUSH2 0x1580 JUMPI DUP2 MLOAD PUSH2 0x1567 DUP9 DUP3 PUSH2 0x150E JUMP JUMPDEST SWAP8 POP PUSH2 0x1572 DUP4 PUSH2 0x1525 JUMP JUMPDEST SWAP3 POP POP PUSH1 0x1 DUP2 ADD SWAP1 POP PUSH2 0x1553 JUMP JUMPDEST POP DUP6 SWAP4 POP POP POP POP SWAP3 SWAP2 POP POP JUMP JUMPDEST PUSH0 PUSH1 0x20 DUP3 ADD SWAP1 POP DUP2 DUP2 SUB PUSH0 DUP4 ADD MSTORE PUSH2 0x15A5 DUP2 DUP5 PUSH2 0x1531 JUMP JUMPDEST SWAP1 POP SWAP3 SWAP2 POP POP JUMP JUMPDEST PUSH0 DUP1 PUSH1 0x40 DUP4 DUP6 SUB SLT ISZERO PUSH2 0x15C3 JUMPI PUSH2 0x15C2 PUSH2 0xE07 JUMP JUMPDEST JUMPDEST PUSH0 PUSH2 0x15D0 DUP6 DUP3 DUP7 ADD PUSH2 0xF43 JUMP JUMPDEST SWAP3 POP POP PUSH1 0x20 DUP4 ADD CALLDATALOAD PUSH8 0xFFFFFFFFFFFFFFFF DUP2 GT ISZERO PUSH2 0x15F1 JUMPI PUSH2 0x15F0 PUSH2 0xE0B JUMP JUMPDEST JUMPDEST PUSH2 0x15FD DUP6 DUP3 DUP7 ADD PUSH2 0xFBF JUMP JUMPDEST SWAP2 POP POP SWAP3 POP SWAP3 SWAP1 POP JUMP JUMPDEST PUSH32 0x4E487B7100000000000000000000000000000000000000000000000000000000 PUSH0 MSTORE PUSH1 0x32 PUSH1 0x4 MSTORE PUSH1 0x24 PUSH0 REVERT JUMPDEST PUSH32 0x4E656564206174206C65617374206F6E65207369676E65720000000000000000 PUSH0 DUP3 ADD MSTORE POP JUMP JUMPDEST PUSH0 PUSH2 0x1668 PUSH1 0x18 DUP4 PUSH2 0x1283 JUMP JUMPDEST SWAP2 POP PUSH2 0x1673 DUP3 PUSH2 0x1634 JUMP JUMPDEST PUSH1 0x20 DUP3 ADD SWAP1 POP SWAP2 SWAP1 POP JUMP JUMPDEST PUSH0 PUSH1 0x20 DUP3 ADD SWAP1 POP DUP2 DUP2 SUB PUSH0 DUP4 ADD MSTORE PUSH2 0x1695 DUP2 PUSH2 0x165C JUMP JUMPDEST SWAP1 POP SWAP2 SWAP1 POP JUMP JUMPDEST PUSH32 0x4D75737420696E636C756465207061796D656E74000000000000000000000000 PUSH0 DUP3 ADD MSTORE POP JUMP JUMPDEST PUSH0 PUSH2 0x16D0 PUSH1 0x14 DUP4 PUSH2 0x1283 JUMP JUMPDEST SWAP2 POP PUSH2 0x16DB DUP3 PUSH2 0x169C JUMP JUMPDEST PUSH1 0x20 DUP3 ADD SWAP1 POP SWAP2 SWAP1 POP JUMP JUMPDEST PUSH0 PUSH1 0x20 DUP3 ADD SWAP1 POP DUP2 DUP2 SUB PUSH0 DUP4 ADD MSTORE PUSH2 0x16FD DUP2 PUSH2 0x16C4 JUMP JUMPDEST SWAP1 POP SWAP2 SWAP1 POP JUMP JUMPDEST PUSH32 0x4E487B7100000000000000000000000000000000000000000000000000000000 PUSH0 MSTORE PUSH1 0x22 PUSH1 0x4 MSTORE PUSH1 0x24 PUSH0 REVERT JUMPDEST PUSH0 PUSH1 0x2 DUP3 DIV SWAP1 POP PUSH1 0x1 DUP3 AND DUP1 PUSH2 0x1748 JUMPI PUSH1 0x7F DUP3 AND SWAP2 POP JUMPDEST PUSH1 0x20 DUP3 LT DUP2 SUB PUSH2 0x175B JUMPI PUSH2 0x175A PUSH2 0x1704 JUMP JUMPDEST JUMPDEST POP SWAP2 SWAP1 POP JUMP JUMPDEST PUSH0 DUP2 SWAP1 POP DUP2 PUSH0 MSTORE PUSH1 0x20 PUSH0 KECCAK256 SWAP1 POP SWAP2 SWAP1 POP JUMP JUMPDEST PUSH0 PUSH1 0x20 PUSH1 0x1F DUP4 ADD DIV SWAP1 POP SWAP2 SWAP1 POP JUMP JUMPDEST PUSH0 DUP3 DUP3 SHL SWAP1 POP SWAP3 SWAP2 POP POP JUMP JUMPDEST PUSH0 PUSH1 0x8 DUP4 MUL PUSH2 0x17BD PUSH32 0xFFFFFFFFFFFFFFFFFFFFFFFFFFFFFFFFFFFFFFFFFFFFFFFFFFFFFFFFFFFFFFFF DUP3 PUSH2 0x1782 JUMP JUMPDEST PUSH2 0x17C7 DUP7 DUP4 PUSH2 0x1782 JUMP JUMPDEST SWAP6 POP DUP1 NOT DUP5 AND SWAP4 POP DUP1 DUP7 AND DUP5 OR SWAP3 POP POP POP SWAP4 SWAP3 POP POP POP JUMP JUMPDEST PUSH0 DUP2 SWAP1 POP SWAP2 SWAP1 POP JUMP JUMPDEST PUSH0 PUSH2 0x1802 PUSH2 0x17FD PUSH2 0x17F8 DUP5 PUSH2 0xE0F JUMP JUMPDEST PUSH2 0x17DF JUMP JUMPDEST PUSH2 0xE0F JUMP JUMPDEST SWAP1 POP SWAP2 SWAP1 POP JUMP JUMPDEST PUSH0 DUP2 SWAP1 POP SWAP2 SWAP1 POP JUMP JUMPDEST PUSH2 0x181B DUP4 PUSH2 0x17E8 JUMP JUMPDEST PUSH2 0x182F PUSH2 0x1827 DUP3 PUSH2 0x1809 JUMP JUMPDEST DUP5 DUP5 SLOAD PUSH2 0x178E JUMP JUMPDEST DUP3 SSTORE POP POP POP POP JUMP JUMPDEST PUSH0 SWAP1 JUMP JUMPDEST PUSH2 0x1843 PUSH2 0x1837 JUMP JUMPDEST PUSH2 0x184E DUP2 DUP5 DUP5 PUSH2 0x1812 JUMP JUMPDEST POP POP POP JUMP JUMPDEST JUMPDEST DUP2 DUP2 LT ISZERO PUSH2 0x1871 JUMPI PUSH2 0x1866 PUSH0 DUP3 PUSH2 0x183B JUMP JUMPDEST PUSH1 0x1 DUP2 ADD SWAP1 POP PUSH2 0x1854 JUMP JUMPDEST POP POP JUMP JUMPDEST PUSH1 0x1F DUP3 GT ISZERO PUSH2 0x18B6 JUMPI PUSH2 0x1887 DUP2 PUSH2 0x1761 JUMP JUMPDEST PUSH2 0x1890 DUP5 PUSH2 0x1773 JUMP JUMPDEST DUP2 ADD PUSH1 0x20 DUP6 LT ISZERO PUSH2 0x189F JUMPI DUP2 SWAP1 POP JUMPDEST PUSH2 0x18B3 PUSH2 0x18AB DUP6 PUSH2 0x1773 JUMP JUMPDEST DUP4 ADD DUP3 PUSH2 0x1853 JUMP JUMPDEST POP POP JUMPDEST POP POP POP JUMP JUMPDEST PUSH0 DUP3 DUP3 SHR SWAP1 POP SWAP3 SWAP2 POP POP JUMP JUMPDEST PUSH0 PUSH2 0x18D6 PUSH0 NOT DUP5 PUSH1 0x8 MUL PUSH2 0x18BB JUMP JUMPDEST NOT DUP1 DUP4 AND SWAP2 POP POP SWAP3 SWAP2 POP POP JUMP JUMPDEST PUSH0 PUSH2 0x18EE DUP4 DUP4 PUSH2 0x18C7 JUMP JUMPDEST SWAP2 POP DUP3 PUSH1 0x2 MUL DUP3 OR SWAP1 POP SWAP3 SWAP2 POP POP JUMP JUMPDEST PUSH2 0x1907 DUP3 PUSH2 0x1279 JUMP JUMPDEST PUSH8 0xFFFFFFFFFFFFFFFF DUP2 GT ISZERO PUSH2 0x1920 JUMPI PUSH2 0x191F PUSH2 0xE56 JUMP JUMPDEST JUMPDEST PUSH2 0x192A DUP3 SLOAD PUSH2 0x1731 JUMP JUMPDEST PUSH2 0x1935 DUP3 DUP3 DUP6 PUSH2 0x1875 JUMP JUMPDEST PUSH0 PUSH1 0x20 SWAP1 POP PUSH1 0x1F DUP4 GT PUSH1 0x1 DUP2 EQ PUSH2 0x1966 JUMPI PUSH0 DUP5 ISZERO PUSH2 0x1954 JUMPI DUP3 DUP8 ADD MLOAD SWAP1 POP JUMPDEST PUSH2 0x195E DUP6 DUP3 PUSH2 0x18E3 JUMP JUMPDEST DUP7 SSTORE POP PUSH2 0x19C5 JUMP JUMPDEST PUSH1 0x1F NOT DUP5 AND PUSH2 0x1974 DUP7 PUSH2 0x1761 JUMP JUMPDEST PUSH0 JUMPDEST DUP3 DUP2 LT ISZERO PUSH2 0x199B JUMPI DUP5 DUP10 ADD MLOAD DUP3 SSTORE PUSH1 0x1 DUP3 ADD SWAP2 POP PUSH1 0x20 DUP6 ADD SWAP5 POP PUSH1 0x20 DUP2 ADD SWAP1 POP PUSH2 0x1976 JUMP JUMPDEST DUP7 DUP4 LT ISZERO PUSH2 0x19B8 JUMPI DUP5 DUP10 ADD MLOAD PUSH2 0x19B4 PUSH1 0x1F DUP10 AND DUP3 PUSH2 0x18C7 JUMP JUMPDEST DUP4 SSTORE POP JUMPDEST PUSH1 0x1 PUSH1 0x2 DUP9 MUL ADD DUP9 SSTORE POP POP POP JUMPDEST POP POP POP POP POP POP JUMP JUMPDEST PUSH32 0x4E487B7100000000000000000000000000000000000000000000000000000000 PUSH0 MSTORE PUSH1 0x11 PUSH1 0x4 MSTORE PUSH1 0x24 PUSH0 REVERT JUMPDEST PUSH0 PUSH2 0x1A04 DUP3 PUSH2 0xE0F JUMP JUMPDEST SWAP2 POP PUSH32 0xFFFFFFFFFFFFFFFFFFFFFFFFFFFFFFFFFFFFFFFFFFFFFFFFFFFFFFFFFFFFFFFF DUP3 SUB PUSH2 0x1A36 JUMPI PUSH2 0x1A35 PUSH2 0x19CD JUMP JUMPDEST JUMPDEST PUSH1 0x1 DUP3 ADD SWAP1 POP SWAP2 SWAP1 POP JUMP JUMPDEST PUSH0 PUSH1 0x80 DUP3 ADD SWAP1 POP PUSH2 0x1A54 PUSH0 DUP4 ADD DUP8 PUSH2 0x139F JUMP JUMPDEST DUP2 DUP2 SUB PUSH1 0x20 DUP4 ADD MSTORE PUSH2 0x1A66 DUP2 DUP7 PUSH2 0x12A1 JUMP JUMPDEST SWAP1 POP DUP2 DUP2 SUB PUSH1 0x40 DUP4 ADD MSTORE PUSH2 0x1A7A DUP2 DUP6 PUSH2 0x1334 JUMP JUMPDEST SWAP1 POP PUSH2 0x1A89 PUSH1 0x60 DUP4 ADD DUP5 PUSH2 0x139F JUMP JUMPDEST SWAP6 SWAP5 POP POP POP POP POP JUMP JUMPDEST PUSH32 0x446F63756D656E7420616C726561647920636F6D706C65746564000000000000 PUSH0 DUP3 ADD MSTORE POP JUMP JUMPDEST PUSH0 PUSH2 0x1AC6 PUSH1 0x1A DUP4 PUSH2 0x1283 JUMP JUMPDEST SWAP2 POP PUSH2 0x1AD1 DUP3 PUSH2 0x1A92 JUMP JUMPDEST PUSH1 0x20 DUP3 ADD SWAP1 POP SWAP2 SWAP1 POP JUMP JUMPDEST PUSH0 PUSH1 0x20 DUP3 ADD SWAP1 POP DUP2 DUP2 SUB PUSH0 DUP4 ADD MSTORE PUSH2 0x1AF3 DUP2 PUSH2 0x1ABA JUMP JUMPDEST SWAP1 POP SWAP2 SWAP1 POP JUMP JUMPDEST PUSH32 0x4E6F7420617574686F72697A656420746F207369676E00000000000000000000 PUSH0 DUP3 ADD MSTORE POP JUMP JUMPDEST PUSH0 PUSH2 0x1B2E PUSH1 0x16 DUP4 PUSH2 0x1283 JUMP JUMPDEST SWAP2 POP PUSH2 0x1B39 DUP3 PUSH2 0x1AFA JUMP JUMPDEST PUSH1 0x20 DUP3 ADD SWAP1 POP SWAP2 SWAP1 POP JUMP JUMPDEST PUSH0 PUSH1 0x20 DUP3 ADD SWAP1 POP DUP2 DUP2 SUB PUSH0 DUP4 ADD MSTORE PUSH2 0x1B5B DUP2 PUSH2 0x1B22 JUMP JUMPDEST SWAP1 POP SWAP2 SWAP1 POP JUMP JUMPDEST PUSH32 0x416C7265616479207369676E6564000000000000000000000000000000000000 PUSH0 DUP3 ADD MSTORE POP JUMP JUMPDEST PUSH0 PUSH2 0x1B96 PUSH1 0xE DUP4 PUSH2 0x1283 JUMP JUMPDEST SWAP2 POP PUSH2 0x1BA1 DUP3 PUSH2 0x1B62 JUMP JUMPDEST PUSH1 0x20 DUP3 ADD SWAP1 POP SWAP2 SWAP1 POP JUMP JUMPDEST PUSH0 PUSH1 0x20 DUP3 ADD SWAP1 POP DUP2 DUP2 SUB PUSH0 DUP4 ADD MSTORE PUSH2 0x1BC3 DUP2 PUSH2 0x1B8A JUMP JUMPDEST SWAP1 POP SWAP2 SWAP1 POP JUMP JUMPDEST PUSH2 0x1BD3 DUP2 PUSH2 0xF1C JUMP JUMPDEST DUP3 MSTORE POP POP JUMP JUMPDEST PUSH0 PUSH1 0x40 DUP3 ADD SWAP1 POP PUSH2 0x1BEC PUSH0 DUP4 ADD DUP6 PUSH2 0x139F JUMP JUMPDEST PUSH2 0x1BF9 PUSH1 0x20 DUP4 ADD DUP5 PUSH2 0x1BCA JUMP JUMPDEST SWAP4 SWAP3 POP POP POP JUMP JUMPDEST PUSH32 0x416C6C207369676E6572732068617665207369676E65642C2072656C65617369 PUSH0 DUP3 ADD MSTORE PUSH32 0x6E67207061796D656E7400000000000000000000000000000000000000000000 PUSH1 0x20 DUP3 ADD MSTORE POP JUMP JUMPDEST PUSH0 PUSH2 0x1C5A PUSH1 0x2A DUP4 PUSH2 0x1283 JUMP JUMPDEST SWAP2 POP PUSH2 0x1C65 DUP3 PUSH2 0x1C00 JUMP JUMPDEST PUSH1 0x40 DUP3 ADD SWAP1 POP SWAP2 SWAP1 POP JUMP JUMPDEST PUSH0 PUSH1 0x20 DUP3 ADD SWAP1 POP DUP2 DUP2 SUB PUSH0 DUP4 ADD MSTORE PUSH2 0x1C87 DUP2 PUSH2 0x1C4E JUMP JUMPDEST SWAP1 POP SWAP2 SWAP1 POP JUMP JUMPDEST PUSH0 PUSH1 0x40 DUP3 ADD SWAP1 POP PUSH2 0x1CA1 PUSH0 DUP4 ADD DUP6 PUSH2 0x139F JUMP JUMPDEST PUSH2 0x1CAE PUSH1 0x20 DUP4 ADD DUP5 PUSH2 0x139F JUMP JUMPDEST SWAP4 SWAP3 POP POP POP JUMP JUMPDEST PUSH32 0x4E6F7420616C6C207369676E6572732068617665207369676E65642079657400 PUSH0 DUP3 ADD MSTORE POP JUMP JUMPDEST PUSH0 PUSH2 0x1CE9 PUSH1 0x1F DUP4 PUSH2 0x1283 JUMP JUMPDEST SWAP2 POP PUSH2 0x1CF4 DUP3 PUSH2 0x1CB5 JUMP JUMPDEST PUSH1 0x20 DUP3 ADD SWAP1 POP SWAP2 SWAP1 POP JUMP JUMPDEST PUSH0 PUSH1 0x20 DUP3 ADD SWAP1 POP DUP2 DUP2 SUB PUSH0 DUP4 ADD MSTORE PUSH2 0x1D16 DUP2 PUSH2 0x1CDD JUMP JUMPDEST SWAP1 POP SWAP2 SWAP1 POP JUMP INVALID LOG2 PUSH5 0x6970667358 0x22 SLT KECCAK256 PUSH23 0x72C6569EDC5A76D0F07A251FB10CE7B0ADFEADA55C0543 0x4F SWAP5 PUSH8 0x780D08460564736F PUSH13 0x634300081A0033000000000000 "
		},
		"gasEstimates": {
			"creation": {
				"codeDepositCost": "1501400",
				"executionCost": "1566",
				"totalCost": "1502966"
			},
			"external": {
				"createDocument(string,address[])": "infinite",
				"documentCount()": "2447",
				"documents(uint256)": "infinite",
				"getDocumentInfo(uint256)": "infinite",
				"getDocumentsForUser(address)": "infinite",
				"getSigningStatus(uint256,address[])": "infinite",
				"hasAddressSigned(uint256,address)": "3123",
				"isSigner(address,address[])": "infinite",
				"signDocument(uint256)": "infinite"
			},
			"internal": {
				"checkAllSigned(uint256)": "infinite"
			}
		},
		"methodIdentifiers": {
			"createDocument(string,address[])": "35ac6064",
			"documentCount()": "a5b16b2e",
			"documents(uint256)": "c2ed2b05",
			"getDocumentInfo(uint256)": "6c497891",
			"getDocumentsForUser(address)": "d6554800",
			"getSigningStatus(uint256,address[])": "25fc1c3c",
			"hasAddressSigned(uint256,address)": "95d73fdc",
			"isSigner(address,address[])": "d8227811",
			"signDocument(uint256)": "63a50d50"
		}
	},
	"abi": [
		{
			"anonymous": false,
			"inputs": [
				{
					"indexed": false,
					"internalType": "string",
					"name": "message",
					"type": "string"
				}
			],
			"name": "Debug",
			"type": "event"
		},
		{
			"anonymous": false,
			"inputs": [
				{
					"indexed": false,
					"internalType": "uint256",
					"name": "documentId",
					"type": "uint256"
				},
				{
					"indexed": false,
					"internalType": "string",
					"name": "documentHash",
					"type": "string"
				},
				{
					"indexed": false,
					"internalType": "address[]",
					"name": "signers",
					"type": "address[]"
				},
				{
					"indexed": false,
					"internalType": "uint256",
					"name": "amount",
					"type": "uint256"
				}
			],
			"name": "DocumentCreated",
			"type": "event"
		},
		{
			"anonymous": false,
			"inputs": [
				{
					"indexed": false,
					"internalType": "uint256",
					"name": "documentId",
					"type": "uint256"
				},
				{
					"indexed": false,
					"internalType": "address",
					"name": "signer",
					"type": "address"
				}
			],
			"name": "DocumentSigned",
			"type": "event"
		},
		{
			"anonymous": false,
			"inputs": [
				{
					"indexed": false,
					"internalType": "uint256",
					"name": "documentId",
					"type": "uint256"
				},
				{
					"indexed": false,
					"internalType": "uint256",
					"name": "amount",
					"type": "uint256"
				}
			],
			"name": "PaymentReleased",
			"type": "event"
		},
		{
			"inputs": [
				{
					"internalType": "string",
					"name": "_documentHash",
					"type": "string"
				},
				{
					"internalType": "address[]",
					"name": "_signers",
					"type": "address[]"
				}
			],
			"name": "createDocument",
			"outputs": [],
			"stateMutability": "payable",
			"type": "function"
		},
		{
			"inputs": [],
			"name": "documentCount",
			"outputs": [
				{
					"internalType": "uint256",
					"name": "",
					"type": "uint256"
				}
			],
			"stateMutability": "view",
			"type": "function"
		},
		{
			"inputs": [
				{
					"internalType": "uint256",
					"name": "",
					"type": "uint256"
				}
			],
			"name": "documents",
			"outputs": [
				{
					"internalType": "string",
					"name": "documentHash",
					"type": "string"
				},
				{
					"internalType": "bool",
					"name": "isCompleted",
					"type": "bool"
				},
				{
					"internalType": "uint256",
					"name": "amount",
					"type": "uint256"
				}
			],
			"stateMutability": "view",
			"type": "function"
		},
		{
			"inputs": [
				{
					"internalType": "uint256",
					"name": "_documentId",
					"type": "uint256"
				}
			],
			"name": "getDocumentInfo",
			"outputs": [
				{
					"internalType": "string",
					"name": "documentHash",
					"type": "string"
				},
				{
					"internalType": "address[]",
					"name": "signers",
					"type": "address[]"
				},
				{
					"internalType": "bool",
					"name": "completed",
					"type": "bool"
				},
				{
					"internalType": "uint256",
					"name": "amount",
					"type": "uint256"
				}
			],
			"stateMutability": "view",
			"type": "function"
		},
		{
			"inputs": [
				{
					"internalType": "address",
					"name": "_user",
					"type": "address"
				}
			],
			"name": "getDocumentsForUser",
			"outputs": [
				{
					"internalType": "uint256[]",
					"name": "",
					"type": "uint256[]"
				}
			],
			"stateMutability": "view",
			"type": "function"
		},
		{
			"inputs": [
				{
					"internalType": "uint256",
					"name": "_documentId",
					"type": "uint256"
				},
				{
					"internalType": "address[]",
					"name": "_signers",
					"type": "address[]"
				}
			],
			"name": "getSigningStatus",
			"outputs": [
				{
					"internalType": "bool[]",
					"name": "",
					"type": "bool[]"
				}
			],
			"stateMutability": "view",
			"type": "function"
		},
		{
			"inputs": [
				{
					"internalType": "uint256",
					"name": "_documentId",
					"type": "uint256"
				},
				{
					"internalType": "address",
					"name": "_signer",
					"type": "address"
				}
			],
			"name": "hasAddressSigned",
			"outputs": [
				{
					"internalType": "bool",
					"name": "",
					"type": "bool"
				}
			],
			"stateMutability": "view",
			"type": "function"
		},
		{
			"inputs": [
				{
					"internalType": "address",
					"name": "_signer",
					"type": "address"
				},
				{
					"internalType": "address[]",
					"name": "_signers",
					"type": "address[]"
				}
			],
			"name": "isSigner",
			"outputs": [
				{
					"internalType": "bool",
					"name": "",
					"type": "bool"
				}
			],
			"stateMutability": "pure",
			"type": "function"
		},
		{
			"inputs": [
				{
					"internalType": "uint256",
					"name": "_documentId",
					"type": "uint256"
				}
			],
			"name": "signDocument",
			"outputs": [],
			"stateMutability": "nonpayable",
			"type": "function"
		}
	]
}