{
	"contracts/StorageFactory.sol": {
		"StorageFactory": {
			"abi": [
				{
					"inputs": [],
					"name": "createSimplestorageContract",
					"outputs": [],
					"stateMutability": "nonpayable",
					"type": "function"
				},
				{
					"inputs": [
						{
							"internalType": "uint256",
							"name": "",
							"type": "uint256"
						}
					],
					"name": "simpleStorageArray",
					"outputs": [
						{
							"internalType": "contract SimpleStorage",
							"name": "",
							"type": "address"
						}
					],
					"stateMutability": "view",
					"type": "function"
				},
				{
					"inputs": [
						{
							"internalType": "uint256",
							"name": "_simpleStorageIndex",
							"type": "uint256"
						}
					],
					"name": "storageFactoryGet",
					"outputs": [
						{
							"internalType": "uint256",
							"name": "",
							"type": "uint256"
						}
					],
					"stateMutability": "view",
					"type": "function"
				},
				{
					"inputs": [
						{
							"internalType": "uint256",
							"name": "_simpleStorageIndex",
							"type": "uint256"
						},
						{
							"internalType": "uint256",
							"name": "_simpleStorageNumber",
							"type": "uint256"
						}
					],
					"name": "storageFactorystore",
					"outputs": [],
					"stateMutability": "nonpayable",
					"type": "function"
				}
			],
			"devdoc": {
				"kind": "dev",
				"methods": {},
				"version": 1
			},
			"evm": {
				"assembly": "    /* \"contracts/StorageFactory.sol\":93:871  contract StorageFactory{... */\n  mstore(0x40, 0x80)\n  callvalue\n  dup1\n  iszero\n  tag_1\n  jumpi\n  0x00\n  dup1\n  revert\ntag_1:\n  pop\n  dataSize(sub_0)\n  dup1\n  dataOffset(sub_0)\n  0x00\n  codecopy\n  0x00\n  return\nstop\n\nsub_0: assembly {\n        /* \"contracts/StorageFactory.sol\":93:871  contract StorageFactory{... */\n      mstore(0x40, 0x80)\n      callvalue\n      dup1\n      iszero\n      tag_1\n      jumpi\n      0x00\n      dup1\n      revert\n    tag_1:\n      pop\n      jumpi(tag_2, lt(calldatasize, 0x04))\n      shr(0xe0, calldataload(0x00))\n      dup1\n      0x46c1f271\n      eq\n      tag_3\n      jumpi\n      dup1\n      0x4b254294\n      eq\n      tag_4\n      jumpi\n      dup1\n      0x5558a3e8\n      eq\n      tag_5\n      jumpi\n      dup1\n      0x64591bf1\n      eq\n      tag_6\n      jumpi\n    tag_2:\n      0x00\n      dup1\n      revert\n        /* \"contracts/StorageFactory.sol\":344:646  function storageFactorystore (uint256 _simpleStorageIndex, uint256 _simpleStorageNumber)  public {... */\n    tag_3:\n      tag_7\n      0x04\n      dup1\n      calldatasize\n      sub\n      dup2\n      add\n      swap1\n      tag_8\n      swap2\n      swap1\n      tag_9\n      jump\t// in\n    tag_8:\n      tag_10\n      jump\t// in\n    tag_7:\n      stop\n        /* \"contracts/StorageFactory.sol\":173:336  function createSimplestorageContract() public {... */\n    tag_4:\n      tag_11\n      tag_12\n      jump\t// in\n    tag_11:\n      stop\n        /* \"contracts/StorageFactory.sol\":654:868  function storageFactoryGet(uint256 _simpleStorageIndex) public view returns(uint256){... */\n    tag_5:\n      tag_13\n      0x04\n      dup1\n      calldatasize\n      sub\n      dup2\n      add\n      swap1\n      tag_14\n      swap2\n      swap1\n      tag_15\n      jump\t// in\n    tag_14:\n      tag_16\n      jump\t// in\n    tag_13:\n      mload(0x40)\n      tag_17\n      swap2\n      swap1\n      tag_18\n      jump\t// in\n    tag_17:\n      mload(0x40)\n      dup1\n      swap2\n      sub\n      swap1\n      return\n        /* \"contracts/StorageFactory.sol\":123:164  SimpleStorage[] public simpleStorageArray */\n    tag_6:\n      tag_19\n      0x04\n      dup1\n      calldatasize\n      sub\n      dup2\n      add\n      swap1\n      tag_20\n      swap2\n      swap1\n      tag_15\n      jump\t// in\n    tag_20:\n      tag_21\n      jump\t// in\n    tag_19:\n      mload(0x40)\n      tag_22\n      swap2\n      swap1\n      tag_23\n      jump\t// in\n    tag_22:\n      mload(0x40)\n      dup1\n      swap2\n      sub\n      swap1\n      return\n        /* \"contracts/StorageFactory.sol\":344:646  function storageFactorystore (uint256 _simpleStorageIndex, uint256 _simpleStorageNumber)  public {... */\n    tag_10:\n        /* \"contracts/StorageFactory.sol\":517:544  SimpleStorage simpleStorage */\n      0x00\n        /* \"contracts/StorageFactory.sol\":547:565  simpleStorageArray */\n      dup1\n        /* \"contracts/StorageFactory.sol\":566:585  _simpleStorageIndex */\n      dup4\n        /* \"contracts/StorageFactory.sol\":547:586  simpleStorageArray[_simpleStorageIndex] */\n      dup2\n      sload\n      dup2\n      lt\n      tag_25\n      jumpi\n      tag_26\n      tag_27\n      jump\t// in\n    tag_26:\n    tag_25:\n      swap1\n      0x00\n      mstore\n      keccak256(0x00, 0x20)\n      add\n      0x00\n      swap1\n      sload\n      swap1\n      0x0100\n      exp\n      swap1\n      div\n      0xffffffffffffffffffffffffffffffffffffffff\n      and\n        /* \"contracts/StorageFactory.sol\":517:586  SimpleStorage simpleStorage = simpleStorageArray[_simpleStorageIndex] */\n      swap1\n      pop\n        /* \"contracts/StorageFactory.sol\":597:610  simpleStorage */\n      dup1\n        /* \"contracts/StorageFactory.sol\":597:616  simpleStorage.store */\n      0xffffffffffffffffffffffffffffffffffffffff\n      and\n      0x6057361d\n        /* \"contracts/StorageFactory.sol\":617:637  _simpleStorageNumber */\n      dup4\n        /* \"contracts/StorageFactory.sol\":597:638  simpleStorage.store(_simpleStorageNumber) */\n      mload(0x40)\n      dup3\n      0xffffffff\n      and\n      0xe0\n      shl\n      dup2\n      mstore\n      0x04\n      add\n      tag_29\n      swap2\n      swap1\n      tag_18\n      jump\t// in\n    tag_29:\n      0x00\n      mload(0x40)\n      dup1\n      dup4\n      sub\n      dup2\n      0x00\n      dup8\n      dup1\n      extcodesize\n      iszero\n      dup1\n      iszero\n      tag_30\n      jumpi\n      0x00\n      dup1\n      revert\n    tag_30:\n      pop\n      gas\n      call\n      iszero\n      dup1\n      iszero\n      tag_32\n      jumpi\n      returndatasize\n      0x00\n      dup1\n      returndatacopy\n      revert(0x00, returndatasize)\n    tag_32:\n      pop\n      pop\n      pop\n      pop\n        /* \"contracts/StorageFactory.sol\":441:646  {... */\n      pop\n        /* \"contracts/StorageFactory.sol\":344:646  function storageFactorystore (uint256 _simpleStorageIndex, uint256 _simpleStorageNumber)  public {... */\n      pop\n      pop\n      jump\t// out\n        /* \"contracts/StorageFactory.sol\":173:336  function createSimplestorageContract() public {... */\n    tag_12:\n        /* \"contracts/StorageFactory.sol\":230:257  SimpleStorage simpleStorage */\n      0x00\n        /* \"contracts/StorageFactory.sol\":260:279  new SimpleStorage() */\n      mload(0x40)\n      tag_34\n      swap1\n      tag_35\n      jump\t// in\n    tag_34:\n      mload(0x40)\n      dup1\n      swap2\n      sub\n      swap1\n      0x00\n      create\n      dup1\n      iszero\n      dup1\n      iszero\n      tag_36\n      jumpi\n      returndatasize\n      0x00\n      dup1\n      returndatacopy\n      revert(0x00, returndatasize)\n    tag_36:\n      pop\n        /* \"contracts/StorageFactory.sol\":230:279  SimpleStorage simpleStorage = new SimpleStorage() */\n      swap1\n      pop\n        /* \"contracts/StorageFactory.sol\":290:308  simpleStorageArray */\n      0x00\n        /* \"contracts/StorageFactory.sol\":314:327  simpleStorage */\n      dup2\n        /* \"contracts/StorageFactory.sol\":290:328  simpleStorageArray.push(simpleStorage) */\n      swap1\n      dup1\n      0x01\n      dup2\n      sload\n      add\n      dup1\n      dup3\n      sstore\n      dup1\n      swap2\n      pop\n      pop\n      0x01\n      swap1\n      sub\n      swap1\n      0x00\n      mstore\n      keccak256(0x00, 0x20)\n      add\n      0x00\n      swap1\n      swap2\n      swap1\n      swap2\n      swap1\n      swap2\n      0x0100\n      exp\n      dup2\n      sload\n      dup2\n      0xffffffffffffffffffffffffffffffffffffffff\n      mul\n      not\n      and\n      swap1\n      dup4\n      0xffffffffffffffffffffffffffffffffffffffff\n      and\n      mul\n      or\n      swap1\n      sstore\n      pop\n        /* \"contracts/StorageFactory.sol\":219:336  {... */\n      pop\n        /* \"contracts/StorageFactory.sol\":173:336  function createSimplestorageContract() public {... */\n      jump\t// out\n        /* \"contracts/StorageFactory.sol\":654:868  function storageFactoryGet(uint256 _simpleStorageIndex) public view returns(uint256){... */\n    tag_16:\n        /* \"contracts/StorageFactory.sol\":730:737  uint256 */\n      0x00\n        /* \"contracts/StorageFactory.sol\":749:776  SimpleStorage simpleStorage */\n      dup1\n        /* \"contracts/StorageFactory.sol\":779:797  simpleStorageArray */\n      0x00\n        /* \"contracts/StorageFactory.sol\":798:817  _simpleStorageIndex */\n      dup4\n        /* \"contracts/StorageFactory.sol\":779:818  simpleStorageArray[_simpleStorageIndex] */\n      dup2\n      sload\n      dup2\n      lt\n      tag_39\n      jumpi\n      tag_40\n      tag_27\n      jump\t// in\n    tag_40:\n    tag_39:\n      swap1\n      0x00\n      mstore\n      keccak256(0x00, 0x20)\n      add\n      0x00\n      swap1\n      sload\n      swap1\n      0x0100\n      exp\n      swap1\n      div\n      0xffffffffffffffffffffffffffffffffffffffff\n      and\n        /* \"contracts/StorageFactory.sol\":749:818  SimpleStorage simpleStorage = simpleStorageArray[_simpleStorageIndex] */\n      swap1\n      pop\n        /* \"contracts/StorageFactory.sol\":836:849  simpleStorage */\n      dup1\n        /* \"contracts/StorageFactory.sol\":836:858  simpleStorage.retrieve */\n      0xffffffffffffffffffffffffffffffffffffffff\n      and\n      0x2e64cec1\n        /* \"contracts/StorageFactory.sol\":836:860  simpleStorage.retrieve() */\n      mload(0x40)\n      dup2\n      0xffffffff\n      and\n      0xe0\n      shl\n      dup2\n      mstore\n      0x04\n      add\n      0x20\n      mload(0x40)\n      dup1\n      dup4\n      sub\n      dup2\n      dup7\n      gas\n      staticcall\n      iszero\n      dup1\n      iszero\n      tag_43\n      jumpi\n      returndatasize\n      0x00\n      dup1\n      returndatacopy\n      revert(0x00, returndatasize)\n    tag_43:\n      pop\n      pop\n      pop\n      pop\n      mload(0x40)\n      returndatasize\n      not(0x1f)\n      0x1f\n      dup3\n      add\n      and\n      dup3\n      add\n      dup1\n      0x40\n      mstore\n      pop\n      dup2\n      add\n      swap1\n      tag_44\n      swap2\n      swap1\n      tag_45\n      jump\t// in\n    tag_44:\n        /* \"contracts/StorageFactory.sol\":829:860  return simpleStorage.retrieve() */\n      swap2\n      pop\n      pop\n        /* \"contracts/StorageFactory.sol\":654:868  function storageFactoryGet(uint256 _simpleStorageIndex) public view returns(uint256){... */\n      swap2\n      swap1\n      pop\n      jump\t// out\n        /* \"contracts/StorageFactory.sol\":123:164  SimpleStorage[] public simpleStorageArray */\n    tag_21:\n      0x00\n      dup2\n      dup2\n      sload\n      dup2\n      lt\n      tag_46\n      jumpi\n      0x00\n      dup1\n      revert\n    tag_46:\n      swap1\n      0x00\n      mstore\n      keccak256(0x00, 0x20)\n      add\n      0x00\n      swap2\n      pop\n      sload\n      swap1\n      0x0100\n      exp\n      swap1\n      div\n      0xffffffffffffffffffffffffffffffffffffffff\n      and\n      dup2\n      jump\t// out\n    tag_35:\n      dataSize(sub_0)\n      dup1\n      dataOffset(sub_0)\n      dup4\n      codecopy\n      add\n      swap1\n      jump\t// out\n        /* \"#utility.yul\":88:205   */\n    tag_49:\n        /* \"#utility.yul\":197:198   */\n      0x00\n        /* \"#utility.yul\":194:195   */\n      dup1\n        /* \"#utility.yul\":187:199   */\n      revert\n        /* \"#utility.yul\":334:411   */\n    tag_51:\n        /* \"#utility.yul\":371:378   */\n      0x00\n        /* \"#utility.yul\":400:405   */\n      dup2\n        /* \"#utility.yul\":389:405   */\n      swap1\n      pop\n        /* \"#utility.yul\":334:411   */\n      swap2\n      swap1\n      pop\n      jump\t// out\n        /* \"#utility.yul\":417:539   */\n    tag_52:\n        /* \"#utility.yul\":490:514   */\n      tag_68\n        /* \"#utility.yul\":508:513   */\n      dup2\n        /* \"#utility.yul\":490:514   */\n      tag_51\n      jump\t// in\n    tag_68:\n        /* \"#utility.yul\":483:488   */\n      dup2\n        /* \"#utility.yul\":480:515   */\n      eq\n        /* \"#utility.yul\":470:533   */\n      tag_69\n      jumpi\n        /* \"#utility.yul\":529:530   */\n      0x00\n        /* \"#utility.yul\":526:527   */\n      dup1\n        /* \"#utility.yul\":519:531   */\n      revert\n        /* \"#utility.yul\":470:533   */\n    tag_69:\n        /* \"#utility.yul\":417:539   */\n      pop\n      jump\t// out\n        /* \"#utility.yul\":545:684   */\n    tag_53:\n        /* \"#utility.yul\":591:596   */\n      0x00\n        /* \"#utility.yul\":629:635   */\n      dup2\n        /* \"#utility.yul\":616:636   */\n      calldataload\n        /* \"#utility.yul\":607:636   */\n      swap1\n      pop\n        /* \"#utility.yul\":645:678   */\n      tag_71\n        /* \"#utility.yul\":672:677   */\n      dup2\n        /* \"#utility.yul\":645:678   */\n      tag_52\n      jump\t// in\n    tag_71:\n        /* \"#utility.yul\":545:684   */\n      swap3\n      swap2\n      pop\n      pop\n      jump\t// out\n        /* \"#utility.yul\":690:1164   */\n    tag_9:\n        /* \"#utility.yul\":758:764   */\n      0x00\n        /* \"#utility.yul\":766:772   */\n      dup1\n        /* \"#utility.yul\":815:817   */\n      0x40\n        /* \"#utility.yul\":803:812   */\n      dup4\n        /* \"#utility.yul\":794:801   */\n      dup6\n        /* \"#utility.yul\":790:813   */\n      sub\n        /* \"#utility.yul\":786:818   */\n      slt\n        /* \"#utility.yul\":783:902   */\n      iszero\n      tag_73\n      jumpi\n        /* \"#utility.yul\":821:900   */\n      tag_74\n      tag_49\n      jump\t// in\n    tag_74:\n        /* \"#utility.yul\":783:902   */\n    tag_73:\n        /* \"#utility.yul\":941:942   */\n      0x00\n        /* \"#utility.yul\":966:1019   */\n      tag_75\n        /* \"#utility.yul\":1011:1018   */\n      dup6\n        /* \"#utility.yul\":1002:1008   */\n      dup3\n        /* \"#utility.yul\":991:1000   */\n      dup7\n        /* \"#utility.yul\":987:1009   */\n      add\n        /* \"#utility.yul\":966:1019   */\n      tag_53\n      jump\t// in\n    tag_75:\n        /* \"#utility.yul\":956:1019   */\n      swap3\n      pop\n        /* \"#utility.yul\":912:1029   */\n      pop\n        /* \"#utility.yul\":1068:1070   */\n      0x20\n        /* \"#utility.yul\":1094:1147   */\n      tag_76\n        /* \"#utility.yul\":1139:1146   */\n      dup6\n        /* \"#utility.yul\":1130:1136   */\n      dup3\n        /* \"#utility.yul\":1119:1128   */\n      dup7\n        /* \"#utility.yul\":1115:1137   */\n      add\n        /* \"#utility.yul\":1094:1147   */\n      tag_53\n      jump\t// in\n    tag_76:\n        /* \"#utility.yul\":1084:1147   */\n      swap2\n      pop\n        /* \"#utility.yul\":1039:1157   */\n      pop\n        /* \"#utility.yul\":690:1164   */\n      swap3\n      pop\n      swap3\n      swap1\n      pop\n      jump\t// out\n        /* \"#utility.yul\":1170:1499   */\n    tag_15:\n        /* \"#utility.yul\":1229:1235   */\n      0x00\n        /* \"#utility.yul\":1278:1280   */\n      0x20\n        /* \"#utility.yul\":1266:1275   */\n      dup3\n        /* \"#utility.yul\":1257:1264   */\n      dup5\n        /* \"#utility.yul\":1253:1276   */\n      sub\n        /* \"#utility.yul\":1249:1281   */\n      slt\n        /* \"#utility.yul\":1246:1365   */\n      iszero\n      tag_78\n      jumpi\n        /* \"#utility.yul\":1284:1363   */\n      tag_79\n      tag_49\n      jump\t// in\n    tag_79:\n        /* \"#utility.yul\":1246:1365   */\n    tag_78:\n        /* \"#utility.yul\":1404:1405   */\n      0x00\n        /* \"#utility.yul\":1429:1482   */\n      tag_80\n        /* \"#utility.yul\":1474:1481   */\n      dup5\n        /* \"#utility.yul\":1465:1471   */\n      dup3\n        /* \"#utility.yul\":1454:1463   */\n      dup6\n        /* \"#utility.yul\":1450:1472   */\n      add\n        /* \"#utility.yul\":1429:1482   */\n      tag_53\n      jump\t// in\n    tag_80:\n        /* \"#utility.yul\":1419:1482   */\n      swap2\n      pop\n        /* \"#utility.yul\":1375:1492   */\n      pop\n        /* \"#utility.yul\":1170:1499   */\n      swap3\n      swap2\n      pop\n      pop\n      jump\t// out\n        /* \"#utility.yul\":1505:1623   */\n    tag_54:\n        /* \"#utility.yul\":1592:1616   */\n      tag_82\n        /* \"#utility.yul\":1610:1615   */\n      dup2\n        /* \"#utility.yul\":1592:1616   */\n      tag_51\n      jump\t// in\n    tag_82:\n        /* \"#utility.yul\":1587:1590   */\n      dup3\n        /* \"#utility.yul\":1580:1617   */\n      mstore\n        /* \"#utility.yul\":1505:1623   */\n      pop\n      pop\n      jump\t// out\n        /* \"#utility.yul\":1629:1851   */\n    tag_18:\n        /* \"#utility.yul\":1722:1726   */\n      0x00\n        /* \"#utility.yul\":1760:1762   */\n      0x20\n        /* \"#utility.yul\":1749:1758   */\n      dup3\n        /* \"#utility.yul\":1745:1763   */\n      add\n        /* \"#utility.yul\":1737:1763   */\n      swap1\n      pop\n        /* \"#utility.yul\":1773:1844   */\n      tag_84\n        /* \"#utility.yul\":1841:1842   */\n      0x00\n        /* \"#utility.yul\":1830:1839   */\n      dup4\n        /* \"#utility.yul\":1826:1843   */\n      add\n        /* \"#utility.yul\":1817:1823   */\n      dup5\n        /* \"#utility.yul\":1773:1844   */\n      tag_54\n      jump\t// in\n    tag_84:\n        /* \"#utility.yul\":1629:1851   */\n      swap3\n      swap2\n      pop\n      pop\n      jump\t// out\n        /* \"#utility.yul\":1857:1983   */\n    tag_55:\n        /* \"#utility.yul\":1894:1901   */\n      0x00\n        /* \"#utility.yul\":1934:1976   */\n      0xffffffffffffffffffffffffffffffffffffffff\n        /* \"#utility.yul\":1927:1932   */\n      dup3\n        /* \"#utility.yul\":1923:1977   */\n      and\n        /* \"#utility.yul\":1912:1977   */\n      swap1\n      pop\n        /* \"#utility.yul\":1857:1983   */\n      swap2\n      swap1\n      pop\n      jump\t// out\n        /* \"#utility.yul\":1989:2049   */\n    tag_56:\n        /* \"#utility.yul\":2017:2020   */\n      0x00\n        /* \"#utility.yul\":2038:2043   */\n      dup2\n        /* \"#utility.yul\":2031:2043   */\n      swap1\n      pop\n        /* \"#utility.yul\":1989:2049   */\n      swap2\n      swap1\n      pop\n      jump\t// out\n        /* \"#utility.yul\":2055:2197   */\n    tag_57:\n        /* \"#utility.yul\":2105:2114   */\n      0x00\n        /* \"#utility.yul\":2138:2191   */\n      tag_88\n        /* \"#utility.yul\":2156:2190   */\n      tag_89\n        /* \"#utility.yul\":2165:2189   */\n      tag_90\n        /* \"#utility.yul\":2183:2188   */\n      dup5\n        /* \"#utility.yul\":2165:2189   */\n      tag_55\n      jump\t// in\n    tag_90:\n        /* \"#utility.yul\":2156:2190   */\n      tag_56\n      jump\t// in\n    tag_89:\n        /* \"#utility.yul\":2138:2191   */\n      tag_55\n      jump\t// in\n    tag_88:\n        /* \"#utility.yul\":2125:2191   */\n      swap1\n      pop\n        /* \"#utility.yul\":2055:2197   */\n      swap2\n      swap1\n      pop\n      jump\t// out\n        /* \"#utility.yul\":2203:2329   */\n    tag_58:\n        /* \"#utility.yul\":2253:2262   */\n      0x00\n        /* \"#utility.yul\":2286:2323   */\n      tag_92\n        /* \"#utility.yul\":2317:2322   */\n      dup3\n        /* \"#utility.yul\":2286:2323   */\n      tag_57\n      jump\t// in\n    tag_92:\n        /* \"#utility.yul\":2273:2323   */\n      swap1\n      pop\n        /* \"#utility.yul\":2203:2329   */\n      swap2\n      swap1\n      pop\n      jump\t// out\n        /* \"#utility.yul\":2335:2481   */\n    tag_59:\n        /* \"#utility.yul\":2405:2414   */\n      0x00\n        /* \"#utility.yul\":2438:2475   */\n      tag_94\n        /* \"#utility.yul\":2469:2474   */\n      dup3\n        /* \"#utility.yul\":2438:2475   */\n      tag_58\n      jump\t// in\n    tag_94:\n        /* \"#utility.yul\":2425:2475   */\n      swap1\n      pop\n        /* \"#utility.yul\":2335:2481   */\n      swap2\n      swap1\n      pop\n      jump\t// out\n        /* \"#utility.yul\":2487:2658   */\n    tag_60:\n        /* \"#utility.yul\":2594:2651   */\n      tag_96\n        /* \"#utility.yul\":2645:2650   */\n      dup2\n        /* \"#utility.yul\":2594:2651   */\n      tag_59\n      jump\t// in\n    tag_96:\n        /* \"#utility.yul\":2589:2592   */\n      dup3\n        /* \"#utility.yul\":2582:2652   */\n      mstore\n        /* \"#utility.yul\":2487:2658   */\n      pop\n      pop\n      jump\t// out\n        /* \"#utility.yul\":2664:2926   */\n    tag_23:\n        /* \"#utility.yul\":2777:2781   */\n      0x00\n        /* \"#utility.yul\":2815:2817   */\n      0x20\n        /* \"#utility.yul\":2804:2813   */\n      dup3\n        /* \"#utility.yul\":2800:2818   */\n      add\n        /* \"#utility.yul\":2792:2818   */\n      swap1\n      pop\n        /* \"#utility.yul\":2828:2919   */\n      tag_98\n        /* \"#utility.yul\":2916:2917   */\n      0x00\n        /* \"#utility.yul\":2905:2914   */\n      dup4\n        /* \"#utility.yul\":2901:2918   */\n      add\n        /* \"#utility.yul\":2892:2898   */\n      dup5\n        /* \"#utility.yul\":2828:2919   */\n      tag_60\n      jump\t// in\n    tag_98:\n        /* \"#utility.yul\":2664:2926   */\n      swap3\n      swap2\n      pop\n      pop\n      jump\t// out\n        /* \"#utility.yul\":2932:3112   */\n    tag_27:\n        /* \"#utility.yul\":2980:3057   */\n      0x4e487b7100000000000000000000000000000000000000000000000000000000\n        /* \"#utility.yul\":2977:2978   */\n      0x00\n        /* \"#utility.yul\":2970:3058   */\n      mstore\n        /* \"#utility.yul\":3077:3081   */\n      0x32\n        /* \"#utility.yul\":3074:3075   */\n      0x04\n        /* \"#utility.yul\":3067:3082   */\n      mstore\n        /* \"#utility.yul\":3101:3105   */\n      0x24\n        /* \"#utility.yul\":3098:3099   */\n      0x00\n        /* \"#utility.yul\":3091:3106   */\n      revert\n        /* \"#utility.yul\":3118:3261   */\n    tag_61:\n        /* \"#utility.yul\":3175:3180   */\n      0x00\n        /* \"#utility.yul\":3206:3212   */\n      dup2\n        /* \"#utility.yul\":3200:3213   */\n      mload\n        /* \"#utility.yul\":3191:3213   */\n      swap1\n      pop\n        /* \"#utility.yul\":3222:3255   */\n      tag_101\n        /* \"#utility.yul\":3249:3254   */\n      dup2\n        /* \"#utility.yul\":3222:3255   */\n      tag_52\n      jump\t// in\n    tag_101:\n        /* \"#utility.yul\":3118:3261   */\n      swap3\n      swap2\n      pop\n      pop\n      jump\t// out\n        /* \"#utility.yul\":3267:3618   */\n    tag_45:\n        /* \"#utility.yul\":3337:3343   */\n      0x00\n        /* \"#utility.yul\":3386:3388   */\n      0x20\n        /* \"#utility.yul\":3374:3383   */\n      dup3\n        /* \"#utility.yul\":3365:3372   */\n      dup5\n        /* \"#utility.yul\":3361:3384   */\n      sub\n        /* \"#utility.yul\":3357:3389   */\n      slt\n        /* \"#utility.yul\":3354:3473   */\n      iszero\n      tag_103\n      jumpi\n        /* \"#utility.yul\":3392:3471   */\n      tag_104\n      tag_49\n      jump\t// in\n    tag_104:\n        /* \"#utility.yul\":3354:3473   */\n    tag_103:\n        /* \"#utility.yul\":3512:3513   */\n      0x00\n        /* \"#utility.yul\":3537:3601   */\n      tag_105\n        /* \"#utility.yul\":3593:3600   */\n      dup5\n        /* \"#utility.yul\":3584:3590   */\n      dup3\n        /* \"#utility.yul\":3573:3582   */\n      dup6\n        /* \"#utility.yul\":3569:3591   */\n      add\n        /* \"#utility.yul\":3537:3601   */\n      tag_61\n      jump\t// in\n    tag_105:\n        /* \"#utility.yul\":3527:3601   */\n      swap2\n      pop\n        /* \"#utility.yul\":3483:3611   */\n      pop\n        /* \"#utility.yul\":3267:3618   */\n      swap3\n      swap2\n      pop\n      pop\n      jump\t// out\n    stop\n\n    sub_0: assembly {\n            /* \"contracts/SimpleStorage.sol\":60:1062  contract SimpleStorage {... */\n          mstore(0x40, 0x80)\n          callvalue\n          dup1\n          iszero\n          tag_1\n          jumpi\n          0x00\n          dup1\n          revert\n        tag_1:\n          pop\n          dataSize(sub_0)\n          dup1\n          dataOffset(sub_0)\n          0x00\n          codecopy\n          0x00\n          return\n        stop\n\n        sub_0: assembly {\n                /* \"contracts/SimpleStorage.sol\":60:1062  contract SimpleStorage {... */\n              mstore(0x40, 0x80)\n              callvalue\n              dup1\n              iszero\n              tag_1\n              jumpi\n              0x00\n              dup1\n              revert\n            tag_1:\n              pop\n              jumpi(tag_2, lt(calldatasize, 0x04))\n              shr(0xe0, calldataload(0x00))\n              dup1\n              0x6057361d\n              gt\n              tag_11\n              jumpi\n              dup1\n              0x6057361d\n              eq\n              tag_7\n              jumpi\n              dup1\n              0x6a6fea65\n              eq\n              tag_8\n              jumpi\n              dup1\n              0x9e7a13ad\n              eq\n              tag_9\n              jumpi\n              dup1\n              0xbc832d4e\n              eq\n              tag_10\n              jumpi\n              jump(tag_2)\n            tag_11:\n              dup1\n              0x2d180460\n              eq\n              tag_3\n              jumpi\n              dup1\n              0x2e64cec1\n              eq\n              tag_4\n              jumpi\n              dup1\n              0x43ec8f47\n              eq\n              tag_5\n              jumpi\n              dup1\n              0x471f7cdf\n              eq\n              tag_6\n              jumpi\n            tag_2:\n              0x00\n              dup1\n              revert\n                /* \"contracts/SimpleStorage.sol\":182:231  mapping(uint256 => string) public favNumberToName */\n            tag_3:\n              tag_12\n              0x04\n              dup1\n              calldatasize\n              sub\n              dup2\n              add\n              swap1\n              tag_13\n              swap2\n              swap1\n              tag_14\n              jump\t// in\n            tag_13:\n              tag_15\n              jump\t// in\n            tag_12:\n              mload(0x40)\n              tag_16\n              swap2\n              swap1\n              tag_17\n              jump\t// in\n            tag_16:\n              mload(0x40)\n              dup1\n              swap2\n              sub\n              swap1\n              return\n                /* \"contracts/SimpleStorage.sol\":643:733  function retrieve() public view returns (uint256) {... */\n            tag_4:\n              tag_18\n              tag_19\n              jump\t// in\n            tag_18:\n              mload(0x40)\n              tag_20\n              swap2\n              swap1\n              tag_21\n              jump\t// in\n            tag_20:\n              mload(0x40)\n              dup1\n              swap2\n              sub\n              swap1\n              return\n                /* \"contracts/SimpleStorage.sol\":126:175  mapping(string => uint256) public nameToFavNumber */\n            tag_5:\n              tag_22\n              0x04\n              dup1\n              calldatasize\n              sub\n              dup2\n              add\n              swap1\n              tag_23\n              swap2\n              swap1\n              tag_24\n              jump\t// in\n            tag_23:\n              tag_25\n              jump\t// in\n            tag_22:\n              mload(0x40)\n              tag_26\n              swap2\n              swap1\n              tag_21\n              jump\t// in\n            tag_26:\n              mload(0x40)\n              dup1\n              swap2\n              sub\n              swap1\n              return\n                /* \"contracts/SimpleStorage.sol\":90:119  uint256 public favoriteNumber */\n            tag_6:\n              tag_27\n              tag_28\n              jump\t// in\n            tag_27:\n              mload(0x40)\n              tag_29\n              swap2\n              swap1\n              tag_21\n              jump\t// in\n            tag_29:\n              mload(0x40)\n              dup1\n              swap2\n              sub\n              swap1\n              return\n                /* \"contracts/SimpleStorage.sol\":368:534  function store(uint256 _favoriteNumber) public {... */\n            tag_7:\n              tag_30\n              0x04\n              dup1\n              calldatasize\n              sub\n              dup2\n              add\n              swap1\n              tag_31\n              swap2\n              swap1\n              tag_14\n              jump\t// in\n            tag_31:\n              tag_32\n              jump\t// in\n            tag_30:\n              stop\n                /* \"contracts/SimpleStorage.sol\":546:631  function addSomeMore(uint256 value) public {... */\n            tag_8:\n              tag_33\n              0x04\n              dup1\n              calldatasize\n              sub\n              dup2\n              add\n              swap1\n              tag_34\n              swap2\n              swap1\n              tag_14\n              jump\t// in\n            tag_34:\n              tag_35\n              jump\t// in\n            tag_33:\n              stop\n                /* \"contracts/SimpleStorage.sol\":333:355  People[] public people */\n            tag_9:\n              tag_36\n              0x04\n              dup1\n              calldatasize\n              sub\n              dup2\n              add\n              swap1\n              tag_37\n              swap2\n              swap1\n              tag_14\n              jump\t// in\n            tag_37:\n              tag_38\n              jump\t// in\n            tag_36:\n              mload(0x40)\n              tag_39\n              swap3\n              swap2\n              swap1\n              tag_40\n              jump\t// in\n            tag_39:\n              mload(0x40)\n              dup1\n              swap2\n              sub\n              swap1\n              return\n                /* \"contracts/SimpleStorage.sol\":745:1059  function addPerson(uint256 _favoriteNumber, string memory _name) public {... */\n            tag_10:\n              tag_41\n              0x04\n              dup1\n              calldatasize\n              sub\n              dup2\n              add\n              swap1\n              tag_42\n              swap2\n              swap1\n              tag_43\n              jump\t// in\n            tag_42:\n              tag_44\n              jump\t// in\n            tag_41:\n              stop\n                /* \"contracts/SimpleStorage.sol\":182:231  mapping(uint256 => string) public favNumberToName */\n            tag_15:\n              mstore(0x20, 0x02)\n              dup1\n              0x00\n              mstore\n              keccak256(0x00, 0x40)\n              0x00\n              swap2\n              pop\n              swap1\n              pop\n              dup1\n              sload\n              tag_45\n              swap1\n              tag_46\n              jump\t// in\n            tag_45:\n              dup1\n              0x1f\n              add\n              0x20\n              dup1\n              swap2\n              div\n              mul\n              0x20\n              add\n              mload(0x40)\n              swap1\n              dup2\n              add\n              0x40\n              mstore\n              dup1\n              swap3\n              swap2\n              swap1\n              dup2\n              dup2\n              mstore\n              0x20\n              add\n              dup3\n              dup1\n              sload\n              tag_47\n              swap1\n              tag_46\n              jump\t// in\n            tag_47:\n              dup1\n              iszero\n              tag_48\n              jumpi\n              dup1\n              0x1f\n              lt\n              tag_49\n              jumpi\n              0x0100\n              dup1\n              dup4\n              sload\n              div\n              mul\n              dup4\n              mstore\n              swap2\n              0x20\n              add\n              swap2\n              jump(tag_48)\n            tag_49:\n              dup3\n              add\n              swap2\n              swap1\n              0x00\n              mstore\n              keccak256(0x00, 0x20)\n              swap1\n            tag_50:\n              dup2\n              sload\n              dup2\n              mstore\n              swap1\n              0x01\n              add\n              swap1\n              0x20\n              add\n              dup1\n              dup4\n              gt\n              tag_50\n              jumpi\n              dup3\n              swap1\n              sub\n              0x1f\n              and\n              dup3\n              add\n              swap2\n            tag_48:\n              pop\n              pop\n              pop\n              pop\n              pop\n              dup2\n              jump\t// out\n                /* \"contracts/SimpleStorage.sol\":643:733  function retrieve() public view returns (uint256) {... */\n            tag_19:\n                /* \"contracts/SimpleStorage.sol\":684:691  uint256 */\n              0x00\n                /* \"contracts/SimpleStorage.sol\":711:725  favoriteNumber */\n              dup1\n              sload\n                /* \"contracts/SimpleStorage.sol\":704:725  return favoriteNumber */\n              swap1\n              pop\n                /* \"contracts/SimpleStorage.sol\":643:733  function retrieve() public view returns (uint256) {... */\n              swap1\n              jump\t// out\n                /* \"contracts/SimpleStorage.sol\":126:175  mapping(string => uint256) public nameToFavNumber */\n            tag_25:\n              0x01\n              dup2\n              dup1\n              mload\n              0x20\n              dup2\n              add\n              dup3\n              add\n              dup1\n              mload\n              dup5\n              dup3\n              mstore\n              0x20\n              dup4\n              add\n              0x20\n              dup6\n              add\n              keccak256\n              dup2\n              dup4\n              mstore\n              dup1\n              swap6\n              pop\n              pop\n              pop\n              pop\n              pop\n              pop\n              0x00\n              swap2\n              pop\n              swap1\n              pop\n              sload\n              dup2\n              jump\t// out\n                /* \"contracts/SimpleStorage.sol\":90:119  uint256 public favoriteNumber */\n            tag_28:\n              sload(0x00)\n              dup2\n              jump\t// out\n                /* \"contracts/SimpleStorage.sol\":368:534  function store(uint256 _favoriteNumber) public {... */\n            tag_32:\n                /* \"contracts/SimpleStorage.sol\":443:458  _favoriteNumber */\n              dup1\n                /* \"contracts/SimpleStorage.sol\":426:440  favoriteNumber */\n              0x00\n                /* \"contracts/SimpleStorage.sol\":426:458  favoriteNumber = _favoriteNumber */\n              dup2\n              swap1\n              sstore\n              pop\n                /* \"contracts/SimpleStorage.sol\":487:488  1 */\n              0x01\n                /* \"contracts/SimpleStorage.sol\":469:483  favoriteNumber */\n              0x00\n              dup1\n                /* \"contracts/SimpleStorage.sol\":469:488  favoriteNumber += 1 */\n              dup3\n              dup3\n              sload\n              tag_53\n              swap2\n              swap1\n              tag_54\n              jump\t// in\n            tag_53:\n              swap3\n              pop\n              pop\n              dup2\n              swap1\n              sstore\n              pop\n                /* \"contracts/SimpleStorage.sol\":499:526  addSomeMore(favoriteNumber) */\n              tag_55\n                /* \"contracts/SimpleStorage.sol\":511:525  favoriteNumber */\n              sload(0x00)\n                /* \"contracts/SimpleStorage.sol\":499:510  addSomeMore */\n              tag_35\n                /* \"contracts/SimpleStorage.sol\":499:526  addSomeMore(favoriteNumber) */\n              jump\t// in\n            tag_55:\n                /* \"contracts/SimpleStorage.sol\":368:534  function store(uint256 _favoriteNumber) public {... */\n              pop\n              jump\t// out\n                /* \"contracts/SimpleStorage.sol\":546:631  function addSomeMore(uint256 value) public {... */\n            tag_35:\n                /* \"contracts/SimpleStorage.sol\":618:623  value */\n              dup1\n                /* \"contracts/SimpleStorage.sol\":600:614  favoriteNumber */\n              0x00\n              dup1\n                /* \"contracts/SimpleStorage.sol\":600:623  favoriteNumber += value */\n              dup3\n              dup3\n              sload\n              tag_57\n              swap2\n              swap1\n              tag_54\n              jump\t// in\n            tag_57:\n              swap3\n              pop\n              pop\n              dup2\n              swap1\n              sstore\n              pop\n                /* \"contracts/SimpleStorage.sol\":546:631  function addSomeMore(uint256 value) public {... */\n              pop\n              jump\t// out\n                /* \"contracts/SimpleStorage.sol\":333:355  People[] public people */\n            tag_38:\n              0x03\n              dup2\n              dup2\n              sload\n              dup2\n              lt\n              tag_58\n              jumpi\n              0x00\n              dup1\n              revert\n            tag_58:\n              swap1\n              0x00\n              mstore\n              keccak256(0x00, 0x20)\n              swap1\n              0x02\n              mul\n              add\n              0x00\n              swap2\n              pop\n              swap1\n              pop\n              dup1\n              0x00\n              add\n              sload\n              swap1\n              dup1\n              0x01\n              add\n              dup1\n              sload\n              tag_60\n              swap1\n              tag_46\n              jump\t// in\n            tag_60:\n              dup1\n              0x1f\n              add\n              0x20\n              dup1\n              swap2\n              div\n              mul\n              0x20\n              add\n              mload(0x40)\n              swap1\n              dup2\n              add\n              0x40\n              mstore\n              dup1\n              swap3\n              swap2\n              swap1\n              dup2\n              dup2\n              mstore\n              0x20\n              add\n              dup3\n              dup1\n              sload\n              tag_61\n              swap1\n              tag_46\n              jump\t// in\n            tag_61:\n              dup1\n              iszero\n              tag_62\n              jumpi\n              dup1\n              0x1f\n              lt\n              tag_63\n              jumpi\n              0x0100\n              dup1\n              dup4\n              sload\n              div\n              mul\n              dup4\n              mstore\n              swap2\n              0x20\n              add\n              swap2\n              jump(tag_62)\n            tag_63:\n              dup3\n              add\n              swap2\n              swap1\n              0x00\n              mstore\n              keccak256(0x00, 0x20)\n              swap1\n            tag_64:\n              dup2\n              sload\n              dup2\n              mstore\n              swap1\n              0x01\n              add\n              swap1\n              0x20\n              add\n              dup1\n              dup4\n              gt\n              tag_64\n              jumpi\n              dup3\n              swap1\n              sub\n              0x1f\n              and\n              dup3\n              add\n              swap2\n            tag_62:\n              pop\n              pop\n              pop\n              pop\n              pop\n              swap1\n              pop\n              dup3\n              jump\t// out\n                /* \"contracts/SimpleStorage.sol\":745:1059  function addPerson(uint256 _favoriteNumber, string memory _name) public {... */\n            tag_44:\n                /* \"contracts/SimpleStorage.sol\":882:888  people */\n              0x03\n                /* \"contracts/SimpleStorage.sol\":894:948  People({favoriteNumber: _favoriteNumber, name: _name}) */\n              mload(0x40)\n              dup1\n              0x40\n              add\n              0x40\n              mstore\n              dup1\n                /* \"contracts/SimpleStorage.sol\":918:933  _favoriteNumber */\n              dup5\n                /* \"contracts/SimpleStorage.sol\":894:948  People({favoriteNumber: _favoriteNumber, name: _name}) */\n              dup2\n              mstore\n              0x20\n              add\n                /* \"contracts/SimpleStorage.sol\":941:946  _name */\n              dup4\n                /* \"contracts/SimpleStorage.sol\":894:948  People({favoriteNumber: _favoriteNumber, name: _name}) */\n              dup2\n              mstore\n              pop\n                /* \"contracts/SimpleStorage.sol\":882:949  people.push(People({favoriteNumber: _favoriteNumber, name: _name})) */\n              swap1\n              dup1\n              0x01\n              dup2\n              sload\n              add\n              dup1\n              dup3\n              sstore\n              dup1\n              swap2\n              pop\n              pop\n              0x01\n              swap1\n              sub\n              swap1\n              0x00\n              mstore\n              keccak256(0x00, 0x20)\n              swap1\n              0x02\n              mul\n              add\n              0x00\n              swap1\n              swap2\n              swap1\n              swap2\n              swap1\n              swap2\n              pop\n              0x00\n              dup3\n              add\n              mload\n              dup2\n              0x00\n              add\n              sstore\n              0x20\n              dup3\n              add\n              mload\n              dup2\n              0x01\n              add\n              swap1\n              dup2\n              tag_67\n              swap2\n              swap1\n              tag_68\n              jump\t// in\n            tag_67:\n              pop\n              pop\n              pop\n                /* \"contracts/SimpleStorage.sol\":985:1000  _favoriteNumber */\n              dup2\n                /* \"contracts/SimpleStorage.sol\":960:975  nameToFavNumber */\n              0x01\n                /* \"contracts/SimpleStorage.sol\":976:981  _name */\n              dup3\n                /* \"contracts/SimpleStorage.sol\":960:982  nameToFavNumber[_name] */\n              mload(0x40)\n              tag_69\n              swap2\n              swap1\n              tag_70\n              jump\t// in\n            tag_69:\n              swap1\n              dup2\n              mstore\n              0x20\n              add\n              mload(0x40)\n              dup1\n              swap2\n              sub\n              swap1\n              keccak256\n                /* \"contracts/SimpleStorage.sol\":960:1000  nameToFavNumber[_name] = _favoriteNumber */\n              dup2\n              swap1\n              sstore\n              pop\n                /* \"contracts/SimpleStorage.sol\":1046:1051  _name */\n              dup1\n                /* \"contracts/SimpleStorage.sol\":1011:1026  favNumberToName */\n              0x02\n                /* \"contracts/SimpleStorage.sol\":1011:1043  favNumberToName[_favoriteNumber] */\n              0x00\n                /* \"contracts/SimpleStorage.sol\":1027:1042  _favoriteNumber */\n              dup5\n                /* \"contracts/SimpleStorage.sol\":1011:1043  favNumberToName[_favoriteNumber] */\n              dup2\n              mstore\n              0x20\n              add\n              swap1\n              dup2\n              mstore\n              0x20\n              add\n              0x00\n              keccak256\n                /* \"contracts/SimpleStorage.sol\":1011:1051  favNumberToName[_favoriteNumber] = _name */\n              swap1\n              dup2\n              tag_71\n              swap2\n              swap1\n              tag_68\n              jump\t// in\n            tag_71:\n              pop\n                /* \"contracts/SimpleStorage.sol\":745:1059  function addPerson(uint256 _favoriteNumber, string memory _name) public {... */\n              pop\n              pop\n              jump\t// out\n                /* \"#utility.yul\":7:82   */\n            tag_72:\n                /* \"#utility.yul\":40:46   */\n              0x00\n                /* \"#utility.yul\":73:75   */\n              0x40\n                /* \"#utility.yul\":67:76   */\n              mload\n                /* \"#utility.yul\":57:76   */\n              swap1\n              pop\n                /* \"#utility.yul\":7:82   */\n              swap1\n              jump\t// out\n                /* \"#utility.yul\":88:205   */\n            tag_73:\n                /* \"#utility.yul\":197:198   */\n              0x00\n                /* \"#utility.yul\":194:195   */\n              dup1\n                /* \"#utility.yul\":187:199   */\n              revert\n                /* \"#utility.yul\":211:328   */\n            tag_74:\n                /* \"#utility.yul\":320:321   */\n              0x00\n                /* \"#utility.yul\":317:318   */\n              dup1\n                /* \"#utility.yul\":310:322   */\n              revert\n                /* \"#utility.yul\":334:411   */\n            tag_75:\n                /* \"#utility.yul\":371:378   */\n              0x00\n                /* \"#utility.yul\":400:405   */\n              dup2\n                /* \"#utility.yul\":389:405   */\n              swap1\n              pop\n                /* \"#utility.yul\":334:411   */\n              swap2\n              swap1\n              pop\n              jump\t// out\n                /* \"#utility.yul\":417:539   */\n            tag_76:\n                /* \"#utility.yul\":490:514   */\n              tag_118\n                /* \"#utility.yul\":508:513   */\n              dup2\n                /* \"#utility.yul\":490:514   */\n              tag_75\n              jump\t// in\n            tag_118:\n                /* \"#utility.yul\":483:488   */\n              dup2\n                /* \"#utility.yul\":480:515   */\n              eq\n                /* \"#utility.yul\":470:533   */\n              tag_119\n              jumpi\n                /* \"#utility.yul\":529:530   */\n              0x00\n                /* \"#utility.yul\":526:527   */\n              dup1\n                /* \"#utility.yul\":519:531   */\n              revert\n                /* \"#utility.yul\":470:533   */\n            tag_119:\n                /* \"#utility.yul\":417:539   */\n              pop\n              jump\t// out\n                /* \"#utility.yul\":545:684   */\n            tag_77:\n                /* \"#utility.yul\":591:596   */\n              0x00\n                /* \"#utility.yul\":629:635   */\n              dup2\n                /* \"#utility.yul\":616:636   */\n              calldataload\n                /* \"#utility.yul\":607:636   */\n              swap1\n              pop\n                /* \"#utility.yul\":645:678   */\n              tag_121\n                /* \"#utility.yul\":672:677   */\n              dup2\n                /* \"#utility.yul\":645:678   */\n              tag_76\n              jump\t// in\n            tag_121:\n                /* \"#utility.yul\":545:684   */\n              swap3\n              swap2\n              pop\n              pop\n              jump\t// out\n                /* \"#utility.yul\":690:1019   */\n            tag_14:\n                /* \"#utility.yul\":749:755   */\n              0x00\n                /* \"#utility.yul\":798:800   */\n              0x20\n                /* \"#utility.yul\":786:795   */\n              dup3\n                /* \"#utility.yul\":777:784   */\n              dup5\n                /* \"#utility.yul\":773:796   */\n              sub\n                /* \"#utility.yul\":769:801   */\n              slt\n                /* \"#utility.yul\":766:885   */\n              iszero\n              tag_123\n              jumpi\n                /* \"#utility.yul\":804:883   */\n              tag_124\n              tag_73\n              jump\t// in\n            tag_124:\n                /* \"#utility.yul\":766:885   */\n            tag_123:\n                /* \"#utility.yul\":924:925   */\n              0x00\n                /* \"#utility.yul\":949:1002   */\n              tag_125\n                /* \"#utility.yul\":994:1001   */\n              dup5\n                /* \"#utility.yul\":985:991   */\n              dup3\n                /* \"#utility.yul\":974:983   */\n              dup6\n                /* \"#utility.yul\":970:992   */\n              add\n                /* \"#utility.yul\":949:1002   */\n              tag_77\n              jump\t// in\n            tag_125:\n                /* \"#utility.yul\":939:1002   */\n              swap2\n              pop\n                /* \"#utility.yul\":895:1012   */\n              pop\n                /* \"#utility.yul\":690:1019   */\n              swap3\n              swap2\n              pop\n              pop\n              jump\t// out\n                /* \"#utility.yul\":1025:1124   */\n            tag_78:\n                /* \"#utility.yul\":1077:1083   */\n              0x00\n                /* \"#utility.yul\":1111:1116   */\n              dup2\n                /* \"#utility.yul\":1105:1117   */\n              mload\n                /* \"#utility.yul\":1095:1117   */\n              swap1\n              pop\n                /* \"#utility.yul\":1025:1124   */\n              swap2\n              swap1\n              pop\n              jump\t// out\n                /* \"#utility.yul\":1130:1299   */\n            tag_79:\n                /* \"#utility.yul\":1214:1225   */\n              0x00\n                /* \"#utility.yul\":1248:1254   */\n              dup3\n                /* \"#utility.yul\":1243:1246   */\n              dup3\n                /* \"#utility.yul\":1236:1255   */\n              mstore\n                /* \"#utility.yul\":1288:1292   */\n              0x20\n                /* \"#utility.yul\":1283:1286   */\n              dup3\n                /* \"#utility.yul\":1279:1293   */\n              add\n                /* \"#utility.yul\":1264:1293   */\n              swap1\n              pop\n                /* \"#utility.yul\":1130:1299   */\n              swap3\n              swap2\n              pop\n              pop\n              jump\t// out\n                /* \"#utility.yul\":1305:1444   */\n            tag_80:\n                /* \"#utility.yul\":1394:1400   */\n              dup3\n                /* \"#utility.yul\":1389:1392   */\n              dup2\n                /* \"#utility.yul\":1384:1387   */\n              dup4\n                /* \"#utility.yul\":1378:1401   */\n              mcopy\n                /* \"#utility.yul\":1435:1436   */\n              0x00\n                /* \"#utility.yul\":1426:1432   */\n              dup4\n                /* \"#utility.yul\":1421:1424   */\n              dup4\n                /* \"#utility.yul\":1417:1433   */\n              add\n                /* \"#utility.yul\":1410:1437   */\n              mstore\n                /* \"#utility.yul\":1305:1444   */\n              pop\n              pop\n              pop\n              jump\t// out\n                /* \"#utility.yul\":1450:1552   */\n            tag_81:\n                /* \"#utility.yul\":1491:1497   */\n              0x00\n                /* \"#utility.yul\":1542:1544   */\n              0x1f\n                /* \"#utility.yul\":1538:1545   */\n              not\n                /* \"#utility.yul\":1533:1535   */\n              0x1f\n                /* \"#utility.yul\":1526:1531   */\n              dup4\n                /* \"#utility.yul\":1522:1536   */\n              add\n                /* \"#utility.yul\":1518:1546   */\n              and\n                /* \"#utility.yul\":1508:1546   */\n              swap1\n              pop\n                /* \"#utility.yul\":1450:1552   */\n              swap2\n              swap1\n              pop\n              jump\t// out\n                /* \"#utility.yul\":1558:1935   */\n            tag_82:\n                /* \"#utility.yul\":1646:1649   */\n              0x00\n                /* \"#utility.yul\":1674:1713   */\n              tag_131\n                /* \"#utility.yul\":1707:1712   */\n              dup3\n                /* \"#utility.yul\":1674:1713   */\n              tag_78\n              jump\t// in\n            tag_131:\n                /* \"#utility.yul\":1729:1800   */\n              tag_132\n                /* \"#utility.yul\":1793:1799   */\n              dup2\n                /* \"#utility.yul\":1788:1791   */\n              dup6\n                /* \"#utility.yul\":1729:1800   */\n              tag_79\n              jump\t// in\n            tag_132:\n                /* \"#utility.yul\":1722:1800   */\n              swap4\n              pop\n                /* \"#utility.yul\":1809:1874   */\n              tag_133\n                /* \"#utility.yul\":1867:1873   */\n              dup2\n                /* \"#utility.yul\":1862:1865   */\n              dup6\n                /* \"#utility.yul\":1855:1859   */\n              0x20\n                /* \"#utility.yul\":1848:1853   */\n              dup7\n                /* \"#utility.yul\":1844:1860   */\n              add\n                /* \"#utility.yul\":1809:1874   */\n              tag_80\n              jump\t// in\n            tag_133:\n                /* \"#utility.yul\":1899:1928   */\n              tag_134\n                /* \"#utility.yul\":1921:1927   */\n              dup2\n                /* \"#utility.yul\":1899:1928   */\n              tag_81\n              jump\t// in\n            tag_134:\n                /* \"#utility.yul\":1894:1897   */\n              dup5\n                /* \"#utility.yul\":1890:1929   */\n              add\n                /* \"#utility.yul\":1883:1929   */\n              swap2\n              pop\n                /* \"#utility.yul\":1650:1935   */\n              pop\n                /* \"#utility.yul\":1558:1935   */\n              swap3\n              swap2\n              pop\n              pop\n              jump\t// out\n                /* \"#utility.yul\":1941:2254   */\n            tag_17:\n                /* \"#utility.yul\":2054:2058   */\n              0x00\n                /* \"#utility.yul\":2092:2094   */\n              0x20\n                /* \"#utility.yul\":2081:2090   */\n              dup3\n                /* \"#utility.yul\":2077:2095   */\n              add\n                /* \"#utility.yul\":2069:2095   */\n              swap1\n              pop\n                /* \"#utility.yul\":2141:2150   */\n              dup2\n                /* \"#utility.yul\":2135:2139   */\n              dup2\n                /* \"#utility.yul\":2131:2151   */\n              sub\n                /* \"#utility.yul\":2127:2128   */\n              0x00\n                /* \"#utility.yul\":2116:2125   */\n              dup4\n                /* \"#utility.yul\":2112:2129   */\n              add\n                /* \"#utility.yul\":2105:2152   */\n              mstore\n                /* \"#utility.yul\":2169:2247   */\n              tag_136\n                /* \"#utility.yul\":2242:2246   */\n              dup2\n                /* \"#utility.yul\":2233:2239   */\n              dup5\n                /* \"#utility.yul\":2169:2247   */\n              tag_82\n              jump\t// in\n            tag_136:\n                /* \"#utility.yul\":2161:2247   */\n              swap1\n              pop\n                /* \"#utility.yul\":1941:2254   */\n              swap3\n              swap2\n              pop\n              pop\n              jump\t// out\n                /* \"#utility.yul\":2260:2378   */\n            tag_83:\n                /* \"#utility.yul\":2347:2371   */\n              tag_138\n                /* \"#utility.yul\":2365:2370   */\n              dup2\n                /* \"#utility.yul\":2347:2371   */\n              tag_75\n              jump\t// in\n            tag_138:\n                /* \"#utility.yul\":2342:2345   */\n              dup3\n                /* \"#utility.yul\":2335:2372   */\n              mstore\n                /* \"#utility.yul\":2260:2378   */\n              pop\n              pop\n              jump\t// out\n                /* \"#utility.yul\":2384:2606   */\n            tag_21:\n                /* \"#utility.yul\":2477:2481   */\n              0x00\n                /* \"#utility.yul\":2515:2517   */\n              0x20\n                /* \"#utility.yul\":2504:2513   */\n              dup3\n                /* \"#utility.yul\":2500:2518   */\n              add\n                /* \"#utility.yul\":2492:2518   */\n              swap1\n              pop\n                /* \"#utility.yul\":2528:2599   */\n              tag_140\n                /* \"#utility.yul\":2596:2597   */\n              0x00\n                /* \"#utility.yul\":2585:2594   */\n              dup4\n                /* \"#utility.yul\":2581:2598   */\n              add\n                /* \"#utility.yul\":2572:2578   */\n              dup5\n                /* \"#utility.yul\":2528:2599   */\n              tag_83\n              jump\t// in\n            tag_140:\n                /* \"#utility.yul\":2384:2606   */\n              swap3\n              swap2\n              pop\n              pop\n              jump\t// out\n                /* \"#utility.yul\":2612:2729   */\n            tag_84:\n                /* \"#utility.yul\":2721:2722   */\n              0x00\n                /* \"#utility.yul\":2718:2719   */\n              dup1\n                /* \"#utility.yul\":2711:2723   */\n              revert\n                /* \"#utility.yul\":2735:2852   */\n            tag_85:\n                /* \"#utility.yul\":2844:2845   */\n              0x00\n                /* \"#utility.yul\":2841:2842   */\n              dup1\n                /* \"#utility.yul\":2834:2846   */\n              revert\n                /* \"#utility.yul\":2858:3038   */\n            tag_86:\n                /* \"#utility.yul\":2906:2983   */\n              0x4e487b7100000000000000000000000000000000000000000000000000000000\n                /* \"#utility.yul\":2903:2904   */\n              0x00\n                /* \"#utility.yul\":2896:2984   */\n              mstore\n                /* \"#utility.yul\":3003:3007   */\n              0x41\n                /* \"#utility.yul\":3000:3001   */\n              0x04\n                /* \"#utility.yul\":2993:3008   */\n              mstore\n                /* \"#utility.yul\":3027:3031   */\n              0x24\n                /* \"#utility.yul\":3024:3025   */\n              0x00\n                /* \"#utility.yul\":3017:3032   */\n              revert\n                /* \"#utility.yul\":3044:3325   */\n            tag_87:\n                /* \"#utility.yul\":3127:3154   */\n              tag_145\n                /* \"#utility.yul\":3149:3153   */\n              dup3\n                /* \"#utility.yul\":3127:3154   */\n              tag_81\n              jump\t// in\n            tag_145:\n                /* \"#utility.yul\":3119:3125   */\n              dup2\n                /* \"#utility.yul\":3115:3155   */\n              add\n                /* \"#utility.yul\":3257:3263   */\n              dup2\n                /* \"#utility.yul\":3245:3255   */\n              dup2\n                /* \"#utility.yul\":3242:3264   */\n              lt\n                /* \"#utility.yul\":3221:3239   */\n              0xffffffffffffffff\n                /* \"#utility.yul\":3209:3219   */\n              dup3\n                /* \"#utility.yul\":3206:3240   */\n              gt\n                /* \"#utility.yul\":3203:3265   */\n              or\n                /* \"#utility.yul\":3200:3288   */\n              iszero\n              tag_146\n              jumpi\n                /* \"#utility.yul\":3268:3286   */\n              tag_147\n              tag_86\n              jump\t// in\n            tag_147:\n                /* \"#utility.yul\":3200:3288   */\n            tag_146:\n                /* \"#utility.yul\":3308:3318   */\n              dup1\n                /* \"#utility.yul\":3304:3306   */\n              0x40\n                /* \"#utility.yul\":3297:3319   */\n              mstore\n                /* \"#utility.yul\":3087:3325   */\n              pop\n                /* \"#utility.yul\":3044:3325   */\n              pop\n              pop\n              jump\t// out\n                /* \"#utility.yul\":3331:3460   */\n            tag_88:\n                /* \"#utility.yul\":3365:3371   */\n              0x00\n                /* \"#utility.yul\":3392:3412   */\n              tag_149\n              tag_72\n              jump\t// in\n            tag_149:\n                /* \"#utility.yul\":3382:3412   */\n              swap1\n              pop\n                /* \"#utility.yul\":3421:3454   */\n              tag_150\n                /* \"#utility.yul\":3449:3453   */\n              dup3\n                /* \"#utility.yul\":3441:3447   */\n              dup3\n                /* \"#utility.yul\":3421:3454   */\n              tag_87\n              jump\t// in\n            tag_150:\n                /* \"#utility.yul\":3331:3460   */\n              swap2\n              swap1\n              pop\n              jump\t// out\n                /* \"#utility.yul\":3466:3774   */\n            tag_89:\n                /* \"#utility.yul\":3528:3532   */\n              0x00\n                /* \"#utility.yul\":3618:3636   */\n              0xffffffffffffffff\n                /* \"#utility.yul\":3610:3616   */\n              dup3\n                /* \"#utility.yul\":3607:3637   */\n              gt\n                /* \"#utility.yul\":3604:3660   */\n              iszero\n              tag_152\n              jumpi\n                /* \"#utility.yul\":3640:3658   */\n              tag_153\n              tag_86\n              jump\t// in\n            tag_153:\n                /* \"#utility.yul\":3604:3660   */\n            tag_152:\n                /* \"#utility.yul\":3678:3707   */\n              tag_154\n                /* \"#utility.yul\":3700:3706   */\n              dup3\n                /* \"#utility.yul\":3678:3707   */\n              tag_81\n              jump\t// in\n            tag_154:\n                /* \"#utility.yul\":3670:3707   */\n              swap1\n              pop\n                /* \"#utility.yul\":3762:3766   */\n              0x20\n                /* \"#utility.yul\":3756:3760   */\n              dup2\n                /* \"#utility.yul\":3752:3767   */\n              add\n                /* \"#utility.yul\":3744:3767   */\n              swap1\n              pop\n                /* \"#utility.yul\":3466:3774   */\n              swap2\n              swap1\n              pop\n              jump\t// out\n                /* \"#utility.yul\":3780:3928   */\n            tag_90:\n                /* \"#utility.yul\":3878:3884   */\n              dup3\n                /* \"#utility.yul\":3873:3876   */\n              dup2\n                /* \"#utility.yul\":3868:3871   */\n              dup4\n                /* \"#utility.yul\":3855:3885   */\n              calldatacopy\n                /* \"#utility.yul\":3919:3920   */\n              0x00\n                /* \"#utility.yul\":3910:3916   */\n              dup4\n                /* \"#utility.yul\":3905:3908   */\n              dup4\n                /* \"#utility.yul\":3901:3917   */\n              add\n                /* \"#utility.yul\":3894:3921   */\n              mstore\n                /* \"#utility.yul\":3780:3928   */\n              pop\n              pop\n              pop\n              jump\t// out\n                /* \"#utility.yul\":3934:4359   */\n            tag_91:\n                /* \"#utility.yul\":4012:4017   */\n              0x00\n                /* \"#utility.yul\":4037:4103   */\n              tag_157\n                /* \"#utility.yul\":4053:4102   */\n              tag_158\n                /* \"#utility.yul\":4095:4101   */\n              dup5\n                /* \"#utility.yul\":4053:4102   */\n              tag_89\n              jump\t// in\n            tag_158:\n                /* \"#utility.yul\":4037:4103   */\n              tag_88\n              jump\t// in\n            tag_157:\n                /* \"#utility.yul\":4028:4103   */\n              swap1\n              pop\n                /* \"#utility.yul\":4126:4132   */\n              dup3\n                /* \"#utility.yul\":4119:4124   */\n              dup2\n                /* \"#utility.yul\":4112:4133   */\n              mstore\n                /* \"#utility.yul\":4164:4168   */\n              0x20\n                /* \"#utility.yul\":4157:4162   */\n              dup2\n                /* \"#utility.yul\":4153:4169   */\n              add\n                /* \"#utility.yul\":4202:4205   */\n              dup5\n                /* \"#utility.yul\":4193:4199   */\n              dup5\n                /* \"#utility.yul\":4188:4191   */\n              dup5\n                /* \"#utility.yul\":4184:4200   */\n              add\n                /* \"#utility.yul\":4181:4206   */\n              gt\n                /* \"#utility.yul\":4178:4290   */\n              iszero\n              tag_159\n              jumpi\n                /* \"#utility.yul\":4209:4288   */\n              tag_160\n              tag_85\n              jump\t// in\n            tag_160:\n                /* \"#utility.yul\":4178:4290   */\n            tag_159:\n                /* \"#utility.yul\":4299:4353   */\n              tag_161\n                /* \"#utility.yul\":4346:4352   */\n              dup5\n                /* \"#utility.yul\":4341:4344   */\n              dup3\n                /* \"#utility.yul\":4336:4339   */\n              dup6\n                /* \"#utility.yul\":4299:4353   */\n              tag_90\n              jump\t// in\n            tag_161:\n                /* \"#utility.yul\":4018:4359   */\n              pop\n                /* \"#utility.yul\":3934:4359   */\n              swap4\n              swap3\n              pop\n              pop\n              pop\n              jump\t// out\n                /* \"#utility.yul\":4379:4719   */\n            tag_92:\n                /* \"#utility.yul\":4435:4440   */\n              0x00\n                /* \"#utility.yul\":4484:4487   */\n              dup3\n                /* \"#utility.yul\":4477:4481   */\n              0x1f\n                /* \"#utility.yul\":4469:4475   */\n              dup4\n                /* \"#utility.yul\":4465:4482   */\n              add\n                /* \"#utility.yul\":4461:4488   */\n              slt\n                /* \"#utility.yul\":4451:4573   */\n              tag_163\n              jumpi\n                /* \"#utility.yul\":4492:4571   */\n              tag_164\n              tag_84\n              jump\t// in\n            tag_164:\n                /* \"#utility.yul\":4451:4573   */\n            tag_163:\n                /* \"#utility.yul\":4609:4615   */\n              dup2\n                /* \"#utility.yul\":4596:4616   */\n              calldataload\n                /* \"#utility.yul\":4634:4713   */\n              tag_165\n                /* \"#utility.yul\":4709:4712   */\n              dup5\n                /* \"#utility.yul\":4701:4707   */\n              dup3\n                /* \"#utility.yul\":4694:4698   */\n              0x20\n                /* \"#utility.yul\":4686:4692   */\n              dup7\n                /* \"#utility.yul\":4682:4699   */\n              add\n                /* \"#utility.yul\":4634:4713   */\n              tag_91\n              jump\t// in\n            tag_165:\n                /* \"#utility.yul\":4625:4713   */\n              swap2\n              pop\n                /* \"#utility.yul\":4441:4719   */\n              pop\n                /* \"#utility.yul\":4379:4719   */\n              swap3\n              swap2\n              pop\n              pop\n              jump\t// out\n                /* \"#utility.yul\":4725:5234   */\n            tag_24:\n                /* \"#utility.yul\":4794:4800   */\n              0x00\n                /* \"#utility.yul\":4843:4845   */\n              0x20\n                /* \"#utility.yul\":4831:4840   */\n              dup3\n                /* \"#utility.yul\":4822:4829   */\n              dup5\n                /* \"#utility.yul\":4818:4841   */\n              sub\n                /* \"#utility.yul\":4814:4846   */\n              slt\n                /* \"#utility.yul\":4811:4930   */\n              iszero\n              tag_167\n              jumpi\n                /* \"#utility.yul\":4849:4928   */\n              tag_168\n              tag_73\n              jump\t// in\n            tag_168:\n                /* \"#utility.yul\":4811:4930   */\n            tag_167:\n                /* \"#utility.yul\":4997:4998   */\n              0x00\n                /* \"#utility.yul\":4986:4995   */\n              dup3\n                /* \"#utility.yul\":4982:4999   */\n              add\n                /* \"#utility.yul\":4969:5000   */\n              calldataload\n                /* \"#utility.yul\":5027:5045   */\n              0xffffffffffffffff\n                /* \"#utility.yul\":5019:5025   */\n              dup2\n                /* \"#utility.yul\":5016:5046   */\n              gt\n                /* \"#utility.yul\":5013:5130   */\n              iszero\n              tag_169\n              jumpi\n                /* \"#utility.yul\":5049:5128   */\n              tag_170\n              tag_74\n              jump\t// in\n            tag_170:\n                /* \"#utility.yul\":5013:5130   */\n            tag_169:\n                /* \"#utility.yul\":5154:5217   */\n              tag_171\n                /* \"#utility.yul\":5209:5216   */\n              dup5\n                /* \"#utility.yul\":5200:5206   */\n              dup3\n                /* \"#utility.yul\":5189:5198   */\n              dup6\n                /* \"#utility.yul\":5185:5207   */\n              add\n                /* \"#utility.yul\":5154:5217   */\n              tag_92\n              jump\t// in\n            tag_171:\n                /* \"#utility.yul\":5144:5217   */\n              swap2\n              pop\n                /* \"#utility.yul\":4940:5227   */\n              pop\n                /* \"#utility.yul\":4725:5234   */\n              swap3\n              swap2\n              pop\n              pop\n              jump\t// out\n                /* \"#utility.yul\":5240:5663   */\n            tag_40:\n                /* \"#utility.yul\":5381:5385   */\n              0x00\n                /* \"#utility.yul\":5419:5421   */\n              0x40\n                /* \"#utility.yul\":5408:5417   */\n              dup3\n                /* \"#utility.yul\":5404:5422   */\n              add\n                /* \"#utility.yul\":5396:5422   */\n              swap1\n              pop\n                /* \"#utility.yul\":5432:5503   */\n              tag_173\n                /* \"#utility.yul\":5500:5501   */\n              0x00\n                /* \"#utility.yul\":5489:5498   */\n              dup4\n                /* \"#utility.yul\":5485:5502   */\n              add\n                /* \"#utility.yul\":5476:5482   */\n              dup6\n                /* \"#utility.yul\":5432:5503   */\n              tag_83\n              jump\t// in\n            tag_173:\n                /* \"#utility.yul\":5550:5559   */\n              dup2\n                /* \"#utility.yul\":5544:5548   */\n              dup2\n                /* \"#utility.yul\":5540:5560   */\n              sub\n                /* \"#utility.yul\":5535:5537   */\n              0x20\n                /* \"#utility.yul\":5524:5533   */\n              dup4\n                /* \"#utility.yul\":5520:5538   */\n              add\n                /* \"#utility.yul\":5513:5561   */\n              mstore\n                /* \"#utility.yul\":5578:5656   */\n              tag_174\n                /* \"#utility.yul\":5651:5655   */\n              dup2\n                /* \"#utility.yul\":5642:5648   */\n              dup5\n                /* \"#utility.yul\":5578:5656   */\n              tag_82\n              jump\t// in\n            tag_174:\n                /* \"#utility.yul\":5570:5656   */\n              swap1\n              pop\n                /* \"#utility.yul\":5240:5663   */\n              swap4\n              swap3\n              pop\n              pop\n              pop\n              jump\t// out\n                /* \"#utility.yul\":5669:6323   */\n            tag_43:\n                /* \"#utility.yul\":5747:5753   */\n              0x00\n                /* \"#utility.yul\":5755:5761   */\n              dup1\n                /* \"#utility.yul\":5804:5806   */\n              0x40\n                /* \"#utility.yul\":5792:5801   */\n              dup4\n                /* \"#utility.yul\":5783:5790   */\n              dup6\n                /* \"#utility.yul\":5779:5802   */\n              sub\n                /* \"#utility.yul\":5775:5807   */\n              slt\n                /* \"#utility.yul\":5772:5891   */\n              iszero\n              tag_176\n              jumpi\n                /* \"#utility.yul\":5810:5889   */\n              tag_177\n              tag_73\n              jump\t// in\n            tag_177:\n                /* \"#utility.yul\":5772:5891   */\n            tag_176:\n                /* \"#utility.yul\":5930:5931   */\n              0x00\n                /* \"#utility.yul\":5955:6008   */\n              tag_178\n                /* \"#utility.yul\":6000:6007   */\n              dup6\n                /* \"#utility.yul\":5991:5997   */\n              dup3\n                /* \"#utility.yul\":5980:5989   */\n              dup7\n                /* \"#utility.yul\":5976:5998   */\n              add\n                /* \"#utility.yul\":5955:6008   */\n              tag_77\n              jump\t// in\n            tag_178:\n                /* \"#utility.yul\":5945:6008   */\n              swap3\n              pop\n                /* \"#utility.yul\":5901:6018   */\n              pop\n                /* \"#utility.yul\":6085:6087   */\n              0x20\n                /* \"#utility.yul\":6074:6083   */\n              dup4\n                /* \"#utility.yul\":6070:6088   */\n              add\n                /* \"#utility.yul\":6057:6089   */\n              calldataload\n                /* \"#utility.yul\":6116:6134   */\n              0xffffffffffffffff\n                /* \"#utility.yul\":6108:6114   */\n              dup2\n                /* \"#utility.yul\":6105:6135   */\n              gt\n                /* \"#utility.yul\":6102:6219   */\n              iszero\n              tag_179\n              jumpi\n                /* \"#utility.yul\":6138:6217   */\n              tag_180\n              tag_74\n              jump\t// in\n            tag_180:\n                /* \"#utility.yul\":6102:6219   */\n            tag_179:\n                /* \"#utility.yul\":6243:6306   */\n              tag_181\n                /* \"#utility.yul\":6298:6305   */\n              dup6\n                /* \"#utility.yul\":6289:6295   */\n              dup3\n                /* \"#utility.yul\":6278:6287   */\n              dup7\n                /* \"#utility.yul\":6274:6296   */\n              add\n                /* \"#utility.yul\":6243:6306   */\n              tag_92\n              jump\t// in\n            tag_181:\n                /* \"#utility.yul\":6233:6306   */\n              swap2\n              pop\n                /* \"#utility.yul\":6028:6316   */\n              pop\n                /* \"#utility.yul\":5669:6323   */\n              swap3\n              pop\n              swap3\n              swap1\n              pop\n              jump\t// out\n                /* \"#utility.yul\":6329:6509   */\n            tag_93:\n                /* \"#utility.yul\":6377:6454   */\n              0x4e487b7100000000000000000000000000000000000000000000000000000000\n                /* \"#utility.yul\":6374:6375   */\n              0x00\n                /* \"#utility.yul\":6367:6455   */\n              mstore\n                /* \"#utility.yul\":6474:6478   */\n              0x22\n                /* \"#utility.yul\":6471:6472   */\n              0x04\n                /* \"#utility.yul\":6464:6479   */\n              mstore\n                /* \"#utility.yul\":6498:6502   */\n              0x24\n                /* \"#utility.yul\":6495:6496   */\n              0x00\n                /* \"#utility.yul\":6488:6503   */\n              revert\n                /* \"#utility.yul\":6515:6835   */\n            tag_46:\n                /* \"#utility.yul\":6559:6565   */\n              0x00\n                /* \"#utility.yul\":6596:6597   */\n              0x02\n                /* \"#utility.yul\":6590:6594   */\n              dup3\n                /* \"#utility.yul\":6586:6598   */\n              div\n                /* \"#utility.yul\":6576:6598   */\n              swap1\n              pop\n                /* \"#utility.yul\":6643:6644   */\n              0x01\n                /* \"#utility.yul\":6637:6641   */\n              dup3\n                /* \"#utility.yul\":6633:6645   */\n              and\n                /* \"#utility.yul\":6664:6682   */\n              dup1\n                /* \"#utility.yul\":6654:6735   */\n              tag_184\n              jumpi\n                /* \"#utility.yul\":6720:6724   */\n              0x7f\n                /* \"#utility.yul\":6712:6718   */\n              dup3\n                /* \"#utility.yul\":6708:6725   */\n              and\n                /* \"#utility.yul\":6698:6725   */\n              swap2\n              pop\n                /* \"#utility.yul\":6654:6735   */\n            tag_184:\n                /* \"#utility.yul\":6782:6784   */\n              0x20\n                /* \"#utility.yul\":6774:6780   */\n              dup3\n                /* \"#utility.yul\":6771:6785   */\n              lt\n                /* \"#utility.yul\":6751:6769   */\n              dup2\n                /* \"#utility.yul\":6748:6786   */\n              sub\n                /* \"#utility.yul\":6745:6829   */\n              tag_185\n              jumpi\n                /* \"#utility.yul\":6801:6819   */\n              tag_186\n              tag_93\n              jump\t// in\n            tag_186:\n                /* \"#utility.yul\":6745:6829   */\n            tag_185:\n                /* \"#utility.yul\":6566:6835   */\n              pop\n                /* \"#utility.yul\":6515:6835   */\n              swap2\n              swap1\n              pop\n              jump\t// out\n                /* \"#utility.yul\":6841:7021   */\n            tag_94:\n                /* \"#utility.yul\":6889:6966   */\n              0x4e487b7100000000000000000000000000000000000000000000000000000000\n                /* \"#utility.yul\":6886:6887   */\n              0x00\n                /* \"#utility.yul\":6879:6967   */\n              mstore\n                /* \"#utility.yul\":6986:6990   */\n              0x11\n                /* \"#utility.yul\":6983:6984   */\n              0x04\n                /* \"#utility.yul\":6976:6991   */\n              mstore\n                /* \"#utility.yul\":7010:7014   */\n              0x24\n                /* \"#utility.yul\":7007:7008   */\n              0x00\n                /* \"#utility.yul\":7000:7015   */\n              revert\n                /* \"#utility.yul\":7027:7218   */\n            tag_54:\n                /* \"#utility.yul\":7067:7070   */\n              0x00\n                /* \"#utility.yul\":7086:7106   */\n              tag_189\n                /* \"#utility.yul\":7104:7105   */\n              dup3\n                /* \"#utility.yul\":7086:7106   */\n              tag_75\n              jump\t// in\n            tag_189:\n                /* \"#utility.yul\":7081:7106   */\n              swap2\n              pop\n                /* \"#utility.yul\":7120:7140   */\n              tag_190\n                /* \"#utility.yul\":7138:7139   */\n              dup4\n                /* \"#utility.yul\":7120:7140   */\n              tag_75\n              jump\t// in\n            tag_190:\n                /* \"#utility.yul\":7115:7140   */\n              swap3\n              pop\n                /* \"#utility.yul\":7163:7164   */\n              dup3\n                /* \"#utility.yul\":7160:7161   */\n              dup3\n                /* \"#utility.yul\":7156:7165   */\n              add\n                /* \"#utility.yul\":7149:7165   */\n              swap1\n              pop\n                /* \"#utility.yul\":7184:7187   */\n              dup1\n                /* \"#utility.yul\":7181:7182   */\n              dup3\n                /* \"#utility.yul\":7178:7188   */\n              gt\n                /* \"#utility.yul\":7175:7211   */\n              iszero\n              tag_191\n              jumpi\n                /* \"#utility.yul\":7191:7209   */\n              tag_192\n              tag_94\n              jump\t// in\n            tag_192:\n                /* \"#utility.yul\":7175:7211   */\n            tag_191:\n                /* \"#utility.yul\":7027:7218   */\n              swap3\n              swap2\n              pop\n              pop\n              jump\t// out\n                /* \"#utility.yul\":7224:7365   */\n            tag_95:\n                /* \"#utility.yul\":7273:7277   */\n              0x00\n                /* \"#utility.yul\":7296:7299   */\n              dup2\n                /* \"#utility.yul\":7288:7299   */\n              swap1\n              pop\n                /* \"#utility.yul\":7319:7322   */\n              dup2\n                /* \"#utility.yul\":7316:7317   */\n              0x00\n                /* \"#utility.yul\":7309:7323   */\n              mstore\n                /* \"#utility.yul\":7353:7357   */\n              0x20\n                /* \"#utility.yul\":7350:7351   */\n              0x00\n                /* \"#utility.yul\":7340:7358   */\n              keccak256\n                /* \"#utility.yul\":7332:7358   */\n              swap1\n              pop\n                /* \"#utility.yul\":7224:7365   */\n              swap2\n              swap1\n              pop\n              jump\t// out\n                /* \"#utility.yul\":7371:7464   */\n            tag_96:\n                /* \"#utility.yul\":7408:7414   */\n              0x00\n                /* \"#utility.yul\":7455:7457   */\n              0x20\n                /* \"#utility.yul\":7450:7452   */\n              0x1f\n                /* \"#utility.yul\":7443:7448   */\n              dup4\n                /* \"#utility.yul\":7439:7453   */\n              add\n                /* \"#utility.yul\":7435:7458   */\n              div\n                /* \"#utility.yul\":7425:7458   */\n              swap1\n              pop\n                /* \"#utility.yul\":7371:7464   */\n              swap2\n              swap1\n              pop\n              jump\t// out\n                /* \"#utility.yul\":7470:7577   */\n            tag_97:\n                /* \"#utility.yul\":7514:7522   */\n              0x00\n                /* \"#utility.yul\":7564:7569   */\n              dup3\n                /* \"#utility.yul\":7558:7562   */\n              dup3\n                /* \"#utility.yul\":7554:7570   */\n              shl\n                /* \"#utility.yul\":7533:7570   */\n              swap1\n              pop\n                /* \"#utility.yul\":7470:7577   */\n              swap3\n              swap2\n              pop\n              pop\n              jump\t// out\n                /* \"#utility.yul\":7583:7976   */\n            tag_98:\n                /* \"#utility.yul\":7652:7658   */\n              0x00\n                /* \"#utility.yul\":7702:7703   */\n              0x08\n                /* \"#utility.yul\":7690:7700   */\n              dup4\n                /* \"#utility.yul\":7686:7704   */\n              mul\n                /* \"#utility.yul\":7725:7822   */\n              tag_197\n                /* \"#utility.yul\":7755:7821   */\n              0xffffffffffffffffffffffffffffffffffffffffffffffffffffffffffffffff\n                /* \"#utility.yul\":7744:7753   */\n              dup3\n                /* \"#utility.yul\":7725:7822   */\n              tag_97\n              jump\t// in\n            tag_197:\n                /* \"#utility.yul\":7843:7882   */\n              tag_198\n                /* \"#utility.yul\":7873:7881   */\n              dup7\n                /* \"#utility.yul\":7862:7871   */\n              dup4\n                /* \"#utility.yul\":7843:7882   */\n              tag_97\n              jump\t// in\n            tag_198:\n                /* \"#utility.yul\":7831:7882   */\n              swap6\n              pop\n                /* \"#utility.yul\":7915:7919   */\n              dup1\n                /* \"#utility.yul\":7911:7920   */\n              not\n                /* \"#utility.yul\":7904:7909   */\n              dup5\n                /* \"#utility.yul\":7900:7921   */\n              and\n                /* \"#utility.yul\":7891:7921   */\n              swap4\n              pop\n                /* \"#utility.yul\":7964:7968   */\n              dup1\n                /* \"#utility.yul\":7954:7962   */\n              dup7\n                /* \"#utility.yul\":7950:7969   */\n              and\n                /* \"#utility.yul\":7943:7948   */\n              dup5\n                /* \"#utility.yul\":7940:7970   */\n              or\n                /* \"#utility.yul\":7930:7970   */\n              swap3\n              pop\n                /* \"#utility.yul\":7659:7976   */\n              pop\n              pop\n                /* \"#utility.yul\":7583:7976   */\n              swap4\n              swap3\n              pop\n              pop\n              pop\n              jump\t// out\n                /* \"#utility.yul\":7982:8042   */\n            tag_99:\n                /* \"#utility.yul\":8010:8013   */\n              0x00\n                /* \"#utility.yul\":8031:8036   */\n              dup2\n                /* \"#utility.yul\":8024:8036   */\n              swap1\n              pop\n                /* \"#utility.yul\":7982:8042   */\n              swap2\n              swap1\n              pop\n              jump\t// out\n                /* \"#utility.yul\":8048:8190   */\n            tag_100:\n                /* \"#utility.yul\":8098:8107   */\n              0x00\n                /* \"#utility.yul\":8131:8184   */\n              tag_201\n                /* \"#utility.yul\":8149:8183   */\n              tag_202\n                /* \"#utility.yul\":8158:8182   */\n              tag_203\n                /* \"#utility.yul\":8176:8181   */\n              dup5\n                /* \"#utility.yul\":8158:8182   */\n              tag_75\n              jump\t// in\n            tag_203:\n                /* \"#utility.yul\":8149:8183   */\n              tag_99\n              jump\t// in\n            tag_202:\n                /* \"#utility.yul\":8131:8184   */\n              tag_75\n              jump\t// in\n            tag_201:\n                /* \"#utility.yul\":8118:8184   */\n              swap1\n              pop\n                /* \"#utility.yul\":8048:8190   */\n              swap2\n              swap1\n              pop\n              jump\t// out\n                /* \"#utility.yul\":8196:8271   */\n            tag_101:\n                /* \"#utility.yul\":8239:8242   */\n              0x00\n                /* \"#utility.yul\":8260:8265   */\n              dup2\n                /* \"#utility.yul\":8253:8265   */\n              swap1\n              pop\n                /* \"#utility.yul\":8196:8271   */\n              swap2\n              swap1\n              pop\n              jump\t// out\n                /* \"#utility.yul\":8277:8546   */\n            tag_102:\n                /* \"#utility.yul\":8387:8426   */\n              tag_206\n                /* \"#utility.yul\":8418:8425   */\n              dup4\n                /* \"#utility.yul\":8387:8426   */\n              tag_100\n              jump\t// in\n            tag_206:\n                /* \"#utility.yul\":8448:8539   */\n              tag_207\n                /* \"#utility.yul\":8497:8538   */\n              tag_208\n                /* \"#utility.yul\":8521:8537   */\n              dup3\n                /* \"#utility.yul\":8497:8538   */\n              tag_101\n              jump\t// in\n            tag_208:\n                /* \"#utility.yul\":8489:8495   */\n              dup5\n                /* \"#utility.yul\":8482:8486   */\n              dup5\n                /* \"#utility.yul\":8476:8487   */\n              sload\n                /* \"#utility.yul\":8448:8539   */\n              tag_98\n              jump\t// in\n            tag_207:\n                /* \"#utility.yul\":8442:8446   */\n              dup3\n                /* \"#utility.yul\":8435:8540   */\n              sstore\n                /* \"#utility.yul\":8353:8546   */\n              pop\n                /* \"#utility.yul\":8277:8546   */\n              pop\n              pop\n              pop\n              jump\t// out\n                /* \"#utility.yul\":8552:8625   */\n            tag_103:\n                /* \"#utility.yul\":8597:8600   */\n              0x00\n                /* \"#utility.yul\":8552:8625   */\n              swap1\n              jump\t// out\n                /* \"#utility.yul\":8631:8820   */\n            tag_104:\n                /* \"#utility.yul\":8708:8740   */\n              tag_211\n              tag_103\n              jump\t// in\n            tag_211:\n                /* \"#utility.yul\":8749:8814   */\n              tag_212\n                /* \"#utility.yul\":8807:8813   */\n              dup2\n                /* \"#utility.yul\":8799:8805   */\n              dup5\n                /* \"#utility.yul\":8793:8797   */\n              dup5\n                /* \"#utility.yul\":8749:8814   */\n              tag_102\n              jump\t// in\n            tag_212:\n                /* \"#utility.yul\":8684:8820   */\n              pop\n                /* \"#utility.yul\":8631:8820   */\n              pop\n              pop\n              jump\t// out\n                /* \"#utility.yul\":8826:9012   */\n            tag_105:\n                /* \"#utility.yul\":8886:9006   */\n            tag_214:\n                /* \"#utility.yul\":8903:8906   */\n              dup2\n                /* \"#utility.yul\":8896:8901   */\n              dup2\n                /* \"#utility.yul\":8893:8907   */\n              lt\n                /* \"#utility.yul\":8886:9006   */\n              iszero\n              tag_216\n              jumpi\n                /* \"#utility.yul\":8957:8996   */\n              tag_217\n                /* \"#utility.yul\":8994:8995   */\n              0x00\n                /* \"#utility.yul\":8987:8992   */\n              dup3\n                /* \"#utility.yul\":8957:8996   */\n              tag_104\n              jump\t// in\n            tag_217:\n                /* \"#utility.yul\":8930:8931   */\n              0x01\n                /* \"#utility.yul\":8923:8928   */\n              dup2\n                /* \"#utility.yul\":8919:8932   */\n              add\n                /* \"#utility.yul\":8910:8932   */\n              swap1\n              pop\n                /* \"#utility.yul\":8886:9006   */\n              jump(tag_214)\n            tag_216:\n                /* \"#utility.yul\":8826:9012   */\n              pop\n              pop\n              jump\t// out\n                /* \"#utility.yul\":9018:9561   */\n            tag_106:\n                /* \"#utility.yul\":9119:9121   */\n              0x1f\n                /* \"#utility.yul\":9114:9117   */\n              dup3\n                /* \"#utility.yul\":9111:9122   */\n              gt\n                /* \"#utility.yul\":9108:9554   */\n              iszero\n              tag_219\n              jumpi\n                /* \"#utility.yul\":9153:9191   */\n              tag_220\n                /* \"#utility.yul\":9185:9190   */\n              dup2\n                /* \"#utility.yul\":9153:9191   */\n              tag_95\n              jump\t// in\n            tag_220:\n                /* \"#utility.yul\":9237:9266   */\n              tag_221\n                /* \"#utility.yul\":9255:9265   */\n              dup5\n                /* \"#utility.yul\":9237:9266   */\n              tag_96\n              jump\t// in\n            tag_221:\n                /* \"#utility.yul\":9227:9235   */\n              dup2\n                /* \"#utility.yul\":9223:9267   */\n              add\n                /* \"#utility.yul\":9420:9422   */\n              0x20\n                /* \"#utility.yul\":9408:9418   */\n              dup6\n                /* \"#utility.yul\":9405:9423   */\n              lt\n                /* \"#utility.yul\":9402:9451   */\n              iszero\n              tag_222\n              jumpi\n                /* \"#utility.yul\":9441:9449   */\n              dup2\n                /* \"#utility.yul\":9426:9449   */\n              swap1\n              pop\n                /* \"#utility.yul\":9402:9451   */\n            tag_222:\n                /* \"#utility.yul\":9464:9544   */\n              tag_223\n                /* \"#utility.yul\":9520:9542   */\n              tag_224\n                /* \"#utility.yul\":9538:9541   */\n              dup6\n                /* \"#utility.yul\":9520:9542   */\n              tag_96\n              jump\t// in\n            tag_224:\n                /* \"#utility.yul\":9510:9518   */\n              dup4\n                /* \"#utility.yul\":9506:9543   */\n              add\n                /* \"#utility.yul\":9493:9504   */\n              dup3\n                /* \"#utility.yul\":9464:9544   */\n              tag_105\n              jump\t// in\n            tag_223:\n                /* \"#utility.yul\":9123:9554   */\n              pop\n              pop\n                /* \"#utility.yul\":9108:9554   */\n            tag_219:\n                /* \"#utility.yul\":9018:9561   */\n              pop\n              pop\n              pop\n              jump\t// out\n                /* \"#utility.yul\":9567:9684   */\n            tag_107:\n                /* \"#utility.yul\":9621:9629   */\n              0x00\n                /* \"#utility.yul\":9671:9676   */\n              dup3\n                /* \"#utility.yul\":9665:9669   */\n              dup3\n                /* \"#utility.yul\":9661:9677   */\n              shr\n                /* \"#utility.yul\":9640:9677   */\n              swap1\n              pop\n                /* \"#utility.yul\":9567:9684   */\n              swap3\n              swap2\n              pop\n              pop\n              jump\t// out\n                /* \"#utility.yul\":9690:9859   */\n            tag_108:\n                /* \"#utility.yul\":9734:9740   */\n              0x00\n                /* \"#utility.yul\":9767:9818   */\n              tag_227\n                /* \"#utility.yul\":9815:9816   */\n              0x00\n                /* \"#utility.yul\":9811:9817   */\n              not\n                /* \"#utility.yul\":9803:9808   */\n              dup5\n                /* \"#utility.yul\":9800:9801   */\n              0x08\n                /* \"#utility.yul\":9796:9809   */\n              mul\n                /* \"#utility.yul\":9767:9818   */\n              tag_107\n              jump\t// in\n            tag_227:\n                /* \"#utility.yul\":9763:9819   */\n              not\n                /* \"#utility.yul\":9848:9852   */\n              dup1\n                /* \"#utility.yul\":9842:9846   */\n              dup4\n                /* \"#utility.yul\":9838:9853   */\n              and\n                /* \"#utility.yul\":9828:9853   */\n              swap2\n              pop\n                /* \"#utility.yul\":9741:9859   */\n              pop\n                /* \"#utility.yul\":9690:9859   */\n              swap3\n              swap2\n              pop\n              pop\n              jump\t// out\n                /* \"#utility.yul\":9864:10159   */\n            tag_109:\n                /* \"#utility.yul\":9940:9944   */\n              0x00\n                /* \"#utility.yul\":10086:10115   */\n              tag_229\n                /* \"#utility.yul\":10111:10114   */\n              dup4\n                /* \"#utility.yul\":10105:10109   */\n              dup4\n                /* \"#utility.yul\":10086:10115   */\n              tag_108\n              jump\t// in\n            tag_229:\n                /* \"#utility.yul\":10078:10115   */\n              swap2\n              pop\n                /* \"#utility.yul\":10148:10151   */\n              dup3\n                /* \"#utility.yul\":10145:10146   */\n              0x02\n                /* \"#utility.yul\":10141:10152   */\n              mul\n                /* \"#utility.yul\":10135:10139   */\n              dup3\n                /* \"#utility.yul\":10132:10153   */\n              or\n                /* \"#utility.yul\":10124:10153   */\n              swap1\n              pop\n                /* \"#utility.yul\":9864:10159   */\n              swap3\n              swap2\n              pop\n              pop\n              jump\t// out\n                /* \"#utility.yul\":10164:11559   */\n            tag_68:\n                /* \"#utility.yul\":10281:10318   */\n              tag_231\n                /* \"#utility.yul\":10314:10317   */\n              dup3\n                /* \"#utility.yul\":10281:10318   */\n              tag_78\n              jump\t// in\n            tag_231:\n                /* \"#utility.yul\":10383:10401   */\n              0xffffffffffffffff\n                /* \"#utility.yul\":10375:10381   */\n              dup2\n                /* \"#utility.yul\":10372:10402   */\n              gt\n                /* \"#utility.yul\":10369:10425   */\n              iszero\n              tag_232\n              jumpi\n                /* \"#utility.yul\":10405:10423   */\n              tag_233\n              tag_86\n              jump\t// in\n            tag_233:\n                /* \"#utility.yul\":10369:10425   */\n            tag_232:\n                /* \"#utility.yul\":10449:10487   */\n              tag_234\n                /* \"#utility.yul\":10481:10485   */\n              dup3\n                /* \"#utility.yul\":10475:10486   */\n              sload\n                /* \"#utility.yul\":10449:10487   */\n              tag_46\n              jump\t// in\n            tag_234:\n                /* \"#utility.yul\":10534:10601   */\n              tag_235\n                /* \"#utility.yul\":10594:10600   */\n              dup3\n                /* \"#utility.yul\":10586:10592   */\n              dup3\n                /* \"#utility.yul\":10580:10584   */\n              dup6\n                /* \"#utility.yul\":10534:10601   */\n              tag_106\n              jump\t// in\n            tag_235:\n                /* \"#utility.yul\":10628:10629   */\n              0x00\n                /* \"#utility.yul\":10652:10656   */\n              0x20\n                /* \"#utility.yul\":10639:10656   */\n              swap1\n              pop\n                /* \"#utility.yul\":10684:10686   */\n              0x1f\n                /* \"#utility.yul\":10676:10682   */\n              dup4\n                /* \"#utility.yul\":10673:10687   */\n              gt\n                /* \"#utility.yul\":10701:10702   */\n              0x01\n                /* \"#utility.yul\":10696:11314   */\n              dup2\n              eq\n              tag_237\n              jumpi\n                /* \"#utility.yul\":11358:11359   */\n              0x00\n                /* \"#utility.yul\":11375:11381   */\n              dup5\n                /* \"#utility.yul\":11372:11449   */\n              iszero\n              tag_238\n              jumpi\n                /* \"#utility.yul\":11424:11433   */\n              dup3\n                /* \"#utility.yul\":11419:11422   */\n              dup8\n                /* \"#utility.yul\":11415:11434   */\n              add\n                /* \"#utility.yul\":11409:11435   */\n              mload\n                /* \"#utility.yul\":11400:11435   */\n              swap1\n              pop\n                /* \"#utility.yul\":11372:11449   */\n            tag_238:\n                /* \"#utility.yul\":11475:11542   */\n              tag_239\n                /* \"#utility.yul\":11535:11541   */\n              dup6\n                /* \"#utility.yul\":11528:11533   */\n              dup3\n                /* \"#utility.yul\":11475:11542   */\n              tag_109\n              jump\t// in\n            tag_239:\n                /* \"#utility.yul\":11469:11473   */\n              dup7\n                /* \"#utility.yul\":11462:11543   */\n              sstore\n                /* \"#utility.yul\":11331:11553   */\n              pop\n                /* \"#utility.yul\":10666:11553   */\n              jump(tag_236)\n                /* \"#utility.yul\":10696:11314   */\n            tag_237:\n                /* \"#utility.yul\":10748:10752   */\n              0x1f\n                /* \"#utility.yul\":10744:10753   */\n              not\n                /* \"#utility.yul\":10736:10742   */\n              dup5\n                /* \"#utility.yul\":10732:10754   */\n              and\n                /* \"#utility.yul\":10782:10819   */\n              tag_240\n                /* \"#utility.yul\":10814:10818   */\n              dup7\n                /* \"#utility.yul\":10782:10819   */\n              tag_95\n              jump\t// in\n            tag_240:\n                /* \"#utility.yul\":10841:10842   */\n              0x00\n                /* \"#utility.yul\":10855:11063   */\n            tag_241:\n                /* \"#utility.yul\":10869:10876   */\n              dup3\n                /* \"#utility.yul\":10866:10867   */\n              dup2\n                /* \"#utility.yul\":10863:10877   */\n              lt\n                /* \"#utility.yul\":10855:11063   */\n              iszero\n              tag_243\n              jumpi\n                /* \"#utility.yul\":10948:10957   */\n              dup5\n                /* \"#utility.yul\":10943:10946   */\n              dup10\n                /* \"#utility.yul\":10939:10958   */\n              add\n                /* \"#utility.yul\":10933:10959   */\n              mload\n                /* \"#utility.yul\":10925:10931   */\n              dup3\n                /* \"#utility.yul\":10918:10960   */\n              sstore\n                /* \"#utility.yul\":10999:11000   */\n              0x01\n                /* \"#utility.yul\":10991:10997   */\n              dup3\n                /* \"#utility.yul\":10987:11001   */\n              add\n                /* \"#utility.yul\":10977:11001   */\n              swap2\n              pop\n                /* \"#utility.yul\":11046:11048   */\n              0x20\n                /* \"#utility.yul\":11035:11044   */\n              dup6\n                /* \"#utility.yul\":11031:11049   */\n              add\n                /* \"#utility.yul\":11018:11049   */\n              swap5\n              pop\n                /* \"#utility.yul\":10892:10896   */\n              0x20\n                /* \"#utility.yul\":10889:10890   */\n              dup2\n                /* \"#utility.yul\":10885:10897   */\n              add\n                /* \"#utility.yul\":10880:10897   */\n              swap1\n              pop\n                /* \"#utility.yul\":10855:11063   */\n              jump(tag_241)\n            tag_243:\n                /* \"#utility.yul\":11091:11097   */\n              dup7\n                /* \"#utility.yul\":11082:11089   */\n              dup4\n                /* \"#utility.yul\":11079:11098   */\n              lt\n                /* \"#utility.yul\":11076:11255   */\n              iszero\n              tag_244\n              jumpi\n                /* \"#utility.yul\":11149:11158   */\n              dup5\n                /* \"#utility.yul\":11144:11147   */\n              dup10\n                /* \"#utility.yul\":11140:11159   */\n              add\n                /* \"#utility.yul\":11134:11160   */\n              mload\n                /* \"#utility.yul\":11192:11240   */\n              tag_245\n                /* \"#utility.yul\":11234:11238   */\n              0x1f\n                /* \"#utility.yul\":11226:11232   */\n              dup10\n                /* \"#utility.yul\":11222:11239   */\n              and\n                /* \"#utility.yul\":11211:11220   */\n              dup3\n                /* \"#utility.yul\":11192:11240   */\n              tag_108\n              jump\t// in\n            tag_245:\n                /* \"#utility.yul\":11184:11190   */\n              dup4\n                /* \"#utility.yul\":11177:11241   */\n              sstore\n                /* \"#utility.yul\":11099:11255   */\n              pop\n                /* \"#utility.yul\":11076:11255   */\n            tag_244:\n                /* \"#utility.yul\":11301:11302   */\n              0x01\n                /* \"#utility.yul\":11297:11298   */\n              0x02\n                /* \"#utility.yul\":11289:11295   */\n              dup9\n                /* \"#utility.yul\":11285:11299   */\n              mul\n                /* \"#utility.yul\":11281:11303   */\n              add\n                /* \"#utility.yul\":11275:11279   */\n              dup9\n                /* \"#utility.yul\":11268:11304   */\n              sstore\n                /* \"#utility.yul\":10703:11314   */\n              pop\n              pop\n              pop\n                /* \"#utility.yul\":10666:11553   */\n            tag_236:\n              pop\n                /* \"#utility.yul\":10256:11559   */\n              pop\n              pop\n              pop\n                /* \"#utility.yul\":10164:11559   */\n              pop\n              pop\n              jump\t// out\n                /* \"#utility.yul\":11565:11713   */\n            tag_110:\n                /* \"#utility.yul\":11667:11678   */\n              0x00\n                /* \"#utility.yul\":11704:11707   */\n              dup2\n                /* \"#utility.yul\":11689:11707   */\n              swap1\n              pop\n                /* \"#utility.yul\":11565:11713   */\n              swap3\n              swap2\n              pop\n              pop\n              jump\t// out\n                /* \"#utility.yul\":11719:12109   */\n            tag_111:\n                /* \"#utility.yul\":11825:11828   */\n              0x00\n                /* \"#utility.yul\":11853:11892   */\n              tag_248\n                /* \"#utility.yul\":11886:11891   */\n              dup3\n                /* \"#utility.yul\":11853:11892   */\n              tag_78\n              jump\t// in\n            tag_248:\n                /* \"#utility.yul\":11908:11997   */\n              tag_249\n                /* \"#utility.yul\":11990:11996   */\n              dup2\n                /* \"#utility.yul\":11985:11988   */\n              dup6\n                /* \"#utility.yul\":11908:11997   */\n              tag_110\n              jump\t// in\n            tag_249:\n                /* \"#utility.yul\":11901:11997   */\n              swap4\n              pop\n                /* \"#utility.yul\":12006:12071   */\n              tag_250\n                /* \"#utility.yul\":12064:12070   */\n              dup2\n                /* \"#utility.yul\":12059:12062   */\n              dup6\n                /* \"#utility.yul\":12052:12056   */\n              0x20\n                /* \"#utility.yul\":12045:12050   */\n              dup7\n                /* \"#utility.yul\":12041:12057   */\n              add\n                /* \"#utility.yul\":12006:12071   */\n              tag_80\n              jump\t// in\n            tag_250:\n                /* \"#utility.yul\":12096:12102   */\n              dup1\n                /* \"#utility.yul\":12091:12094   */\n              dup5\n                /* \"#utility.yul\":12087:12103   */\n              add\n                /* \"#utility.yul\":12080:12103   */\n              swap2\n              pop\n                /* \"#utility.yul\":11829:12109   */\n              pop\n                /* \"#utility.yul\":11719:12109   */\n              swap3\n              swap2\n              pop\n              pop\n              jump\t// out\n                /* \"#utility.yul\":12115:12390   */\n            tag_70:\n                /* \"#utility.yul\":12247:12250   */\n              0x00\n                /* \"#utility.yul\":12269:12364   */\n              tag_252\n                /* \"#utility.yul\":12360:12363   */\n              dup3\n                /* \"#utility.yul\":12351:12357   */\n              dup5\n                /* \"#utility.yul\":12269:12364   */\n              tag_111\n              jump\t// in\n            tag_252:\n                /* \"#utility.yul\":12262:12364   */\n              swap2\n              pop\n                /* \"#utility.yul\":12381:12384   */\n              dup2\n                /* \"#utility.yul\":12374:12384   */\n              swap1\n              pop\n                /* \"#utility.yul\":12115:12390   */\n              swap3\n              swap2\n              pop\n              pop\n              jump\t// out\n\n            auxdata: 0xa264697066735822122022a09247727394d30c8324e6e11a1169d3f73055fd2e14c7fc4140830ab0832a64736f6c634300081a0033\n        }\n    }\n\n    auxdata: 0xa264697066735822122093c5ba70039bfeea97259b383830c49f333943eddc008cd19e480ae01289fd0064736f6c634300081a0033\n}\n",
				"bytecode": {
					"linkReferences": {},
					"object": "6080604052348015600e575f80fd5b5061100a8061001c5f395ff3fe608060405234801561000f575f80fd5b506004361061004a575f3560e01c806346c1f2711461004e5780634b2542941461006a5780635558a3e81461007457806364591bf1146100a4575b5f80fd5b6100686004803603810190610063919061033a565b6100d4565b005b61007261017d565b005b61008e60048036038101906100899190610378565b610208565b60405161009b91906103b2565b60405180910390f35b6100be60048036038101906100b99190610378565b6102bc565b6040516100cb9190610445565b60405180910390f35b5f8083815481106100e8576100e761045e565b5b905f5260205f20015f9054906101000a900473ffffffffffffffffffffffffffffffffffffffff1690508073ffffffffffffffffffffffffffffffffffffffff16636057361d836040518263ffffffff1660e01b815260040161014b91906103b2565b5f604051808303815f87803b158015610162575f80fd5b505af1158015610174573d5f803e3d5ffd5b50505050505050565b5f60405161018a906102f6565b604051809103905ff0801580156101a3573d5f803e3d5ffd5b5090505f81908060018154018082558091505060019003905f5260205f20015f9091909190916101000a81548173ffffffffffffffffffffffffffffffffffffffff021916908373ffffffffffffffffffffffffffffffffffffffff16021790555050565b5f805f838154811061021d5761021c61045e565b5b905f5260205f20015f9054906101000a900473ffffffffffffffffffffffffffffffffffffffff1690508073ffffffffffffffffffffffffffffffffffffffff16632e64cec16040518163ffffffff1660e01b8152600401602060405180830381865afa158015610290573d5f803e3d5ffd5b505050506040513d601f19601f820116820180604052508101906102b4919061049f565b915050919050565b5f81815481106102ca575f80fd5b905f5260205f20015f915054906101000a900473ffffffffffffffffffffffffffffffffffffffff1681565b610b0a806104cb83390190565b5f80fd5b5f819050919050565b61031981610307565b8114610323575f80fd5b50565b5f8135905061033481610310565b92915050565b5f80604083850312156103505761034f610303565b5b5f61035d85828601610326565b925050602061036e85828601610326565b9150509250929050565b5f6020828403121561038d5761038c610303565b5b5f61039a84828501610326565b91505092915050565b6103ac81610307565b82525050565b5f6020820190506103c55f8301846103a3565b92915050565b5f73ffffffffffffffffffffffffffffffffffffffff82169050919050565b5f819050919050565b5f61040d610408610403846103cb565b6103ea565b6103cb565b9050919050565b5f61041e826103f3565b9050919050565b5f61042f82610414565b9050919050565b61043f81610425565b82525050565b5f6020820190506104585f830184610436565b92915050565b7f4e487b71000000000000000000000000000000000000000000000000000000005f52603260045260245ffd5b5f8151905061049981610310565b92915050565b5f602082840312156104b4576104b3610303565b5b5f6104c18482850161048b565b9150509291505056fe6080604052348015600e575f80fd5b50610aee8061001c5f395ff3fe608060405234801561000f575f80fd5b5060043610610086575f3560e01c80636057361d116100595780636057361d146101265780636a6fea65146101425780639e7a13ad1461015e578063bc832d4e1461018f57610086565b80632d1804601461008a5780632e64cec1146100ba57806343ec8f47146100d8578063471f7cdf14610108575b5f80fd5b6100a4600480360381019061009f9190610461565b6101ab565b6040516100b191906104fc565b60405180910390f35b6100c2610246565b6040516100cf919061052b565b60405180910390f35b6100f260048036038101906100ed9190610670565b61024e565b6040516100ff919061052b565b60405180910390f35b61011061027b565b60405161011d919061052b565b60405180910390f35b610140600480360381019061013b9190610461565b610280565b005b61015c60048036038101906101579190610461565b6102ab565b005b61017860048036038101906101739190610461565b6102c5565b6040516101869291906106b7565b60405180910390f35b6101a960048036038101906101a491906106e5565b61037a565b005b6002602052805f5260405f205f9150905080546101c79061076c565b80601f01602080910402602001604051908101604052809291908181526020018280546101f39061076c565b801561023e5780601f106102155761010080835404028352916020019161023e565b820191905f5260205f20905b81548152906001019060200180831161022157829003601f168201915b505050505081565b5f8054905090565b6001818051602081018201805184825260208301602085012081835280955050505050505f915090505481565b5f5481565b805f8190555060015f8082825461029791906107c9565b925050819055506102a85f546102ab565b50565b805f808282546102bb91906107c9565b9250508190555050565b600381815481106102d4575f80fd5b905f5260205f2090600202015f91509050805f0154908060010180546102f99061076c565b80601f01602080910402602001604051908101604052809291908181526020018280546103259061076c565b80156103705780601f1061034757610100808354040283529160200191610370565b820191905f5260205f20905b81548152906001019060200180831161035357829003601f168201915b5050505050905082565b6003604051806040016040528084815260200183815250908060018154018082558091505060019003905f5260205f2090600202015f909190919091505f820151815f015560208201518160010190816103d49190610999565b505050816001826040516103e89190610aa2565b9081526020016040518091039020819055508060025f8481526020019081526020015f2090816104189190610999565b505050565b5f604051905090565b5f80fd5b5f80fd5b5f819050919050565b6104408161042e565b811461044a575f80fd5b50565b5f8135905061045b81610437565b92915050565b5f6020828403121561047657610475610426565b5b5f6104838482850161044d565b91505092915050565b5f81519050919050565b5f82825260208201905092915050565b8281835e5f83830152505050565b5f601f19601f8301169050919050565b5f6104ce8261048c565b6104d88185610496565b93506104e88185602086016104a6565b6104f1816104b4565b840191505092915050565b5f6020820190508181035f83015261051481846104c4565b905092915050565b6105258161042e565b82525050565b5f60208201905061053e5f83018461051c565b92915050565b5f80fd5b5f80fd5b7f4e487b71000000000000000000000000000000000000000000000000000000005f52604160045260245ffd5b610582826104b4565b810181811067ffffffffffffffff821117156105a1576105a061054c565b5b80604052505050565b5f6105b361041d565b90506105bf8282610579565b919050565b5f67ffffffffffffffff8211156105de576105dd61054c565b5b6105e7826104b4565b9050602081019050919050565b828183375f83830152505050565b5f61061461060f846105c4565b6105aa565b9050828152602081018484840111156106305761062f610548565b5b61063b8482856105f4565b509392505050565b5f82601f83011261065757610656610544565b5b8135610667848260208601610602565b91505092915050565b5f6020828403121561068557610684610426565b5b5f82013567ffffffffffffffff8111156106a2576106a161042a565b5b6106ae84828501610643565b91505092915050565b5f6040820190506106ca5f83018561051c565b81810360208301526106dc81846104c4565b90509392505050565b5f80604083850312156106fb576106fa610426565b5b5f6107088582860161044d565b925050602083013567ffffffffffffffff8111156107295761072861042a565b5b61073585828601610643565b9150509250929050565b7f4e487b71000000000000000000000000000000000000000000000000000000005f52602260045260245ffd5b5f600282049050600182168061078357607f821691505b6020821081036107965761079561073f565b5b50919050565b7f4e487b71000000000000000000000000000000000000000000000000000000005f52601160045260245ffd5b5f6107d38261042e565b91506107de8361042e565b92508282019050808211156107f6576107f561079c565b5b92915050565b5f819050815f5260205f209050919050565b5f6020601f8301049050919050565b5f82821b905092915050565b5f600883026108587fffffffffffffffffffffffffffffffffffffffffffffffffffffffffffffffff8261081d565b610862868361081d565b95508019841693508086168417925050509392505050565b5f819050919050565b5f61089d6108986108938461042e565b61087a565b61042e565b9050919050565b5f819050919050565b6108b683610883565b6108ca6108c2826108a4565b848454610829565b825550505050565b5f90565b6108de6108d2565b6108e98184846108ad565b505050565b5b8181101561090c576109015f826108d6565b6001810190506108ef565b5050565b601f82111561095157610922816107fc565b61092b8461080e565b8101602085101561093a578190505b61094e6109468561080e565b8301826108ee565b50505b505050565b5f82821c905092915050565b5f6109715f1984600802610956565b1980831691505092915050565b5f6109898383610962565b9150826002028217905092915050565b6109a28261048c565b67ffffffffffffffff8111156109bb576109ba61054c565b5b6109c5825461076c565b6109d0828285610910565b5f60209050601f831160018114610a01575f84156109ef578287015190505b6109f9858261097e565b865550610a60565b601f198416610a0f866107fc565b5f5b82811015610a3657848901518255600182019150602085019450602081019050610a11565b86831015610a535784890151610a4f601f891682610962565b8355505b6001600288020188555050505b505050505050565b5f81905092915050565b5f610a7c8261048c565b610a868185610a68565b9350610a968185602086016104a6565b80840191505092915050565b5f610aad8284610a72565b91508190509291505056fea264697066735822122022a09247727394d30c8324e6e11a1169d3f73055fd2e14c7fc4140830ab0832a64736f6c634300081a0033a264697066735822122093c5ba70039bfeea97259b383830c49f333943eddc008cd19e480ae01289fd0064736f6c634300081a0033",
					"opcodes": "PUSH1 0x80 PUSH1 0x40 MSTORE CALLVALUE DUP1 ISZERO PUSH1 0xE JUMPI PUSH0 DUP1 REVERT JUMPDEST POP PUSH2 0x100A DUP1 PUSH2 0x1C PUSH0 CODECOPY PUSH0 RETURN INVALID PUSH1 0x80 PUSH1 0x40 MSTORE CALLVALUE DUP1 ISZERO PUSH2 0xF JUMPI PUSH0 DUP1 REVERT JUMPDEST POP PUSH1 0x4 CALLDATASIZE LT PUSH2 0x4A JUMPI PUSH0 CALLDATALOAD PUSH1 0xE0 SHR DUP1 PUSH4 0x46C1F271 EQ PUSH2 0x4E JUMPI DUP1 PUSH4 0x4B254294 EQ PUSH2 0x6A JUMPI DUP1 PUSH4 0x5558A3E8 EQ PUSH2 0x74 JUMPI DUP1 PUSH4 0x64591BF1 EQ PUSH2 0xA4 JUMPI JUMPDEST PUSH0 DUP1 REVERT JUMPDEST PUSH2 0x68 PUSH1 0x4 DUP1 CALLDATASIZE SUB DUP2 ADD SWAP1 PUSH2 0x63 SWAP2 SWAP1 PUSH2 0x33A JUMP JUMPDEST PUSH2 0xD4 JUMP JUMPDEST STOP JUMPDEST PUSH2 0x72 PUSH2 0x17D JUMP JUMPDEST STOP JUMPDEST PUSH2 0x8E PUSH1 0x4 DUP1 CALLDATASIZE SUB DUP2 ADD SWAP1 PUSH2 0x89 SWAP2 SWAP1 PUSH2 0x378 JUMP JUMPDEST PUSH2 0x208 JUMP JUMPDEST PUSH1 0x40 MLOAD PUSH2 0x9B SWAP2 SWAP1 PUSH2 0x3B2 JUMP JUMPDEST PUSH1 0x40 MLOAD DUP1 SWAP2 SUB SWAP1 RETURN JUMPDEST PUSH2 0xBE PUSH1 0x4 DUP1 CALLDATASIZE SUB DUP2 ADD SWAP1 PUSH2 0xB9 SWAP2 SWAP1 PUSH2 0x378 JUMP JUMPDEST PUSH2 0x2BC JUMP JUMPDEST PUSH1 0x40 MLOAD PUSH2 0xCB SWAP2 SWAP1 PUSH2 0x445 JUMP JUMPDEST PUSH1 0x40 MLOAD DUP1 SWAP2 SUB SWAP1 RETURN JUMPDEST PUSH0 DUP1 DUP4 DUP2 SLOAD DUP2 LT PUSH2 0xE8 JUMPI PUSH2 0xE7 PUSH2 0x45E JUMP JUMPDEST JUMPDEST SWAP1 PUSH0 MSTORE PUSH1 0x20 PUSH0 KECCAK256 ADD PUSH0 SWAP1 SLOAD SWAP1 PUSH2 0x100 EXP SWAP1 DIV PUSH20 0xFFFFFFFFFFFFFFFFFFFFFFFFFFFFFFFFFFFFFFFF AND SWAP1 POP DUP1 PUSH20 0xFFFFFFFFFFFFFFFFFFFFFFFFFFFFFFFFFFFFFFFF AND PUSH4 0x6057361D DUP4 PUSH1 0x40 MLOAD DUP3 PUSH4 0xFFFFFFFF AND PUSH1 0xE0 SHL DUP2 MSTORE PUSH1 0x4 ADD PUSH2 0x14B SWAP2 SWAP1 PUSH2 0x3B2 JUMP JUMPDEST PUSH0 PUSH1 0x40 MLOAD DUP1 DUP4 SUB DUP2 PUSH0 DUP8 DUP1 EXTCODESIZE ISZERO DUP1 ISZERO PUSH2 0x162 JUMPI PUSH0 DUP1 REVERT JUMPDEST POP GAS CALL ISZERO DUP1 ISZERO PUSH2 0x174 JUMPI RETURNDATASIZE PUSH0 DUP1 RETURNDATACOPY RETURNDATASIZE PUSH0 REVERT JUMPDEST POP POP POP POP POP POP POP JUMP JUMPDEST PUSH0 PUSH1 0x40 MLOAD PUSH2 0x18A SWAP1 PUSH2 0x2F6 JUMP JUMPDEST PUSH1 0x40 MLOAD DUP1 SWAP2 SUB SWAP1 PUSH0 CREATE DUP1 ISZERO DUP1 ISZERO PUSH2 0x1A3 JUMPI RETURNDATASIZE PUSH0 DUP1 RETURNDATACOPY RETURNDATASIZE PUSH0 REVERT JUMPDEST POP SWAP1 POP PUSH0 DUP2 SWAP1 DUP1 PUSH1 0x1 DUP2 SLOAD ADD DUP1 DUP3 SSTORE DUP1 SWAP2 POP POP PUSH1 0x1 SWAP1 SUB SWAP1 PUSH0 MSTORE PUSH1 0x20 PUSH0 KECCAK256 ADD PUSH0 SWAP1 SWAP2 SWAP1 SWAP2 SWAP1 SWAP2 PUSH2 0x100 EXP DUP2 SLOAD DUP2 PUSH20 0xFFFFFFFFFFFFFFFFFFFFFFFFFFFFFFFFFFFFFFFF MUL NOT AND SWAP1 DUP4 PUSH20 0xFFFFFFFFFFFFFFFFFFFFFFFFFFFFFFFFFFFFFFFF AND MUL OR SWAP1 SSTORE POP POP JUMP JUMPDEST PUSH0 DUP1 PUSH0 DUP4 DUP2 SLOAD DUP2 LT PUSH2 0x21D JUMPI PUSH2 0x21C PUSH2 0x45E JUMP JUMPDEST JUMPDEST SWAP1 PUSH0 MSTORE PUSH1 0x20 PUSH0 KECCAK256 ADD PUSH0 SWAP1 SLOAD SWAP1 PUSH2 0x100 EXP SWAP1 DIV PUSH20 0xFFFFFFFFFFFFFFFFFFFFFFFFFFFFFFFFFFFFFFFF AND SWAP1 POP DUP1 PUSH20 0xFFFFFFFFFFFFFFFFFFFFFFFFFFFFFFFFFFFFFFFF AND PUSH4 0x2E64CEC1 PUSH1 0x40 MLOAD DUP2 PUSH4 0xFFFFFFFF AND PUSH1 0xE0 SHL DUP2 MSTORE PUSH1 0x4 ADD PUSH1 0x20 PUSH1 0x40 MLOAD DUP1 DUP4 SUB DUP2 DUP7 GAS STATICCALL ISZERO DUP1 ISZERO PUSH2 0x290 JUMPI RETURNDATASIZE PUSH0 DUP1 RETURNDATACOPY RETURNDATASIZE PUSH0 REVERT JUMPDEST POP POP POP POP PUSH1 0x40 MLOAD RETURNDATASIZE PUSH1 0x1F NOT PUSH1 0x1F DUP3 ADD AND DUP3 ADD DUP1 PUSH1 0x40 MSTORE POP DUP2 ADD SWAP1 PUSH2 0x2B4 SWAP2 SWAP1 PUSH2 0x49F JUMP JUMPDEST SWAP2 POP POP SWAP2 SWAP1 POP JUMP JUMPDEST PUSH0 DUP2 DUP2 SLOAD DUP2 LT PUSH2 0x2CA JUMPI PUSH0 DUP1 REVERT JUMPDEST SWAP1 PUSH0 MSTORE PUSH1 0x20 PUSH0 KECCAK256 ADD PUSH0 SWAP2 POP SLOAD SWAP1 PUSH2 0x100 EXP SWAP1 DIV PUSH20 0xFFFFFFFFFFFFFFFFFFFFFFFFFFFFFFFFFFFFFFFF AND DUP2 JUMP JUMPDEST PUSH2 0xB0A DUP1 PUSH2 0x4CB DUP4 CODECOPY ADD SWAP1 JUMP JUMPDEST PUSH0 DUP1 REVERT JUMPDEST PUSH0 DUP2 SWAP1 POP SWAP2 SWAP1 POP JUMP JUMPDEST PUSH2 0x319 DUP2 PUSH2 0x307 JUMP JUMPDEST DUP2 EQ PUSH2 0x323 JUMPI PUSH0 DUP1 REVERT JUMPDEST POP JUMP JUMPDEST PUSH0 DUP2 CALLDATALOAD SWAP1 POP PUSH2 0x334 DUP2 PUSH2 0x310 JUMP JUMPDEST SWAP3 SWAP2 POP POP JUMP JUMPDEST PUSH0 DUP1 PUSH1 0x40 DUP4 DUP6 SUB SLT ISZERO PUSH2 0x350 JUMPI PUSH2 0x34F PUSH2 0x303 JUMP JUMPDEST JUMPDEST PUSH0 PUSH2 0x35D DUP6 DUP3 DUP7 ADD PUSH2 0x326 JUMP JUMPDEST SWAP3 POP POP PUSH1 0x20 PUSH2 0x36E DUP6 DUP3 DUP7 ADD PUSH2 0x326 JUMP JUMPDEST SWAP2 POP POP SWAP3 POP SWAP3 SWAP1 POP JUMP JUMPDEST PUSH0 PUSH1 0x20 DUP3 DUP5 SUB SLT ISZERO PUSH2 0x38D JUMPI PUSH2 0x38C PUSH2 0x303 JUMP JUMPDEST JUMPDEST PUSH0 PUSH2 0x39A DUP5 DUP3 DUP6 ADD PUSH2 0x326 JUMP JUMPDEST SWAP2 POP POP SWAP3 SWAP2 POP POP JUMP JUMPDEST PUSH2 0x3AC DUP2 PUSH2 0x307 JUMP JUMPDEST DUP3 MSTORE POP POP JUMP JUMPDEST PUSH0 PUSH1 0x20 DUP3 ADD SWAP1 POP PUSH2 0x3C5 PUSH0 DUP4 ADD DUP5 PUSH2 0x3A3 JUMP JUMPDEST SWAP3 SWAP2 POP POP JUMP JUMPDEST PUSH0 PUSH20 0xFFFFFFFFFFFFFFFFFFFFFFFFFFFFFFFFFFFFFFFF DUP3 AND SWAP1 POP SWAP2 SWAP1 POP JUMP JUMPDEST PUSH0 DUP2 SWAP1 POP SWAP2 SWAP1 POP JUMP JUMPDEST PUSH0 PUSH2 0x40D PUSH2 0x408 PUSH2 0x403 DUP5 PUSH2 0x3CB JUMP JUMPDEST PUSH2 0x3EA JUMP JUMPDEST PUSH2 0x3CB JUMP JUMPDEST SWAP1 POP SWAP2 SWAP1 POP JUMP JUMPDEST PUSH0 PUSH2 0x41E DUP3 PUSH2 0x3F3 JUMP JUMPDEST SWAP1 POP SWAP2 SWAP1 POP JUMP JUMPDEST PUSH0 PUSH2 0x42F DUP3 PUSH2 0x414 JUMP JUMPDEST SWAP1 POP SWAP2 SWAP1 POP JUMP JUMPDEST PUSH2 0x43F DUP2 PUSH2 0x425 JUMP JUMPDEST DUP3 MSTORE POP POP JUMP JUMPDEST PUSH0 PUSH1 0x20 DUP3 ADD SWAP1 POP PUSH2 0x458 PUSH0 DUP4 ADD DUP5 PUSH2 0x436 JUMP JUMPDEST SWAP3 SWAP2 POP POP JUMP JUMPDEST PUSH32 0x4E487B7100000000000000000000000000000000000000000000000000000000 PUSH0 MSTORE PUSH1 0x32 PUSH1 0x4 MSTORE PUSH1 0x24 PUSH0 REVERT JUMPDEST PUSH0 DUP2 MLOAD SWAP1 POP PUSH2 0x499 DUP2 PUSH2 0x310 JUMP JUMPDEST SWAP3 SWAP2 POP POP JUMP JUMPDEST PUSH0 PUSH1 0x20 DUP3 DUP5 SUB SLT ISZERO PUSH2 0x4B4 JUMPI PUSH2 0x4B3 PUSH2 0x303 JUMP JUMPDEST JUMPDEST PUSH0 PUSH2 0x4C1 DUP5 DUP3 DUP6 ADD PUSH2 0x48B JUMP JUMPDEST SWAP2 POP POP SWAP3 SWAP2 POP POP JUMP INVALID PUSH1 0x80 PUSH1 0x40 MSTORE CALLVALUE DUP1 ISZERO PUSH1 0xE JUMPI PUSH0 DUP1 REVERT JUMPDEST POP PUSH2 0xAEE DUP1 PUSH2 0x1C PUSH0 CODECOPY PUSH0 RETURN INVALID PUSH1 0x80 PUSH1 0x40 MSTORE CALLVALUE DUP1 ISZERO PUSH2 0xF JUMPI PUSH0 DUP1 REVERT JUMPDEST POP PUSH1 0x4 CALLDATASIZE LT PUSH2 0x86 JUMPI PUSH0 CALLDATALOAD PUSH1 0xE0 SHR DUP1 PUSH4 0x6057361D GT PUSH2 0x59 JUMPI DUP1 PUSH4 0x6057361D EQ PUSH2 0x126 JUMPI DUP1 PUSH4 0x6A6FEA65 EQ PUSH2 0x142 JUMPI DUP1 PUSH4 0x9E7A13AD EQ PUSH2 0x15E JUMPI DUP1 PUSH4 0xBC832D4E EQ PUSH2 0x18F JUMPI PUSH2 0x86 JUMP JUMPDEST DUP1 PUSH4 0x2D180460 EQ PUSH2 0x8A JUMPI DUP1 PUSH4 0x2E64CEC1 EQ PUSH2 0xBA JUMPI DUP1 PUSH4 0x43EC8F47 EQ PUSH2 0xD8 JUMPI DUP1 PUSH4 0x471F7CDF EQ PUSH2 0x108 JUMPI JUMPDEST PUSH0 DUP1 REVERT JUMPDEST PUSH2 0xA4 PUSH1 0x4 DUP1 CALLDATASIZE SUB DUP2 ADD SWAP1 PUSH2 0x9F SWAP2 SWAP1 PUSH2 0x461 JUMP JUMPDEST PUSH2 0x1AB JUMP JUMPDEST PUSH1 0x40 MLOAD PUSH2 0xB1 SWAP2 SWAP1 PUSH2 0x4FC JUMP JUMPDEST PUSH1 0x40 MLOAD DUP1 SWAP2 SUB SWAP1 RETURN JUMPDEST PUSH2 0xC2 PUSH2 0x246 JUMP JUMPDEST PUSH1 0x40 MLOAD PUSH2 0xCF SWAP2 SWAP1 PUSH2 0x52B JUMP JUMPDEST PUSH1 0x40 MLOAD DUP1 SWAP2 SUB SWAP1 RETURN JUMPDEST PUSH2 0xF2 PUSH1 0x4 DUP1 CALLDATASIZE SUB DUP2 ADD SWAP1 PUSH2 0xED SWAP2 SWAP1 PUSH2 0x670 JUMP JUMPDEST PUSH2 0x24E JUMP JUMPDEST PUSH1 0x40 MLOAD PUSH2 0xFF SWAP2 SWAP1 PUSH2 0x52B JUMP JUMPDEST PUSH1 0x40 MLOAD DUP1 SWAP2 SUB SWAP1 RETURN JUMPDEST PUSH2 0x110 PUSH2 0x27B JUMP JUMPDEST PUSH1 0x40 MLOAD PUSH2 0x11D SWAP2 SWAP1 PUSH2 0x52B JUMP JUMPDEST PUSH1 0x40 MLOAD DUP1 SWAP2 SUB SWAP1 RETURN JUMPDEST PUSH2 0x140 PUSH1 0x4 DUP1 CALLDATASIZE SUB DUP2 ADD SWAP1 PUSH2 0x13B SWAP2 SWAP1 PUSH2 0x461 JUMP JUMPDEST PUSH2 0x280 JUMP JUMPDEST STOP JUMPDEST PUSH2 0x15C PUSH1 0x4 DUP1 CALLDATASIZE SUB DUP2 ADD SWAP1 PUSH2 0x157 SWAP2 SWAP1 PUSH2 0x461 JUMP JUMPDEST PUSH2 0x2AB JUMP JUMPDEST STOP JUMPDEST PUSH2 0x178 PUSH1 0x4 DUP1 CALLDATASIZE SUB DUP2 ADD SWAP1 PUSH2 0x173 SWAP2 SWAP1 PUSH2 0x461 JUMP JUMPDEST PUSH2 0x2C5 JUMP JUMPDEST PUSH1 0x40 MLOAD PUSH2 0x186 SWAP3 SWAP2 SWAP1 PUSH2 0x6B7 JUMP JUMPDEST PUSH1 0x40 MLOAD DUP1 SWAP2 SUB SWAP1 RETURN JUMPDEST PUSH2 0x1A9 PUSH1 0x4 DUP1 CALLDATASIZE SUB DUP2 ADD SWAP1 PUSH2 0x1A4 SWAP2 SWAP1 PUSH2 0x6E5 JUMP JUMPDEST PUSH2 0x37A JUMP JUMPDEST STOP JUMPDEST PUSH1 0x2 PUSH1 0x20 MSTORE DUP1 PUSH0 MSTORE PUSH1 0x40 PUSH0 KECCAK256 PUSH0 SWAP2 POP SWAP1 POP DUP1 SLOAD PUSH2 0x1C7 SWAP1 PUSH2 0x76C JUMP JUMPDEST DUP1 PUSH1 0x1F ADD PUSH1 0x20 DUP1 SWAP2 DIV MUL PUSH1 0x20 ADD PUSH1 0x40 MLOAD SWAP1 DUP2 ADD PUSH1 0x40 MSTORE DUP1 SWAP3 SWAP2 SWAP1 DUP2 DUP2 MSTORE PUSH1 0x20 ADD DUP3 DUP1 SLOAD PUSH2 0x1F3 SWAP1 PUSH2 0x76C JUMP JUMPDEST DUP1 ISZERO PUSH2 0x23E JUMPI DUP1 PUSH1 0x1F LT PUSH2 0x215 JUMPI PUSH2 0x100 DUP1 DUP4 SLOAD DIV MUL DUP4 MSTORE SWAP2 PUSH1 0x20 ADD SWAP2 PUSH2 0x23E JUMP JUMPDEST DUP3 ADD SWAP2 SWAP1 PUSH0 MSTORE PUSH1 0x20 PUSH0 KECCAK256 SWAP1 JUMPDEST DUP2 SLOAD DUP2 MSTORE SWAP1 PUSH1 0x1 ADD SWAP1 PUSH1 0x20 ADD DUP1 DUP4 GT PUSH2 0x221 JUMPI DUP3 SWAP1 SUB PUSH1 0x1F AND DUP3 ADD SWAP2 JUMPDEST POP POP POP POP POP DUP2 JUMP JUMPDEST PUSH0 DUP1 SLOAD SWAP1 POP SWAP1 JUMP JUMPDEST PUSH1 0x1 DUP2 DUP1 MLOAD PUSH1 0x20 DUP2 ADD DUP3 ADD DUP1 MLOAD DUP5 DUP3 MSTORE PUSH1 0x20 DUP4 ADD PUSH1 0x20 DUP6 ADD KECCAK256 DUP2 DUP4 MSTORE DUP1 SWAP6 POP POP POP POP POP POP PUSH0 SWAP2 POP SWAP1 POP SLOAD DUP2 JUMP JUMPDEST PUSH0 SLOAD DUP2 JUMP JUMPDEST DUP1 PUSH0 DUP2 SWAP1 SSTORE POP PUSH1 0x1 PUSH0 DUP1 DUP3 DUP3 SLOAD PUSH2 0x297 SWAP2 SWAP1 PUSH2 0x7C9 JUMP JUMPDEST SWAP3 POP POP DUP2 SWAP1 SSTORE POP PUSH2 0x2A8 PUSH0 SLOAD PUSH2 0x2AB JUMP JUMPDEST POP JUMP JUMPDEST DUP1 PUSH0 DUP1 DUP3 DUP3 SLOAD PUSH2 0x2BB SWAP2 SWAP1 PUSH2 0x7C9 JUMP JUMPDEST SWAP3 POP POP DUP2 SWAP1 SSTORE POP POP JUMP JUMPDEST PUSH1 0x3 DUP2 DUP2 SLOAD DUP2 LT PUSH2 0x2D4 JUMPI PUSH0 DUP1 REVERT JUMPDEST SWAP1 PUSH0 MSTORE PUSH1 0x20 PUSH0 KECCAK256 SWAP1 PUSH1 0x2 MUL ADD PUSH0 SWAP2 POP SWAP1 POP DUP1 PUSH0 ADD SLOAD SWAP1 DUP1 PUSH1 0x1 ADD DUP1 SLOAD PUSH2 0x2F9 SWAP1 PUSH2 0x76C JUMP JUMPDEST DUP1 PUSH1 0x1F ADD PUSH1 0x20 DUP1 SWAP2 DIV MUL PUSH1 0x20 ADD PUSH1 0x40 MLOAD SWAP1 DUP2 ADD PUSH1 0x40 MSTORE DUP1 SWAP3 SWAP2 SWAP1 DUP2 DUP2 MSTORE PUSH1 0x20 ADD DUP3 DUP1 SLOAD PUSH2 0x325 SWAP1 PUSH2 0x76C JUMP JUMPDEST DUP1 ISZERO PUSH2 0x370 JUMPI DUP1 PUSH1 0x1F LT PUSH2 0x347 JUMPI PUSH2 0x100 DUP1 DUP4 SLOAD DIV MUL DUP4 MSTORE SWAP2 PUSH1 0x20 ADD SWAP2 PUSH2 0x370 JUMP JUMPDEST DUP3 ADD SWAP2 SWAP1 PUSH0 MSTORE PUSH1 0x20 PUSH0 KECCAK256 SWAP1 JUMPDEST DUP2 SLOAD DUP2 MSTORE SWAP1 PUSH1 0x1 ADD SWAP1 PUSH1 0x20 ADD DUP1 DUP4 GT PUSH2 0x353 JUMPI DUP3 SWAP1 SUB PUSH1 0x1F AND DUP3 ADD SWAP2 JUMPDEST POP POP POP POP POP SWAP1 POP DUP3 JUMP JUMPDEST PUSH1 0x3 PUSH1 0x40 MLOAD DUP1 PUSH1 0x40 ADD PUSH1 0x40 MSTORE DUP1 DUP5 DUP2 MSTORE PUSH1 0x20 ADD DUP4 DUP2 MSTORE POP SWAP1 DUP1 PUSH1 0x1 DUP2 SLOAD ADD DUP1 DUP3 SSTORE DUP1 SWAP2 POP POP PUSH1 0x1 SWAP1 SUB SWAP1 PUSH0 MSTORE PUSH1 0x20 PUSH0 KECCAK256 SWAP1 PUSH1 0x2 MUL ADD PUSH0 SWAP1 SWAP2 SWAP1 SWAP2 SWAP1 SWAP2 POP PUSH0 DUP3 ADD MLOAD DUP2 PUSH0 ADD SSTORE PUSH1 0x20 DUP3 ADD MLOAD DUP2 PUSH1 0x1 ADD SWAP1 DUP2 PUSH2 0x3D4 SWAP2 SWAP1 PUSH2 0x999 JUMP JUMPDEST POP POP POP DUP2 PUSH1 0x1 DUP3 PUSH1 0x40 MLOAD PUSH2 0x3E8 SWAP2 SWAP1 PUSH2 0xAA2 JUMP JUMPDEST SWAP1 DUP2 MSTORE PUSH1 0x20 ADD PUSH1 0x40 MLOAD DUP1 SWAP2 SUB SWAP1 KECCAK256 DUP2 SWAP1 SSTORE POP DUP1 PUSH1 0x2 PUSH0 DUP5 DUP2 MSTORE PUSH1 0x20 ADD SWAP1 DUP2 MSTORE PUSH1 0x20 ADD PUSH0 KECCAK256 SWAP1 DUP2 PUSH2 0x418 SWAP2 SWAP1 PUSH2 0x999 JUMP JUMPDEST POP POP POP JUMP JUMPDEST PUSH0 PUSH1 0x40 MLOAD SWAP1 POP SWAP1 JUMP JUMPDEST PUSH0 DUP1 REVERT JUMPDEST PUSH0 DUP1 REVERT JUMPDEST PUSH0 DUP2 SWAP1 POP SWAP2 SWAP1 POP JUMP JUMPDEST PUSH2 0x440 DUP2 PUSH2 0x42E JUMP JUMPDEST DUP2 EQ PUSH2 0x44A JUMPI PUSH0 DUP1 REVERT JUMPDEST POP JUMP JUMPDEST PUSH0 DUP2 CALLDATALOAD SWAP1 POP PUSH2 0x45B DUP2 PUSH2 0x437 JUMP JUMPDEST SWAP3 SWAP2 POP POP JUMP JUMPDEST PUSH0 PUSH1 0x20 DUP3 DUP5 SUB SLT ISZERO PUSH2 0x476 JUMPI PUSH2 0x475 PUSH2 0x426 JUMP JUMPDEST JUMPDEST PUSH0 PUSH2 0x483 DUP5 DUP3 DUP6 ADD PUSH2 0x44D JUMP JUMPDEST SWAP2 POP POP SWAP3 SWAP2 POP POP JUMP JUMPDEST PUSH0 DUP2 MLOAD SWAP1 POP SWAP2 SWAP1 POP JUMP JUMPDEST PUSH0 DUP3 DUP3 MSTORE PUSH1 0x20 DUP3 ADD SWAP1 POP SWAP3 SWAP2 POP POP JUMP JUMPDEST DUP3 DUP2 DUP4 MCOPY PUSH0 DUP4 DUP4 ADD MSTORE POP POP POP JUMP JUMPDEST PUSH0 PUSH1 0x1F NOT PUSH1 0x1F DUP4 ADD AND SWAP1 POP SWAP2 SWAP1 POP JUMP JUMPDEST PUSH0 PUSH2 0x4CE DUP3 PUSH2 0x48C JUMP JUMPDEST PUSH2 0x4D8 DUP2 DUP6 PUSH2 0x496 JUMP JUMPDEST SWAP4 POP PUSH2 0x4E8 DUP2 DUP6 PUSH1 0x20 DUP7 ADD PUSH2 0x4A6 JUMP JUMPDEST PUSH2 0x4F1 DUP2 PUSH2 0x4B4 JUMP JUMPDEST DUP5 ADD SWAP2 POP POP SWAP3 SWAP2 POP POP JUMP JUMPDEST PUSH0 PUSH1 0x20 DUP3 ADD SWAP1 POP DUP2 DUP2 SUB PUSH0 DUP4 ADD MSTORE PUSH2 0x514 DUP2 DUP5 PUSH2 0x4C4 JUMP JUMPDEST SWAP1 POP SWAP3 SWAP2 POP POP JUMP JUMPDEST PUSH2 0x525 DUP2 PUSH2 0x42E JUMP JUMPDEST DUP3 MSTORE POP POP JUMP JUMPDEST PUSH0 PUSH1 0x20 DUP3 ADD SWAP1 POP PUSH2 0x53E PUSH0 DUP4 ADD DUP5 PUSH2 0x51C JUMP JUMPDEST SWAP3 SWAP2 POP POP JUMP JUMPDEST PUSH0 DUP1 REVERT JUMPDEST PUSH0 DUP1 REVERT JUMPDEST PUSH32 0x4E487B7100000000000000000000000000000000000000000000000000000000 PUSH0 MSTORE PUSH1 0x41 PUSH1 0x4 MSTORE PUSH1 0x24 PUSH0 REVERT JUMPDEST PUSH2 0x582 DUP3 PUSH2 0x4B4 JUMP JUMPDEST DUP2 ADD DUP2 DUP2 LT PUSH8 0xFFFFFFFFFFFFFFFF DUP3 GT OR ISZERO PUSH2 0x5A1 JUMPI PUSH2 0x5A0 PUSH2 0x54C JUMP JUMPDEST JUMPDEST DUP1 PUSH1 0x40 MSTORE POP POP POP JUMP JUMPDEST PUSH0 PUSH2 0x5B3 PUSH2 0x41D JUMP JUMPDEST SWAP1 POP PUSH2 0x5BF DUP3 DUP3 PUSH2 0x579 JUMP JUMPDEST SWAP2 SWAP1 POP JUMP JUMPDEST PUSH0 PUSH8 0xFFFFFFFFFFFFFFFF DUP3 GT ISZERO PUSH2 0x5DE JUMPI PUSH2 0x5DD PUSH2 0x54C JUMP JUMPDEST JUMPDEST PUSH2 0x5E7 DUP3 PUSH2 0x4B4 JUMP JUMPDEST SWAP1 POP PUSH1 0x20 DUP2 ADD SWAP1 POP SWAP2 SWAP1 POP JUMP JUMPDEST DUP3 DUP2 DUP4 CALLDATACOPY PUSH0 DUP4 DUP4 ADD MSTORE POP POP POP JUMP JUMPDEST PUSH0 PUSH2 0x614 PUSH2 0x60F DUP5 PUSH2 0x5C4 JUMP JUMPDEST PUSH2 0x5AA JUMP JUMPDEST SWAP1 POP DUP3 DUP2 MSTORE PUSH1 0x20 DUP2 ADD DUP5 DUP5 DUP5 ADD GT ISZERO PUSH2 0x630 JUMPI PUSH2 0x62F PUSH2 0x548 JUMP JUMPDEST JUMPDEST PUSH2 0x63B DUP5 DUP3 DUP6 PUSH2 0x5F4 JUMP JUMPDEST POP SWAP4 SWAP3 POP POP POP JUMP JUMPDEST PUSH0 DUP3 PUSH1 0x1F DUP4 ADD SLT PUSH2 0x657 JUMPI PUSH2 0x656 PUSH2 0x544 JUMP JUMPDEST JUMPDEST DUP2 CALLDATALOAD PUSH2 0x667 DUP5 DUP3 PUSH1 0x20 DUP7 ADD PUSH2 0x602 JUMP JUMPDEST SWAP2 POP POP SWAP3 SWAP2 POP POP JUMP JUMPDEST PUSH0 PUSH1 0x20 DUP3 DUP5 SUB SLT ISZERO PUSH2 0x685 JUMPI PUSH2 0x684 PUSH2 0x426 JUMP JUMPDEST JUMPDEST PUSH0 DUP3 ADD CALLDATALOAD PUSH8 0xFFFFFFFFFFFFFFFF DUP2 GT ISZERO PUSH2 0x6A2 JUMPI PUSH2 0x6A1 PUSH2 0x42A JUMP JUMPDEST JUMPDEST PUSH2 0x6AE DUP5 DUP3 DUP6 ADD PUSH2 0x643 JUMP JUMPDEST SWAP2 POP POP SWAP3 SWAP2 POP POP JUMP JUMPDEST PUSH0 PUSH1 0x40 DUP3 ADD SWAP1 POP PUSH2 0x6CA PUSH0 DUP4 ADD DUP6 PUSH2 0x51C JUMP JUMPDEST DUP2 DUP2 SUB PUSH1 0x20 DUP4 ADD MSTORE PUSH2 0x6DC DUP2 DUP5 PUSH2 0x4C4 JUMP JUMPDEST SWAP1 POP SWAP4 SWAP3 POP POP POP JUMP JUMPDEST PUSH0 DUP1 PUSH1 0x40 DUP4 DUP6 SUB SLT ISZERO PUSH2 0x6FB JUMPI PUSH2 0x6FA PUSH2 0x426 JUMP JUMPDEST JUMPDEST PUSH0 PUSH2 0x708 DUP6 DUP3 DUP7 ADD PUSH2 0x44D JUMP JUMPDEST SWAP3 POP POP PUSH1 0x20 DUP4 ADD CALLDATALOAD PUSH8 0xFFFFFFFFFFFFFFFF DUP2 GT ISZERO PUSH2 0x729 JUMPI PUSH2 0x728 PUSH2 0x42A JUMP JUMPDEST JUMPDEST PUSH2 0x735 DUP6 DUP3 DUP7 ADD PUSH2 0x643 JUMP JUMPDEST SWAP2 POP POP SWAP3 POP SWAP3 SWAP1 POP JUMP JUMPDEST PUSH32 0x4E487B7100000000000000000000000000000000000000000000000000000000 PUSH0 MSTORE PUSH1 0x22 PUSH1 0x4 MSTORE PUSH1 0x24 PUSH0 REVERT JUMPDEST PUSH0 PUSH1 0x2 DUP3 DIV SWAP1 POP PUSH1 0x1 DUP3 AND DUP1 PUSH2 0x783 JUMPI PUSH1 0x7F DUP3 AND SWAP2 POP JUMPDEST PUSH1 0x20 DUP3 LT DUP2 SUB PUSH2 0x796 JUMPI PUSH2 0x795 PUSH2 0x73F JUMP JUMPDEST JUMPDEST POP SWAP2 SWAP1 POP JUMP JUMPDEST PUSH32 0x4E487B7100000000000000000000000000000000000000000000000000000000 PUSH0 MSTORE PUSH1 0x11 PUSH1 0x4 MSTORE PUSH1 0x24 PUSH0 REVERT JUMPDEST PUSH0 PUSH2 0x7D3 DUP3 PUSH2 0x42E JUMP JUMPDEST SWAP2 POP PUSH2 0x7DE DUP4 PUSH2 0x42E JUMP JUMPDEST SWAP3 POP DUP3 DUP3 ADD SWAP1 POP DUP1 DUP3 GT ISZERO PUSH2 0x7F6 JUMPI PUSH2 0x7F5 PUSH2 0x79C JUMP JUMPDEST JUMPDEST SWAP3 SWAP2 POP POP JUMP JUMPDEST PUSH0 DUP2 SWAP1 POP DUP2 PUSH0 MSTORE PUSH1 0x20 PUSH0 KECCAK256 SWAP1 POP SWAP2 SWAP1 POP JUMP JUMPDEST PUSH0 PUSH1 0x20 PUSH1 0x1F DUP4 ADD DIV SWAP1 POP SWAP2 SWAP1 POP JUMP JUMPDEST PUSH0 DUP3 DUP3 SHL SWAP1 POP SWAP3 SWAP2 POP POP JUMP JUMPDEST PUSH0 PUSH1 0x8 DUP4 MUL PUSH2 0x858 PUSH32 0xFFFFFFFFFFFFFFFFFFFFFFFFFFFFFFFFFFFFFFFFFFFFFFFFFFFFFFFFFFFFFFFF DUP3 PUSH2 0x81D JUMP JUMPDEST PUSH2 0x862 DUP7 DUP4 PUSH2 0x81D JUMP JUMPDEST SWAP6 POP DUP1 NOT DUP5 AND SWAP4 POP DUP1 DUP7 AND DUP5 OR SWAP3 POP POP POP SWAP4 SWAP3 POP POP POP JUMP JUMPDEST PUSH0 DUP2 SWAP1 POP SWAP2 SWAP1 POP JUMP JUMPDEST PUSH0 PUSH2 0x89D PUSH2 0x898 PUSH2 0x893 DUP5 PUSH2 0x42E JUMP JUMPDEST PUSH2 0x87A JUMP JUMPDEST PUSH2 0x42E JUMP JUMPDEST SWAP1 POP SWAP2 SWAP1 POP JUMP JUMPDEST PUSH0 DUP2 SWAP1 POP SWAP2 SWAP1 POP JUMP JUMPDEST PUSH2 0x8B6 DUP4 PUSH2 0x883 JUMP JUMPDEST PUSH2 0x8CA PUSH2 0x8C2 DUP3 PUSH2 0x8A4 JUMP JUMPDEST DUP5 DUP5 SLOAD PUSH2 0x829 JUMP JUMPDEST DUP3 SSTORE POP POP POP POP JUMP JUMPDEST PUSH0 SWAP1 JUMP JUMPDEST PUSH2 0x8DE PUSH2 0x8D2 JUMP JUMPDEST PUSH2 0x8E9 DUP2 DUP5 DUP5 PUSH2 0x8AD JUMP JUMPDEST POP POP POP JUMP JUMPDEST JUMPDEST DUP2 DUP2 LT ISZERO PUSH2 0x90C JUMPI PUSH2 0x901 PUSH0 DUP3 PUSH2 0x8D6 JUMP JUMPDEST PUSH1 0x1 DUP2 ADD SWAP1 POP PUSH2 0x8EF JUMP JUMPDEST POP POP JUMP JUMPDEST PUSH1 0x1F DUP3 GT ISZERO PUSH2 0x951 JUMPI PUSH2 0x922 DUP2 PUSH2 0x7FC JUMP JUMPDEST PUSH2 0x92B DUP5 PUSH2 0x80E JUMP JUMPDEST DUP2 ADD PUSH1 0x20 DUP6 LT ISZERO PUSH2 0x93A JUMPI DUP2 SWAP1 POP JUMPDEST PUSH2 0x94E PUSH2 0x946 DUP6 PUSH2 0x80E JUMP JUMPDEST DUP4 ADD DUP3 PUSH2 0x8EE JUMP JUMPDEST POP POP JUMPDEST POP POP POP JUMP JUMPDEST PUSH0 DUP3 DUP3 SHR SWAP1 POP SWAP3 SWAP2 POP POP JUMP JUMPDEST PUSH0 PUSH2 0x971 PUSH0 NOT DUP5 PUSH1 0x8 MUL PUSH2 0x956 JUMP JUMPDEST NOT DUP1 DUP4 AND SWAP2 POP POP SWAP3 SWAP2 POP POP JUMP JUMPDEST PUSH0 PUSH2 0x989 DUP4 DUP4 PUSH2 0x962 JUMP JUMPDEST SWAP2 POP DUP3 PUSH1 0x2 MUL DUP3 OR SWAP1 POP SWAP3 SWAP2 POP POP JUMP JUMPDEST PUSH2 0x9A2 DUP3 PUSH2 0x48C JUMP JUMPDEST PUSH8 0xFFFFFFFFFFFFFFFF DUP2 GT ISZERO PUSH2 0x9BB JUMPI PUSH2 0x9BA PUSH2 0x54C JUMP JUMPDEST JUMPDEST PUSH2 0x9C5 DUP3 SLOAD PUSH2 0x76C JUMP JUMPDEST PUSH2 0x9D0 DUP3 DUP3 DUP6 PUSH2 0x910 JUMP JUMPDEST PUSH0 PUSH1 0x20 SWAP1 POP PUSH1 0x1F DUP4 GT PUSH1 0x1 DUP2 EQ PUSH2 0xA01 JUMPI PUSH0 DUP5 ISZERO PUSH2 0x9EF JUMPI DUP3 DUP8 ADD MLOAD SWAP1 POP JUMPDEST PUSH2 0x9F9 DUP6 DUP3 PUSH2 0x97E JUMP JUMPDEST DUP7 SSTORE POP PUSH2 0xA60 JUMP JUMPDEST PUSH1 0x1F NOT DUP5 AND PUSH2 0xA0F DUP7 PUSH2 0x7FC JUMP JUMPDEST PUSH0 JUMPDEST DUP3 DUP2 LT ISZERO PUSH2 0xA36 JUMPI DUP5 DUP10 ADD MLOAD DUP3 SSTORE PUSH1 0x1 DUP3 ADD SWAP2 POP PUSH1 0x20 DUP6 ADD SWAP5 POP PUSH1 0x20 DUP2 ADD SWAP1 POP PUSH2 0xA11 JUMP JUMPDEST DUP7 DUP4 LT ISZERO PUSH2 0xA53 JUMPI DUP5 DUP10 ADD MLOAD PUSH2 0xA4F PUSH1 0x1F DUP10 AND DUP3 PUSH2 0x962 JUMP JUMPDEST DUP4 SSTORE POP JUMPDEST PUSH1 0x1 PUSH1 0x2 DUP9 MUL ADD DUP9 SSTORE POP POP POP JUMPDEST POP POP POP POP POP POP JUMP JUMPDEST PUSH0 DUP2 SWAP1 POP SWAP3 SWAP2 POP POP JUMP JUMPDEST PUSH0 PUSH2 0xA7C DUP3 PUSH2 0x48C JUMP JUMPDEST PUSH2 0xA86 DUP2 DUP6 PUSH2 0xA68 JUMP JUMPDEST SWAP4 POP PUSH2 0xA96 DUP2 DUP6 PUSH1 0x20 DUP7 ADD PUSH2 0x4A6 JUMP JUMPDEST DUP1 DUP5 ADD SWAP2 POP POP SWAP3 SWAP2 POP POP JUMP JUMPDEST PUSH0 PUSH2 0xAAD DUP3 DUP5 PUSH2 0xA72 JUMP JUMPDEST SWAP2 POP DUP2 SWAP1 POP SWAP3 SWAP2 POP POP JUMP INVALID LOG2 PUSH5 0x6970667358 0x22 SLT KECCAK256 0x22 LOG0 SWAP3 SELFBALANCE PUSH19 0x7394D30C8324E6E11A1169D3F73055FD2E14C7 0xFC COINBASE BLOCKHASH DUP4 EXP 0xB0 DUP4 0x2A PUSH5 0x736F6C6343 STOP ADDMOD BYTE STOP CALLER LOG2 PUSH5 0x6970667358 0x22 SLT KECCAK256 SWAP4 0xC5 0xBA PUSH17 0x39BFEEA97259B383830C49F333943EDDC STOP DUP13 0xD1 SWAP15 BASEFEE EXP 0xE0 SLT DUP10 REVERT STOP PUSH5 0x736F6C6343 STOP ADDMOD BYTE STOP CALLER "
				},
				"gasEstimates": {
					"creation": {
						"codeDepositCost": "821200",
						"executionCost": "855",
						"totalCost": "822055"
					},
					"external": {
						"createSimplestorageContract()": "infinite",
						"simpleStorageArray(uint256)": "infinite",
						"storageFactoryGet(uint256)": "infinite",
						"storageFactorystore(uint256,uint256)": "infinite"
					}
				},
				"methodIdentifiers": {
					"createSimplestorageContract()": "4b254294",
					"simpleStorageArray(uint256)": "64591bf1",
					"storageFactoryGet(uint256)": "5558a3e8",
					"storageFactorystore(uint256,uint256)": "46c1f271"
				}
			},
			"storageLayout": {
				"storage": [
					{
						"astId": 93,
						"contract": "contracts/StorageFactory.sol:StorageFactory",
						"label": "simpleStorageArray",
						"offset": 0,
						"slot": "0",
						"type": "t_array(t_contract(SimpleStorage)86)dyn_storage"
					}
				],
				"types": {
					"t_array(t_contract(SimpleStorage)86)dyn_storage": {
						"base": "t_contract(SimpleStorage)86",
						"encoding": "dynamic_array",
						"label": "contract SimpleStorage[]",
						"numberOfBytes": "32"
					},
					"t_contract(SimpleStorage)86": {
						"encoding": "inplace",
						"label": "contract SimpleStorage",
						"numberOfBytes": "20"
					}
				}
			},
			"userdoc": {
				"kind": "user",
				"methods": {},
				"version": 1
			}
		}
	}
}